{"abi":[{"type":"constructor","inputs":[{"name":"_usdtToken","type":"address","internalType":"address"}],"stateMutability":"nonpayable"},{"type":"function","name":"createPool","inputs":[{"name":"_name","type":"string","internalType":"string"},{"name":"_totalInvestment","type":"uint256","internalType":"uint256"},{"name":"_expectedAPY","type":"uint256","internalType":"uint256"},{"name":"_redemptionDate","type":"uint256","internalType":"uint256"},{"name":"_juniorDistribution","type":"uint256","internalType":"uint256"},{"name":"_seniorDistribution","type":"uint256","internalType":"uint256"}],"outputs":[{"name":"poolId","type":"uint256","internalType":"uint256"}],"stateMutability":"nonpayable"},{"type":"function","name":"getActivePoolsCount","inputs":[],"outputs":[{"name":"count","type":"uint256","internalType":"uint256"}],"stateMutability":"view"},{"type":"function","name":"getAllPools","inputs":[],"outputs":[{"name":"","type":"tuple[]","internalType":"struct BundlePool.Pool[]","components":[{"name":"name","type":"string","internalType":"string"},{"name":"issuer","type":"address","internalType":"address"},{"name":"totalInvestment","type":"uint256","internalType":"uint256"},{"name":"currentNAV","type":"uint256","internalType":"uint256"},{"name":"finalAPY","type":"int256","internalType":"int256"},{"name":"expectedAPY","type":"uint256","internalType":"uint256"},{"name":"redemptionDate","type":"uint256","internalType":"uint256"},{"name":"status","type":"uint8","internalType":"enum BundlePool.PoolStatus"},{"name":"juniorDistribution","type":"uint256","internalType":"uint256"},{"name":"seniorDistribution","type":"uint256","internalType":"uint256"},{"name":"createdAt","type":"uint256","internalType":"uint256"}]}],"stateMutability":"view"},{"type":"function","name":"getPoolDetails","inputs":[{"name":"_poolId","type":"uint256","internalType":"uint256"}],"outputs":[{"name":"","type":"tuple","internalType":"struct BundlePool.Pool","components":[{"name":"name","type":"string","internalType":"string"},{"name":"issuer","type":"address","internalType":"address"},{"name":"totalInvestment","type":"uint256","internalType":"uint256"},{"name":"currentNAV","type":"uint256","internalType":"uint256"},{"name":"finalAPY","type":"int256","internalType":"int256"},{"name":"expectedAPY","type":"uint256","internalType":"uint256"},{"name":"redemptionDate","type":"uint256","internalType":"uint256"},{"name":"status","type":"uint8","internalType":"enum BundlePool.PoolStatus"},{"name":"juniorDistribution","type":"uint256","internalType":"uint256"},{"name":"seniorDistribution","type":"uint256","internalType":"uint256"},{"name":"createdAt","type":"uint256","internalType":"uint256"}]}],"stateMutability":"view"},{"type":"function","name":"getPoolsByStatus","inputs":[{"name":"_status","type":"uint8","internalType":"enum BundlePool.PoolStatus"}],"outputs":[{"name":"","type":"tuple[]","internalType":"struct BundlePool.Pool[]","components":[{"name":"name","type":"string","internalType":"string"},{"name":"issuer","type":"address","internalType":"address"},{"name":"totalInvestment","type":"uint256","internalType":"uint256"},{"name":"currentNAV","type":"uint256","internalType":"uint256"},{"name":"finalAPY","type":"int256","internalType":"int256"},{"name":"expectedAPY","type":"uint256","internalType":"uint256"},{"name":"redemptionDate","type":"uint256","internalType":"uint256"},{"name":"status","type":"uint8","internalType":"enum BundlePool.PoolStatus"},{"name":"juniorDistribution","type":"uint256","internalType":"uint256"},{"name":"seniorDistribution","type":"uint256","internalType":"uint256"},{"name":"createdAt","type":"uint256","internalType":"uint256"}]}],"stateMutability":"view"},{"type":"function","name":"getTimeRemaining","inputs":[{"name":"_poolId","type":"uint256","internalType":"uint256"}],"outputs":[{"name":"monthsLeft","type":"uint256","internalType":"uint256"},{"name":"daysLeft","type":"uint256","internalType":"uint256"},{"name":"hoursLeft","type":"uint256","internalType":"uint256"}],"stateMutability":"view"},{"type":"function","name":"getTrancheDetails","inputs":[{"name":"_poolId","type":"uint256","internalType":"uint256"},{"name":"isJunior","type":"bool","internalType":"bool"}],"outputs":[{"name":"name","type":"string","internalType":"string"},{"name":"pricePerUnit","type":"uint256","internalType":"uint256"},{"name":"totalInvested","type":"uint256","internalType":"uint256"},{"name":"currentNAV","type":"uint256","internalType":"uint256"},{"name":"currentAPY","type":"uint256","internalType":"uint256"},{"name":"distributionPercentage","type":"uint256","internalType":"uint256"}],"stateMutability":"view"},{"type":"function","name":"getUserInvestment","inputs":[{"name":"_poolId","type":"uint256","internalType":"uint256"},{"name":"_user","type":"address","internalType":"address"},{"name":"isJunior","type":"bool","internalType":"bool"}],"outputs":[{"name":"investment","type":"uint256","internalType":"uint256"},{"name":"share","type":"uint256","internalType":"uint256"}],"stateMutability":"view"},{"type":"function","name":"getUserTotalInvestments","inputs":[{"name":"_user","type":"address","internalType":"address"}],"outputs":[{"name":"juniorTotal","type":"uint256","internalType":"uint256"},{"name":"seniorTotal","type":"uint256","internalType":"uint256"}],"stateMutability":"view"},{"type":"function","name":"investJuniorTranche","inputs":[{"name":"_poolId","type":"uint256","internalType":"uint256"},{"name":"_amount","type":"uint256","internalType":"uint256"}],"outputs":[],"stateMutability":"nonpayable"},{"type":"function","name":"investSeniorTranche","inputs":[{"name":"_poolId","type":"uint256","internalType":"uint256"},{"name":"_amount","type":"uint256","internalType":"uint256"}],"outputs":[],"stateMutability":"nonpayable"},{"type":"function","name":"juniorInvestments","inputs":[{"name":"","type":"uint256","internalType":"uint256"},{"name":"","type":"address","internalType":"address"}],"outputs":[{"name":"","type":"uint256","internalType":"uint256"}],"stateMutability":"view"},{"type":"function","name":"juniorShares","inputs":[{"name":"","type":"uint256","internalType":"uint256"},{"name":"","type":"address","internalType":"address"}],"outputs":[{"name":"","type":"uint256","internalType":"uint256"}],"stateMutability":"view"},{"type":"function","name":"juniorTranches","inputs":[{"name":"","type":"uint256","internalType":"uint256"}],"outputs":[{"name":"name","type":"string","internalType":"string"},{"name":"pricePerUnit","type":"uint256","internalType":"uint256"},{"name":"totalInvested","type":"uint256","internalType":"uint256"},{"name":"currentNAV","type":"uint256","internalType":"uint256"},{"name":"currentAPY","type":"uint256","internalType":"uint256"},{"name":"distributionPercentage","type":"uint256","internalType":"uint256"}],"stateMutability":"view"},{"type":"function","name":"owner","inputs":[],"outputs":[{"name":"","type":"address","internalType":"address"}],"stateMutability":"view"},{"type":"function","name":"poolCount","inputs":[],"outputs":[{"name":"","type":"uint256","internalType":"uint256"}],"stateMutability":"view"},{"type":"function","name":"pools","inputs":[{"name":"","type":"uint256","internalType":"uint256"}],"outputs":[{"name":"name","type":"string","internalType":"string"},{"name":"issuer","type":"address","internalType":"address"},{"name":"totalInvestment","type":"uint256","internalType":"uint256"},{"name":"currentNAV","type":"uint256","internalType":"uint256"},{"name":"finalAPY","type":"int256","internalType":"int256"},{"name":"expectedAPY","type":"uint256","internalType":"uint256"},{"name":"redemptionDate","type":"uint256","internalType":"uint256"},{"name":"status","type":"uint8","internalType":"enum BundlePool.PoolStatus"},{"name":"juniorDistribution","type":"uint256","internalType":"uint256"},{"name":"seniorDistribution","type":"uint256","internalType":"uint256"},{"name":"createdAt","type":"uint256","internalType":"uint256"}],"stateMutability":"view"},{"type":"function","name":"renounceOwnership","inputs":[],"outputs":[],"stateMutability":"nonpayable"},{"type":"function","name":"seniorInvestments","inputs":[{"name":"","type":"uint256","internalType":"uint256"},{"name":"","type":"address","internalType":"address"}],"outputs":[{"name":"","type":"uint256","internalType":"uint256"}],"stateMutability":"view"},{"type":"function","name":"seniorShares","inputs":[{"name":"","type":"uint256","internalType":"uint256"},{"name":"","type":"address","internalType":"address"}],"outputs":[{"name":"","type":"uint256","internalType":"uint256"}],"stateMutability":"view"},{"type":"function","name":"seniorTranches","inputs":[{"name":"","type":"uint256","internalType":"uint256"}],"outputs":[{"name":"name","type":"string","internalType":"string"},{"name":"pricePerUnit","type":"uint256","internalType":"uint256"},{"name":"totalInvested","type":"uint256","internalType":"uint256"},{"name":"currentNAV","type":"uint256","internalType":"uint256"},{"name":"currentAPY","type":"uint256","internalType":"uint256"},{"name":"distributionPercentage","type":"uint256","internalType":"uint256"}],"stateMutability":"view"},{"type":"function","name":"transferOwnership","inputs":[{"name":"newOwner","type":"address","internalType":"address"}],"outputs":[],"stateMutability":"nonpayable"},{"type":"function","name":"updateFinalAPY","inputs":[{"name":"_poolId","type":"uint256","internalType":"uint256"},{"name":"_finalAPY","type":"int256","internalType":"int256"}],"outputs":[],"stateMutability":"nonpayable"},{"type":"function","name":"updateNAV","inputs":[{"name":"_poolId","type":"uint256","internalType":"uint256"},{"name":"_newPoolNAV","type":"uint256","internalType":"uint256"}],"outputs":[],"stateMutability":"nonpayable"},{"type":"function","name":"updatePoolStatus","inputs":[{"name":"_poolId","type":"uint256","internalType":"uint256"},{"name":"_status","type":"uint8","internalType":"enum BundlePool.PoolStatus"}],"outputs":[],"stateMutability":"nonpayable"},{"type":"function","name":"usdtToken","inputs":[],"outputs":[{"name":"","type":"address","internalType":"contract IERC20"}],"stateMutability":"view"},{"type":"event","name":"InvestmentMade","inputs":[{"name":"poolId","type":"uint256","indexed":true,"internalType":"uint256"},{"name":"investor","type":"address","indexed":true,"internalType":"address"},{"name":"isJunior","type":"bool","indexed":false,"internalType":"bool"},{"name":"amount","type":"uint256","indexed":false,"internalType":"uint256"},{"name":"newTrancheNAV","type":"uint256","indexed":false,"internalType":"uint256"},{"name":"userShare","type":"uint256","indexed":false,"internalType":"uint256"}],"anonymous":false},{"type":"event","name":"NAVUpdated","inputs":[{"name":"poolId","type":"uint256","indexed":true,"internalType":"uint256"},{"name":"newPoolNAV","type":"uint256","indexed":false,"internalType":"uint256"},{"name":"newJuniorNAV","type":"uint256","indexed":false,"internalType":"uint256"},{"name":"newSeniorNAV","type":"uint256","indexed":false,"internalType":"uint256"}],"anonymous":false},{"type":"event","name":"OwnershipTransferred","inputs":[{"name":"previousOwner","type":"address","indexed":true,"internalType":"address"},{"name":"newOwner","type":"address","indexed":true,"internalType":"address"}],"anonymous":false},{"type":"event","name":"PoolCreated","inputs":[{"name":"poolId","type":"uint256","indexed":true,"internalType":"uint256"},{"name":"name","type":"string","indexed":false,"internalType":"string"},{"name":"issuer","type":"address","indexed":true,"internalType":"address"},{"name":"totalInvestment","type":"uint256","indexed":false,"internalType":"uint256"},{"name":"redemptionDate","type":"uint256","indexed":false,"internalType":"uint256"}],"anonymous":false},{"type":"event","name":"PoolStatusUpdated","inputs":[{"name":"poolId","type":"uint256","indexed":true,"internalType":"uint256"},{"name":"oldStatus","type":"uint8","indexed":false,"internalType":"enum BundlePool.PoolStatus"},{"name":"newStatus","type":"uint8","indexed":false,"internalType":"enum BundlePool.PoolStatus"}],"anonymous":false},{"type":"error","name":"OwnableInvalidOwner","inputs":[{"name":"owner","type":"address","internalType":"address"}]},{"type":"error","name":"OwnableUnauthorizedAccount","inputs":[{"name":"account","type":"address","internalType":"address"}]},{"type":"error","name":"ReentrancyGuardReentrantCall","inputs":[]}],"bytecode":{"object":"0x6080346100e657601f6120a438819003918201601f19168301916001600160401b038311848410176100ea578084926020946040528339810103126100e657516001600160a01b0390818116908190036100e65733156100ce575f5460018060a01b03199033828216175f55604051933391167f8be0079c531659141344cd1fd0a4f28419497f9722a3daafe3b4186f6b6457e05f80a360017f9b779b17422d0df92223018b32b4d1fa46e071723d6817e2486d003becc55f00556001541617600155611fa590816100ff8239f35b604051631e4fbdf760e01b81525f6004820152602490fd5b5f80fd5b634e487b7160e01b5f52604160045260245ffdfe6080806040526004361015610012575f80fd5b5f3560e01c9081630215ba2314611856575080630c8223981461181257806328caf3bc146116055780635aa5ab2d1461154c5780635f75e359146113be5780636370d4a51461137a578063715018a61461132357806373f7ccf7146112905780638a53e4ee146112685780638cd429911461122c5780638da5cb5b146112055780638f060a6b146111545780638f5dd4cc14610ec7578063a1e13ac414610e88578063a98ad46c14610e60578063a991981514610e1c578063ac4afa3814610d56578063aed0183714610d03578063b49126d7146105d1578063b8764c39146104f3578063d0e82bd51461041e578063d88ff1f41461032c578063e3685ce114610276578063f1634c5a146101e5578063f2fde38b1461015b5763f525cb681461013a575f80fd5b34610157575f366003190112610157576020600254604051908152f35b5f80fd5b34610157576020366003190112610157576101746118ae565b61017c611f44565b6001600160a01b039081169081156101cd575f54826bffffffffffffffffffffffff60a01b8216175f55167f8be0079c531659141344cd1fd0a4f28419497f9722a3daafe3b4186f6b6457e05f80a3005b604051631e4fbdf760e01b81525f6004820152602490fd5b3461015757602080600319360112610157576101ff6118ae565b6002545f91829182916001600160a01b03165b818310610229575050506040928351928352820152f35b9091929361026d610251600192865f526006895260405f20855f52895260405f205490611cd1565b95855f526007885260405f20845f52885260405f205490611cd1565b93019190610212565b34610157575f36600319011261015757600280545f90815b8181106102a057602083604051908152f35b805f52600360209080825260ff6007818160405f200154169260059384811015610318576001149485156102f5575b50505050506102e1575b60010161028e565b916102ed600191611d0f565b9290506102d9565b5f87815291905260409020015416915081101561031857841485808080806102cf565b634e487b7160e01b5f52602160045260245ffd5b34610157575f366003190112610157576002805461034981611d87565b915f5b828110610365576040518061036186826119b4565b0390f35b806001915f526003600a60209180835260405f20906040519361038785611a4f565b61039083611ac6565b8552868060a01b03878401541690850152868201546040850152810154606084015260048101546080840152600581015460a0840152600681015460c08401526103e460ff60078301541660e08501611dfe565b60088101546101008401526009810154610120840152015461014082015261040c8287611dd6565b526104178186611dd6565b500161034c565b34610157577fe1e035f75f94e0038561eaa98c5e73b5dabc517ceee7892f8b3b9e5d92084ee361044d366118c4565b610458929192611f44565b6104656002548410611b9c565b825f526003908160205260646104a6600960405f2084868201558361048e600883015487611cde565b04885f5260046020528660405f200155015483611cde565b04845f5260056020528260405f20015560046020526104ee8260405f20015492600560205260405f200154604051938493846040919493926060820195825260208201520152565b0390a2005b346101575760203660031901126101575760043561050f611d35565b5061051d6002548210611b9c565b5f52600360205261036160405f20600a6040519161053a83611a4f565b61054381611ac6565b835260018101546001600160a01b03166020840152600281015460408401526003810154606084015260048101546080840152600581015460a0840152600681015460c0840152600781015461059f9060ff1660e08501611dfe565b600881015461010084015260098101546101208401520154610140820152604051918291602083526020830190611925565b346101575760c03660031901126101575760043567ffffffffffffffff8111610157573660238201121561015757806004013567ffffffffffffffff8111610ae4576040519161062b601f8301601f191660200184611aa4565b818352366024838301011161015757815f926024602093018386013783010152610653611f44565b606461066360a435608435611cd1565b03610cbe57426064351115610c6f5760025461067e81611d0f565b60025560405161068d81611a4f565b828152336020820152602435604082015260243560608201525f608082015260443560a082015260643560c08201525f60e082015260843561010082015260a43561012082015242610140820152815f52600360205260405f2090805180519067ffffffffffffffff8211610ae45781906107088554611a17565b601f8111610c22575b50602090601f8311600114610bba575f92610baf575b50508160011b915f199060031b1c19161782555b6001820160018060a01b036020830151166bffffffffffffffffffffffff60a01b82541617905560408101516002830155606081015160038301556080810151600483015560a0810151600583015560c0810151600683015560e0810151600581101561031857600a916107b56101409260078601611e0a565b6101008101516008850155610120810151600985015501519101556107de608435602435611cde565b506040516107eb81611a6c565b6040516107f781611a88565b6012815271129d5b9a5bdc88151c985b98da194813919560721b60208201528152643a3529440060208201525f60408201525f6060820152604435608082015260843560a0820152815f52600460205260405f2090805180519067ffffffffffffffff8211610ae45761086a8454611a17565b601f8111610b6e575b50602090601f8311600114610b035791806005949260a0945f92610af8575b50508160011b915f199060031b1c19161784555b6020810151600185015560408101516002850155606081015160038501556080810151600485015501519101556108e160a435602435611cde565b50604051916108ef83611a6c565b6040516108fb81611a88565b601481527329b2b734b7b9102a3930b731b432902a37b5b2b760611b6020820152835264ae9f7bcc0060208401525f60408401525f6060840152604435608084015260a43560a0840152815f52600560205260405f20835193845167ffffffffffffffff8111610ae45761096f8354611a17565b95601f8711610aa3575b602096508690601f8311600114610a3a5791806005949260a0945f92610a2f575b50508160011b915f199060031b1c19161784555b8681015160018501556040810151600285015560608101516003850155608081015160048501550151910155817fc2eb38b92efe5352ec9ae4f9fd0c23586592cefe873d311d073242a7e08b3b1d610a11604051936060855260608501906118da565b926024358682015260643560408201528033940390a3604051908152f35b01519050898061099a565b90845f52875f20915f5b601f1985168110610a8c5750926005949260019260a09583601f19811610610a74575b505050811b0184556109ae565b01515f1960f88460031b161c19169055898080610a67565b919289600181928685015181550194019201610a44565b835f5260205f20601f830160051c810160208410610add575b601f890160051c82018110610ad2575050610979565b5f8155600101610abc565b5080610abc565b634e487b7160e01b5f52604160045260245ffd5b015190508880610892565b90845f5260205f20915f5b601f1985168110610b565750926005949260019260a09583601f19811610610b3e575b505050811b0184556108a6565b01515f1960f88460031b161c19169055888080610b31565b91926020600181928685015181550194019201610b0e565b845f5260205f20601f840160051c810160208510610ba8575b601f830160051c82018110610b9d575050610873565b5f8155600101610b87565b5080610b87565b015190508680610727565b9250845f5260205f20905f935b601f1984168510610c07576001945083601f19811610610bef575b505050811b01825561073b565b01515f1960f88460031b161c19169055868080610be2565b81810151835560209485019460019093019290910190610bc7565b909150845f5260205f20601f840160051c810160208510610c68575b90849392915b601f830160051c82018110610c5a575050610711565b5f8155859450600101610c44565b5080610c3e565b60405162461bcd60e51b815260206004820152602160248201527f526564656d7074696f6e2064617465206d75737420626520696e2066757475726044820152606560f81b6064820152608490fd5b60405162461bcd60e51b815260206004820152601c60248201527f446973747269627574696f6e206d75737420657175616c2031303025000000006044820152606490fd5b34610157576020366003190112610157576004355f52600460205260405f20610d2b81611ac6565b6103616001830154926002810154906003810154600560048301549201549260405196879687611b68565b34610157576020366003190112610157576004355f526003602052610ddd60405f20610d8181611ac6565b9060018060a01b03600182015416906002810154906003810154610e066004830154600584015460068501549060ff60078701541692600887015495600a6009890154980154986040519c8d9c8d6101609081815201906118da565b9a60208d015260408c015260608b015260808a015260a089015260c088015260e0870190611918565b6101008501526101208401526101408301520390f35b3461015757604036600319011261015757610e35611898565b6004355f52600860205260405f209060018060a01b03165f52602052602060405f2054604051908152f35b34610157575f366003190112610157576001546040516001600160a01b039091168152602090f35b3461015757604036600319011261015757600435610ea4611f44565b610eb16002548210611b9c565b5f526003602052602435600460405f2001555f80f35b3461015757610ed5366118c4565b610edd611f02565b610eea6002548310611b9c565b610ef5811515611bde565b815f5260206003815260405f2060ff600782015416600581101561031857806001610f299214908115611149575b50611c2a565b5f84815260058352604080822060015491516323b872dd60e01b81523360048201523060248201526044810187905290959290918591839160649183916001600160a01b03165af1801561113e57610f88915f91611111575b50611c8e565b6003806002860195610f9b848854611cd1565b87550192610faa838554611cd1565b845560028101610fbb848254611cd1565b90550191610fca828454611cd1565b8355855f526007845260405f20335f52845260405f20610feb838254611cd1565b9055855f526007845260405f20335f52845260405f205494612710958681029681880414901517156110fd577fe1e035f75f94e0038561eaa98c5e73b5dabc517ceee7892f8b3b9e5d92084ee395611044915490611cf1565b90865f526009855260405f20335f5285528160405f205554604051925f84528584015260408301526060820152847fe61c7f030486668e86de5d8f86dcf86002c53fa71957e9b88d182eb24d9600d460803393a354835f52600482526005600360405f20015492526110d4600360405f200154604051938493846040919493926060820195825260208201520152565b0390a260017f9b779b17422d0df92223018b32b4d1fa46e071723d6817e2486d003becc55f0055005b634e487b7160e01b5f52601160045260245ffd5b6111319150853d8711611137575b6111298183611aa4565b810190611c76565b87610f82565b503d61111f565b6040513d5f823e3d90fd5b600291501486610f23565b34610157576040366003190112610157576004356024358015158103610157576111816002548310611b9c565b156111f5575f52600460205260405f205b6040519061119f82611a6c565b61036160a06111ad83611ac6565b92838552600181015494856020820152600282015480604083015260038301549182606082015260056004850154948560808401520154948591015260405196879687611b68565b5f52600560205260405f20611192565b34610157575f366003190112610157575f546040516001600160a01b039091168152602090f35b346101575760203660031901126101575761036161124b600435611e22565b604080519384526020840192909252908201529081906060820190565b34610157576020366003190112610157576004355f52600560205260405f20610d2b81611ac6565b346101575760403660031901126101575760043560243560058110156101575760407f6897cfcd737712f72e0e7996d4bcebea3a1ba12d458b7f84af17ffde0123d017916112dc611f44565b6112e96002548510611b9c565b835f5260036020526113206007835f20019161130a8160ff85541694611e0a565b61131684518094611918565b6020830190611918565ba2005b34610157575f3660031901126101575761133b611f44565b5f80546001600160a01b0319811682556001600160a01b03167f8be0079c531659141344cd1fd0a4f28419497f9722a3daafe3b4186f6b6457e08280a3005b3461015757604036600319011261015757611393611898565b6004355f52600760205260405f209060018060a01b03165f52602052602060405f2054604051908152f35b34610157576020806003193601126101575760043560059160058210159283610157576002805492905f805b85811061150957506113fb90611d87565b945f925f5b86811061141557604051806103618a826119b4565b805f52600380835260ff6007908b818360405f2001541690610318578981101561031857861461144b575b505050600101611400565b91600a8498926114c7611500956001975f5284895260405f20926040519561147287611a4f565b61147b85611ac6565b8752898060a01b038a860154168b8801528c85015460408801528401546060870152600484015460808701528d84015460a0870152600684015460c08701528301541660e08501611dfe565b6008810154610100840152600981015461012084015201546101408201526114ef828c611dd6565b526114fa818b611dd6565b50611d0f565b94908a80611440565b805f52600384528760ff600760405f20015416906103185785811015610318578714611538575b6001016113ea565b90611544600191611d0f565b919050611530565b3461015757606036600319011261015757600435611568611898565b90604435918215158303610157576040926115866002548410611b9c565b156115cc57815f526006602052825f209060018060a01b031690815f52602052825f2054915f526008602052825f20905f52602052815f20545b82519182526020820152f35b815f526007602052825f209060018060a01b031690815f52602052825f2054915f526009602052825f20905f52602052815f20546115c0565b3461015757611613366118c4565b61161b611f02565b6116286002548310611b9c565b611633811515611bde565b815f5260206003815260405f2060ff60078201541660058110156103185780600161166692149081156111495750611c2a565b5f8481526004808452604080832060015491516323b872dd60e01b81523393810193909352306024840152604483018790529592859183916064918391906001600160a01b03165af1801561113e576116c5915f916111115750611c8e565b60038060028601956116d8848854611cd1565b875501926116e7838554611cd1565b8455600281016116f8848254611cd1565b90550191611707828454611cd1565b8355855f526006845260405f20335f52845260405f20611728838254611cd1565b9055855f526006845260405f20335f52845260405f205494612710958681029681880414901517156110fd577fe1e035f75f94e0038561eaa98c5e73b5dabc517ceee7892f8b3b9e5d92084ee395611781915490611cf1565b90865f526008855260405f20335f5285528160405f20555460405192600184528584015260408301526060820152847fe61c7f030486668e86de5d8f86dcf86002c53fa71957e9b88d182eb24d9600d460803393a354835f52600482526005600360405f20015492526110d4600360405f200154604051938493846040919493926060820195825260208201520152565b346101575760403660031901126101575761182b611898565b6004355f52600660205260405f209060018060a01b03165f52602052602060405f2054604051908152f35b3461015757604036600319011261015757602090611872611898565b6004355f9081526009845260408082206001600160a01b03909316825291845220548152f35b602435906001600160a01b038216820361015757565b600435906001600160a01b038216820361015757565b6040906003190112610157576004359060243590565b91908251928382525f5b848110611904575050825f602080949584010152601f8019910116010190565b6020818301810151848301820152016118e4565b9060058210156103185752565b9061193a6101608351908084528301906118da565b9160018060a01b03602082015116602083015260408101516040830152606081015160608301526080810151608083015260a081015160a083015260c081015160c083015261199160e082015160e0840190611918565b610100808201519083015261012080820151908301526101408091015191015290565b6020808201906020835283518092526040830192602060408460051b8301019501935f915b8483106119e95750505050505090565b9091929394958480611a07600193603f198682030187528a51611925565b98019301930191949392906119d9565b90600182811c92168015611a45575b6020831014611a3157565b634e487b7160e01b5f52602260045260245ffd5b91607f1691611a26565b610160810190811067ffffffffffffffff821117610ae457604052565b60c0810190811067ffffffffffffffff821117610ae457604052565b6040810190811067ffffffffffffffff821117610ae457604052565b90601f8019910116810190811067ffffffffffffffff821117610ae457604052565b9060405191825f8254611ad881611a17565b908184526020946001916001811690815f14611b465750600114611b08575b505050611b0692500383611aa4565b565b5f90815285812095935091905b818310611b2e575050611b0693508201015f8080611af7565b85548884018501529485019487945091830191611b15565b92505050611b0694925060ff191682840152151560051b8201015f8080611af7565b92611b8360a09592989796939860c0865260c08601906118da565b9760208501526040840152606083015260808201520152565b15611ba357565b60405162461bcd60e51b8152602060048201526013602482015272141bdbdb08191bd95cc81b9bdd08195e1a5cdd606a1b6044820152606490fd5b15611be557565b60405162461bcd60e51b815260206004820152601d60248201527f416d6f756e74206d7573742062652067726561746572207468616e20300000006044820152606490fd5b15611c3157565b60405162461bcd60e51b815260206004820152601e60248201527f506f6f6c206e6f7420616363657074696e6720696e766573746d656e747300006044820152606490fd5b90816020910312610157575180151581036101575790565b15611c9557565b60405162461bcd60e51b81526020600482015260146024820152731554d115081d1c985b9cd9995c8819985a5b195960621b6044820152606490fd5b919082018092116110fd57565b818102929181159184041417156110fd57565b8115611cfb570490565b634e487b7160e01b5f52601260045260245ffd5b5f1981146110fd5760010190565b67ffffffffffffffff8111610ae45760051b60200190565b60405190611d4282611a4f565b5f61014083606081528260208201528260408201528260608201528260808201528260a08201528260c08201528260e082015282610100820152826101208201520152565b90611d9182611d1d565b611d9e6040519182611aa4565b8281528092611daf601f1991611d1d565b01905f5b828110611dbf57505050565b602090611dca611d35565b82828501015201611db3565b8051821015611dea5760209160051b010190565b634e487b7160e01b5f52603260045260245ffd5b60058210156103185752565b9060058110156103185760ff80198354169116179055565b611e2f6002548210611b9c565b5f52600360205260405f20604051611e4681611a4f565b611e4f82611ac6565b815260018060a01b036001830154166020820152600282015460408201526003820154606082015260048201546080820152600582015460a0820152610140600a60068401549360c08401948552611eb160ff60078301541660e08601611dfe565b6008810154610100850152600981015461012085015201549101525180421015611ef9574281039081116110fd5762278d0091610e1062015180808585049585060493060490565b505f905f905f90565b7f9b779b17422d0df92223018b32b4d1fa46e071723d6817e2486d003becc55f006002815414611f325760029055565b604051633ee5aeb560e01b8152600490fd5b5f546001600160a01b03163303611f5757565b60405163118cdaa760e01b8152336004820152602490fdfea26469706673582212204955b498eeed69604ca23fe6bd266febf023727f1ab105fe2a43ffaa88262af464736f6c63430008180033","linkReferences":{}},"methodIdentifiers":{"createPool(string,uint256,uint256,uint256,uint256,uint256)":"b49126d7","getActivePoolsCount()":"e3685ce1","getAllPools()":"d88ff1f4","getPoolDetails(uint256)":"b8764c39","getPoolsByStatus(uint8)":"5f75e359","getTimeRemaining(uint256)":"8cd42991","getTrancheDetails(uint256,bool)":"8f060a6b","getUserInvestment(uint256,address,bool)":"5aa5ab2d","getUserTotalInvestments(address)":"f1634c5a","investJuniorTranche(uint256,uint256)":"28caf3bc","investSeniorTranche(uint256,uint256)":"8f5dd4cc","juniorInvestments(uint256,address)":"0c822398","juniorShares(uint256,address)":"a9919815","juniorTranches(uint256)":"aed01837","owner()":"8da5cb5b","poolCount()":"f525cb68","pools(uint256)":"ac4afa38","renounceOwnership()":"715018a6","seniorInvestments(uint256,address)":"6370d4a5","seniorShares(uint256,address)":"0215ba23","seniorTranches(uint256)":"8a53e4ee","transferOwnership(address)":"f2fde38b","updateFinalAPY(uint256,int256)":"a1e13ac4","updateNAV(uint256,uint256)":"d0e82bd5","updatePoolStatus(uint256,uint8)":"73f7ccf7","usdtToken()":"a98ad46c"},"id":0}