{"abi":[{"type":"constructor","inputs":[],"stateMutability":"nonpayable"},{"type":"function","name":"addAdmin","inputs":[{"name":"newAdmin","type":"address","internalType":"address"}],"outputs":[],"stateMutability":"nonpayable"},{"type":"function","name":"batchVerifyUsers","inputs":[{"name":"users","type":"address[]","internalType":"address[]"}],"outputs":[],"stateMutability":"nonpayable"},{"type":"function","name":"isAdmin","inputs":[{"name":"","type":"address","internalType":"address"}],"outputs":[{"name":"","type":"bool","internalType":"bool"}],"stateMutability":"view"},{"type":"function","name":"isVerified","inputs":[{"name":"","type":"address","internalType":"address"}],"outputs":[{"name":"","type":"bool","internalType":"bool"}],"stateMutability":"view"},{"type":"function","name":"mockVerifyUser","inputs":[{"name":"user","type":"address","internalType":"address"}],"outputs":[],"stateMutability":"nonpayable"},{"type":"function","name":"removeAdmin","inputs":[{"name":"admin","type":"address","internalType":"address"}],"outputs":[],"stateMutability":"nonpayable"},{"type":"function","name":"verifyUser","inputs":[{"name":"user","type":"address","internalType":"address"}],"outputs":[],"stateMutability":"nonpayable"},{"type":"event","name":"AdminAdded","inputs":[{"name":"admin","type":"address","indexed":true,"internalType":"address"},{"name":"addedBy","type":"address","indexed":true,"internalType":"address"}],"anonymous":false},{"type":"event","name":"AdminRemoved","inputs":[{"name":"admin","type":"address","indexed":true,"internalType":"address"},{"name":"removedBy","type":"address","indexed":true,"internalType":"address"}],"anonymous":false},{"type":"event","name":"UserVerified","inputs":[{"name":"user","type":"address","indexed":true,"internalType":"address"},{"name":"verifiedBy","type":"address","indexed":true,"internalType":"address"}],"anonymous":false}],"bytecode":{"object":"0x6080806040523461005357335f52600160205260405f20600160ff1982541617905533337fbf3f493c772c8c283fd124432c2d0f539ab343faa04258fe88e52912d36b102b5f80a36105f190816100588239f35b5f80fdfe604060808152600480361015610013575f80fd5b5f3560e01c80631785f53c1461040857806324d7806c146103c95780634d813120146102e95780636931e392146101dd578063704802751461010b578063a61bc320146100a95763b9209e3314610068575f80fd5b346100a55760203660031901126100a557356001600160a01b03811691908290036100a5576020915f525f825260ff815f20541690519015158152f35b5f80fd5b50346100a55760203660031901126100a557356001600160a01b03811691908290036100a557815f525f6020525f20600160ff1982541617905533907fbfb2fa25f828a712fda370028ecc8813c7082c69b239a579753b10e24dd472cc5f80a3005b5090346100a55760203660031901126100a55781356001600160a01b03811692908390036100a557335f52600160205261014a60ff835f205416610529565b825f52600160205260ff825f20541661019b5750815f5260016020525f20600160ff1982541617905533907fbf3f493c772c8c283fd124432c2d0f539ab343faa04258fe88e52912d36b102b5f80a3005b6020606492519162461bcd60e51b8352820152601f60248201527f4964656e7469747952656769737472793a20616c72656164792061646d696e006044820152fd5b50346100a5576020806003193601126100a55781359067ffffffffffffffff928383116100a557366023840112156100a5578201359283116100a5576024820191602436918560051b0101116100a557335f52600193600160205260ff9161024a60ff835f205416610529565b5f5b85811061025557005b86906001600160a01b038061027361026e848b8b610583565b6105a7565b165f525f845285855f2054161561028c575b500161024c565b8061029b61026e848b8b610583565b165f525f8452845f208360ff1982541617905533906102be61026e848b8b610583565b167fbfb2fa25f828a712fda370028ecc8813c7082c69b239a579753b10e24dd472cc5f80a35f610285565b5090346100a55760203660031901126100a55781356001600160a01b03811692908390036100a557335f52600160205261032860ff835f205416610529565b825f525f60205260ff825f2054166103775750815f525f6020525f20600160ff1982541617905533907fbfb2fa25f828a712fda370028ecc8813c7082c69b239a579753b10e24dd472cc5f80a3005b6020608492519162461bcd60e51b8352820152602760248201527f4964656e7469747952656769737472793a207573657220616c72656164792076604482015266195c9a599a595960ca1b6064820152fd5b50346100a55760203660031901126100a557356001600160a01b03811691908290036100a5576020915f526001825260ff815f20541690519015158152f35b5090346100a5576020806003193601126100a55782356001600160a01b03811693908490036100a557335f526001825261044760ff845f205416610529565b835f526001825260ff835f205416156104e85733841461049b5750600190835f52525f2060ff19815416905533907fdb9d5d31320daf5bc7181d565b6da4d12e30f0f4d5aa324a992426c14a1d19ce5f80a3005b915162461bcd60e51b8152918201526024808201527f4964656e7469747952656769737472793a2063616e6e6f742072656d6f76652060448201526339b2b63360e11b6064820152608490fd5b915162461bcd60e51b815291820152601e60248201527f4964656e7469747952656769737472793a206e6f7420616e2061646d696e00006044820152606490fd5b1561053057565b60405162461bcd60e51b815260206004820152602560248201527f4964656e7469747952656769737472793a2063616c6c6572206973206e6f742060448201526430b236b4b760d91b6064820152608490fd5b91908110156105935760051b0190565b634e487b7160e01b5f52603260045260245ffd5b356001600160a01b03811681036100a5579056fea2646970667358221220625c1e50ae92eeafe393fbaa88607f74fc6da454ff537d46519abcac7e11bcaf64736f6c63430008180033","linkReferences":{}},"methodIdentifiers":{"addAdmin(address)":"70480275","batchVerifyUsers(address[])":"6931e392","isAdmin(address)":"24d7806c","isVerified(address)":"b9209e33","mockVerifyUser(address)":"a61bc320","removeAdmin(address)":"1785f53c","verifyUser(address)":"4d813120"},"id":1}