{"abi":[{"type":"constructor","inputs":[{"name":"asset_","type":"address","internalType":"contract IERC20"},{"name":"_identityRegistry","type":"address","internalType":"address"},{"name":"name_","type":"string","internalType":"string"},{"name":"symbol_","type":"string","internalType":"string"}],"stateMutability":"nonpayable"},{"type":"function","name":"BASIS_POINTS","inputs":[],"outputs":[{"name":"","type":"uint256","internalType":"uint256"}],"stateMutability":"view"},{"type":"function","name":"LOCKUP_PERIOD","inputs":[],"outputs":[{"name":"","type":"uint256","internalType":"uint256"}],"stateMutability":"view"},{"type":"function","name":"TARGET_APY","inputs":[],"outputs":[{"name":"","type":"uint256","internalType":"uint256"}],"stateMutability":"view"},{"type":"function","name":"absorbLoss","inputs":[{"name":"amount","type":"uint256","internalType":"uint256"}],"outputs":[],"stateMutability":"nonpayable"},{"type":"function","name":"allowance","inputs":[{"name":"owner","type":"address","internalType":"address"},{"name":"spender","type":"address","internalType":"address"}],"outputs":[{"name":"","type":"uint256","internalType":"uint256"}],"stateMutability":"view"},{"type":"function","name":"approve","inputs":[{"name":"spender","type":"address","internalType":"address"},{"name":"value","type":"uint256","internalType":"uint256"}],"outputs":[{"name":"","type":"bool","internalType":"bool"}],"stateMutability":"nonpayable"},{"type":"function","name":"asset","inputs":[],"outputs":[{"name":"","type":"address","internalType":"address"}],"stateMutability":"view"},{"type":"function","name":"balanceOf","inputs":[{"name":"account","type":"address","internalType":"address"}],"outputs":[{"name":"","type":"uint256","internalType":"uint256"}],"stateMutability":"view"},{"type":"function","name":"convertToAssets","inputs":[{"name":"shares","type":"uint256","internalType":"uint256"}],"outputs":[{"name":"","type":"uint256","internalType":"uint256"}],"stateMutability":"view"},{"type":"function","name":"convertToShares","inputs":[{"name":"assets","type":"uint256","internalType":"uint256"}],"outputs":[{"name":"","type":"uint256","internalType":"uint256"}],"stateMutability":"view"},{"type":"function","name":"decimals","inputs":[],"outputs":[{"name":"","type":"uint8","internalType":"uint8"}],"stateMutability":"view"},{"type":"function","name":"deposit","inputs":[{"name":"assets","type":"uint256","internalType":"uint256"},{"name":"receiver","type":"address","internalType":"address"}],"outputs":[{"name":"","type":"uint256","internalType":"uint256"}],"stateMutability":"nonpayable"},{"type":"function","name":"depositTime","inputs":[{"name":"","type":"address","internalType":"address"}],"outputs":[{"name":"","type":"uint256","internalType":"uint256"}],"stateMutability":"view"},{"type":"function","name":"distributeYield","inputs":[{"name":"amount","type":"uint256","internalType":"uint256"}],"outputs":[],"stateMutability":"nonpayable"},{"type":"function","name":"getCurrentAPY","inputs":[],"outputs":[{"name":"","type":"uint256","internalType":"uint256"}],"stateMutability":"view"},{"type":"function","name":"getLockupTimeRemaining","inputs":[{"name":"user","type":"address","internalType":"address"}],"outputs":[{"name":"","type":"uint256","internalType":"uint256"}],"stateMutability":"view"},{"type":"function","name":"identityRegistry","inputs":[],"outputs":[{"name":"","type":"address","internalType":"contract IdentityRegistry"}],"stateMutability":"view"},{"type":"function","name":"isLockupExpired","inputs":[{"name":"user","type":"address","internalType":"address"}],"outputs":[{"name":"","type":"bool","internalType":"bool"}],"stateMutability":"view"},{"type":"function","name":"lastDistributionTime","inputs":[],"outputs":[{"name":"","type":"uint256","internalType":"uint256"}],"stateMutability":"view"},{"type":"function","name":"maxDeposit","inputs":[{"name":"","type":"address","internalType":"address"}],"outputs":[{"name":"","type":"uint256","internalType":"uint256"}],"stateMutability":"view"},{"type":"function","name":"maxMint","inputs":[{"name":"","type":"address","internalType":"address"}],"outputs":[{"name":"","type":"uint256","internalType":"uint256"}],"stateMutability":"view"},{"type":"function","name":"maxRedeem","inputs":[{"name":"owner","type":"address","internalType":"address"}],"outputs":[{"name":"","type":"uint256","internalType":"uint256"}],"stateMutability":"view"},{"type":"function","name":"maxWithdraw","inputs":[{"name":"owner","type":"address","internalType":"address"}],"outputs":[{"name":"","type":"uint256","internalType":"uint256"}],"stateMutability":"view"},{"type":"function","name":"mint","inputs":[{"name":"shares","type":"uint256","internalType":"uint256"},{"name":"receiver","type":"address","internalType":"address"}],"outputs":[{"name":"","type":"uint256","internalType":"uint256"}],"stateMutability":"nonpayable"},{"type":"function","name":"name","inputs":[],"outputs":[{"name":"","type":"string","internalType":"string"}],"stateMutability":"view"},{"type":"function","name":"owner","inputs":[],"outputs":[{"name":"","type":"address","internalType":"address"}],"stateMutability":"view"},{"type":"function","name":"previewDeposit","inputs":[{"name":"assets","type":"uint256","internalType":"uint256"}],"outputs":[{"name":"","type":"uint256","internalType":"uint256"}],"stateMutability":"view"},{"type":"function","name":"previewMint","inputs":[{"name":"shares","type":"uint256","internalType":"uint256"}],"outputs":[{"name":"","type":"uint256","internalType":"uint256"}],"stateMutability":"view"},{"type":"function","name":"previewRedeem","inputs":[{"name":"shares","type":"uint256","internalType":"uint256"}],"outputs":[{"name":"","type":"uint256","internalType":"uint256"}],"stateMutability":"view"},{"type":"function","name":"previewWithdraw","inputs":[{"name":"assets","type":"uint256","internalType":"uint256"}],"outputs":[{"name":"","type":"uint256","internalType":"uint256"}],"stateMutability":"view"},{"type":"function","name":"redeem","inputs":[{"name":"shares","type":"uint256","internalType":"uint256"},{"name":"receiver","type":"address","internalType":"address"},{"name":"owner","type":"address","internalType":"address"}],"outputs":[{"name":"","type":"uint256","internalType":"uint256"}],"stateMutability":"nonpayable"},{"type":"function","name":"renounceOwnership","inputs":[],"outputs":[],"stateMutability":"nonpayable"},{"type":"function","name":"symbol","inputs":[],"outputs":[{"name":"","type":"string","internalType":"string"}],"stateMutability":"view"},{"type":"function","name":"totalAssets","inputs":[],"outputs":[{"name":"","type":"uint256","internalType":"uint256"}],"stateMutability":"view"},{"type":"function","name":"totalLossAbsorbed","inputs":[],"outputs":[{"name":"","type":"uint256","internalType":"uint256"}],"stateMutability":"view"},{"type":"function","name":"totalSupply","inputs":[],"outputs":[{"name":"","type":"uint256","internalType":"uint256"}],"stateMutability":"view"},{"type":"function","name":"totalYieldDistributed","inputs":[],"outputs":[{"name":"","type":"uint256","internalType":"uint256"}],"stateMutability":"view"},{"type":"function","name":"transfer","inputs":[{"name":"to","type":"address","internalType":"address"},{"name":"value","type":"uint256","internalType":"uint256"}],"outputs":[{"name":"","type":"bool","internalType":"bool"}],"stateMutability":"nonpayable"},{"type":"function","name":"transferFrom","inputs":[{"name":"from","type":"address","internalType":"address"},{"name":"to","type":"address","internalType":"address"},{"name":"value","type":"uint256","internalType":"uint256"}],"outputs":[{"name":"","type":"bool","internalType":"bool"}],"stateMutability":"nonpayable"},{"type":"function","name":"transferOwnership","inputs":[{"name":"newOwner","type":"address","internalType":"address"}],"outputs":[],"stateMutability":"nonpayable"},{"type":"function","name":"withdraw","inputs":[{"name":"assets","type":"uint256","internalType":"uint256"},{"name":"receiver","type":"address","internalType":"address"},{"name":"owner","type":"address","internalType":"address"}],"outputs":[{"name":"","type":"uint256","internalType":"uint256"}],"stateMutability":"nonpayable"},{"type":"event","name":"Approval","inputs":[{"name":"owner","type":"address","indexed":true,"internalType":"address"},{"name":"spender","type":"address","indexed":true,"internalType":"address"},{"name":"value","type":"uint256","indexed":false,"internalType":"uint256"}],"anonymous":false},{"type":"event","name":"Deposit","inputs":[{"name":"sender","type":"address","indexed":true,"internalType":"address"},{"name":"owner","type":"address","indexed":true,"internalType":"address"},{"name":"assets","type":"uint256","indexed":false,"internalType":"uint256"},{"name":"shares","type":"uint256","indexed":false,"internalType":"uint256"}],"anonymous":false},{"type":"event","name":"KYCRequired","inputs":[{"name":"user","type":"address","indexed":true,"internalType":"address"}],"anonymous":false},{"type":"event","name":"LockupEnforced","inputs":[{"name":"user","type":"address","indexed":true,"internalType":"address"},{"name":"unlockTime","type":"uint256","indexed":false,"internalType":"uint256"}],"anonymous":false},{"type":"event","name":"LossAbsorbed","inputs":[{"name":"amount","type":"uint256","indexed":false,"internalType":"uint256"},{"name":"newTotalAssets","type":"uint256","indexed":false,"internalType":"uint256"}],"anonymous":false},{"type":"event","name":"OwnershipTransferred","inputs":[{"name":"previousOwner","type":"address","indexed":true,"internalType":"address"},{"name":"newOwner","type":"address","indexed":true,"internalType":"address"}],"anonymous":false},{"type":"event","name":"Transfer","inputs":[{"name":"from","type":"address","indexed":true,"internalType":"address"},{"name":"to","type":"address","indexed":true,"internalType":"address"},{"name":"value","type":"uint256","indexed":false,"internalType":"uint256"}],"anonymous":false},{"type":"event","name":"Withdraw","inputs":[{"name":"sender","type":"address","indexed":true,"internalType":"address"},{"name":"receiver","type":"address","indexed":true,"internalType":"address"},{"name":"owner","type":"address","indexed":true,"internalType":"address"},{"name":"assets","type":"uint256","indexed":false,"internalType":"uint256"},{"name":"shares","type":"uint256","indexed":false,"internalType":"uint256"}],"anonymous":false},{"type":"event","name":"YieldDistributed","inputs":[{"name":"amount","type":"uint256","indexed":false,"internalType":"uint256"},{"name":"newTotalAssets","type":"uint256","indexed":false,"internalType":"uint256"}],"anonymous":false},{"type":"error","name":"ERC20InsufficientAllowance","inputs":[{"name":"spender","type":"address","internalType":"address"},{"name":"allowance","type":"uint256","internalType":"uint256"},{"name":"needed","type":"uint256","internalType":"uint256"}]},{"type":"error","name":"ERC20InsufficientBalance","inputs":[{"name":"sender","type":"address","internalType":"address"},{"name":"balance","type":"uint256","internalType":"uint256"},{"name":"needed","type":"uint256","internalType":"uint256"}]},{"type":"error","name":"ERC20InvalidApprover","inputs":[{"name":"approver","type":"address","internalType":"address"}]},{"type":"error","name":"ERC20InvalidReceiver","inputs":[{"name":"receiver","type":"address","internalType":"address"}]},{"type":"error","name":"ERC20InvalidSender","inputs":[{"name":"sender","type":"address","internalType":"address"}]},{"type":"error","name":"ERC20InvalidSpender","inputs":[{"name":"spender","type":"address","internalType":"address"}]},{"type":"error","name":"ERC4626ExceededMaxDeposit","inputs":[{"name":"receiver","type":"address","internalType":"address"},{"name":"assets","type":"uint256","internalType":"uint256"},{"name":"max","type":"uint256","internalType":"uint256"}]},{"type":"error","name":"ERC4626ExceededMaxMint","inputs":[{"name":"receiver","type":"address","internalType":"address"},{"name":"shares","type":"uint256","internalType":"uint256"},{"name":"max","type":"uint256","internalType":"uint256"}]},{"type":"error","name":"ERC4626ExceededMaxRedeem","inputs":[{"name":"owner","type":"address","internalType":"address"},{"name":"shares","type":"uint256","internalType":"uint256"},{"name":"max","type":"uint256","internalType":"uint256"}]},{"type":"error","name":"ERC4626ExceededMaxWithdraw","inputs":[{"name":"owner","type":"address","internalType":"address"},{"name":"assets","type":"uint256","internalType":"uint256"},{"name":"max","type":"uint256","internalType":"uint256"}]},{"type":"error","name":"OwnableInvalidOwner","inputs":[{"name":"owner","type":"address","internalType":"address"}]},{"type":"error","name":"OwnableUnauthorizedAccount","inputs":[{"name":"account","type":"address","internalType":"address"}]},{"type":"error","name":"SafeERC20FailedOperation","inputs":[{"name":"token","type":"address","internalType":"address"}]}],"bytecode":{"object":"0x60e0604081815234620004885762001e4b80380380916200002182866200048c565b8439820190608083830312620004885782516001600160a01b039390848116908181036200048857602080840151958787168097036200048857848601516001600160401b0395908681116200048857826200007f918301620004b0565b9160608201518781116200048857620000999201620004b0565b938151868111620003935760038054916001948584811c941680156200047d575b8785101462000469578190601f9485811162000416575b508790858311600114620003b3575f92620003a7575b50505f1982841b1c191690851b1781555b865191888311620003935760049788548681811c9116801562000388575b88821014620003755790818386959493116200031e575b5087918411600114620002b7575f93620002ab575b505082851b925f19911b1c19161785555b865163313ce56760e01b84820190815286825290968789019081118882101762000298578852865188925f92905afa5f5192868852816200028c575b508062000280575b15620002765760ff909116905b156200026d575b60a05260805233156200025957505060058054336001600160a01b0319821681179092559151939091167f8be0079c531659141344cd1fd0a4f28419497f9722a3daafe3b4186f6b6457e05f80a360c0524260095561192690816200052582396080518181816102f60152818161055801528181610beb0152818161103b015281816115c20152611776015260a05181610c30015260c05181818161095a01528181610ad60152610cd10152f35b631e4fbdf760e01b82525f90820152602490fd5b506012620001ab565b50505f80620001a4565b5060ff82111562000197565b90503d10155f6200018f565b604187634e487b7160e01b5f525260245ffd5b015191505f8062000142565b9190869450601f198416928a5f52885f20935f5b8a828210620003075750508511620002ed575b50505050811b01855562000153565b01519060f8845f19921b161c191690555f808080620002de565b8385015187558a98909601959384019301620002cb565b9091929350895f52875f208380870160051c8201928a88106200036b575b9189918897969594930160051c01915b8281106200035c5750506200012d565b5f81558796508991016200034c565b925081926200033c565b60228a634e487b7160e01b5f525260245ffd5b90607f169062000116565b634e487b7160e01b5f52604160045260245ffd5b015190505f80620000e7565b90879350601f19831691855f52895f20925f5b8b828210620003ff5750508411620003e7575b505050811b018155620000f8565b01515f1983861b60f8161c191690555f8080620003d9565b8385015186558b97909501949384019301620003c6565b909150835f52875f208580850160051c8201928a86106200045f575b918991869594930160051c01915b82811062000450575050620000d1565b5f815585945089910162000440565b9250819262000432565b634e487b7160e01b5f52602260045260245ffd5b93607f1693620000ba565b5f80fd5b601f909101601f19168101906001600160401b038211908210176200039357604052565b919080601f84011215620004885782516001600160401b038111620003935760209060405192620004eb83601f19601f85011601856200048c565b81845282828701011162000488575f5b818110620005105750825f9394955001015290565b8581018301518482018401528201620004fb56fe604060808152600480361015610013575f80fd5b5f3560e01c806301e1d11414610ebd57806306fdde0314610dc857806307a2d13a14610b76578063095ea7b314610d1f5780630a28a47714610d00578063134e18f414610cbd57806318160ddd14610c9f57806323b872dd14610c63578063313ce56714610c1a57806338d52e0f14610bd7578063402d267d1461060257806343f459e214610bb257806346c6487314610b7b5780634cdad50614610b7657806359f3bc4414610b485780636e553f6514610a9457806370a082311461047f578063715018a614610a3957806375b1735014610a1b5780638da5cb5b146109f357806394bf804d1461091957806395d89b4114610816578063962ca496146107fa57806397206bd5146107dc578063a9059cbb146107ac578063b3d7f6b91461078d578063b460af94146106c2578063ba08765214610607578063c63d75b614610602578063c6e6f5921461026f578063c8cc5cd814610506578063ce96cb77146104de578063d51f5588146104c0578063d905777e1461047f578063dd62ed3e14610436578063e1f1c4a71461041a578063ec16d076146103fd578063ec78412e14610290578063ed9f244814610274578063ef8b30f71461026f5763f2fde38b146101de575f80fd5b3461026b57602036600319011261026b576101f7610f46565b9061020061156a565b6001600160a01b03918216928315610255575050600554826bffffffffffffffffffffffff60a01b821617600555167f8be0079c531659141344cd1fd0a4f28419497f9722a3daafe3b4186f6b6457e05f80a3005b905f6024925191631e4fbdf760e01b8352820152fd5b5f80fd5b610fcc565b823461026b575f36600319011261026b57602090516105c88152f35b50903461026b5760208060031936011261026b578235906102af61156a565b6102ba8215156112c1565b816102c3611020565b106103a1578060018060a01b039460448660055416915f8751988994859363a9059cbb60e01b85528401528760248401527f0000000000000000000000000000000000000000000000000000000000000000165af1938415610397577fea25c3aa30664715d7b6ef16fc8352095144c51dee6fc7610a018c1d031e7b209461036a575b50610353826008546110b0565b60085561035e611020565b908351928352820152a1005b61038990823d8411610390575b6103818183610fea565b810190611159565b505f610346565b503d610377565b83513d5f823e3d90fd5b8360849184519162461bcd60e51b8352820152603160248201527f4a756e696f725472616e6368653a20696e73756666696369656e742061737365604482015270747320746f206162736f7262206c6f737360781b6064820152fd5b823461026b575f36600319011261026b57602090516203f4808152f35b823461026b575f36600319011261026b57602090516127108152f35b823461026b578060031936011261026b57602090610452610f46565b61045a610f5c565b9060018060a01b038091165f5260018452825f2091165f528252805f20549051908152f35b823461026b57602036600319011261026b576020906104b961049f610f46565b6001600160a01b03165f9081526020819052604090205490565b9051908152f35b823461026b575f36600319011261026b576020906008549051908152f35b823461026b57602036600319011261026b576020906104b961050161049f610f46565b611342565b50903461026b57602036600319011261026b57813561052361156a565b61052e8115156112c1565b81516323b872dd60e01b81523393810193909352306024840152604483018190526020836064815f7f00000000000000000000000000000000000000000000000000000000000000006001600160a01b03165af19283156105f8577ffe4996cd48c364c468cee70dd6b9061874ff01b05c5ea49311cbcabd9b9cb615936105d9575b506105bd816007546110b0565b600755426009556105cc611020565b82519182526020820152a1005b6105f19060203d602011610390576103818183610fea565b505f6105b0565b82513d5f823e3d90fd5b610f72565b50903461026b5761061736610f97565b92919360018060a01b038416805f526006602052835f20546203f48081018091116106af5761064890421015611264565b5f525f602052825f205480861161067a575050836106749161066b602096611342565b948591336116f5565b51908152f35b9251632e52afbb60e21b81526001600160a01b0390941690840190815260208101949094525060408301529081906060010390fd5b601183634e487b7160e01b5f525260245ffd5b50903461026b576106d236610f97565b92919360018060a01b0384165f526006602052825f20546203f480810180911161077a5761070290421015611264565b6001600160a01b0384165f9081526020819052604090205461072390611342565b808611610745575050610674908461073c60209661136d565b948592336116f5565b9251633fa733bb60e21b81526001600160a01b0390941690840190815260208101949094525060408301529081906060010390fd5b601182634e487b7160e01b5f525260245ffd5b50903461026b57602036600319011261026b576104b960209235611317565b823461026b578060031936011261026b576020906107d56107cb610f46565b6024359033611490565b5160018152f35b823461026b575f36600319011261026b576020906007549051908152f35b823461026b575f36600319011261026b576020906104b96111e7565b50903461026b575f36600319011261026b578051905f9280549060018260011c916001841693841561090f575b60209485851081146108fc578488529081156108da5750600114610881575b61087d8686610873828b0383610fea565b5191829182610ed9565b0390f35b5f9081529295507f8a35acfbc15ff81a39ae7d344fd709f28e8600b4aa8c65c6b64bfe7fe36bd19b5b8284106108c7575050508261087d9461087392820101945f610862565b80548685018801529286019281016108aa565b60ff191687860152505050151560051b83010192506108738261087d5f610862565b602283634e487b7160e01b5f525260245ffd5b92607f1692610843565b503461026b578160031936011261026b578035610934610f5c565b835163b9209e3360e01b81523393810193909352916001600160a01b03906020816024817f000000000000000000000000000000000000000000000000000000000000000086165afa9081156109e9579161099e6020969492610674945f916109cc575b50611171565b84165f5260068552825f208054156109c3575b506109bb81611317565b8094336115b6565b4290555f6109b1565b6109e39150883d8a11610390576103818183610fea565b5f610998565b85513d5f823e3d90fd5b823461026b575f36600319011261026b5760055490516001600160a01b039091168152602090f35b823461026b575f36600319011261026b576020906009549051908152f35b3461026b575f36600319011261026b57610a5161156a565b600580546001600160a01b031981169091555f906001600160a01b03167f8be0079c531659141344cd1fd0a4f28419497f9722a3daafe3b4186f6b6457e08280a3005b503461026b578160031936011261026b57803590610ab0610f5c565b835163b9209e3360e01b81523392810192909252906001600160a01b03906020816024817f000000000000000000000000000000000000000000000000000000000000000086165afa9081156109e95791610b196020969492610674945f916109cc5750611171565b81165f5260068552825f20805415610b3f575b50610b3684611398565b938491336115b6565b4290555f610b2c565b823461026b57602036600319011261026b57602090610b6d610b68610f46565b611123565b90519015158152f35b610f20565b823461026b57602036600319011261026b576020906001600160a01b03610ba0610f46565b165f5260068252805f20549051908152f35b823461026b57602036600319011261026b576020906104b9610bd2610f46565b6110de565b823461026b575f36600319011261026b57517f00000000000000000000000000000000000000000000000000000000000000006001600160a01b03168152602090f35b50903461026b575f36600319011261026b5760ff7f0000000000000000000000000000000000000000000000000000000000000000169060ff82116106af576020925051908152f35b823461026b57606036600319011261026b576020906107d5610c83610f46565b610c8b610f5c565b60443591610c9a8333836113c3565b611490565b823461026b575f36600319011261026b576020906002549051908152f35b823461026b575f36600319011261026b57517f00000000000000000000000000000000000000000000000000000000000000006001600160a01b03168152602090f35b50903461026b57602036600319011261026b576104b96020923561136d565b50903461026b578060031936011261026b57610d39610f46565b602435903315610db2576001600160a01b0316908115610d9c5760209350335f5260018452825f20825f52845280835f205582519081527f8c5be1e5ebec7d5bd14f71427d1e84f3dd0314c0f7b2291e5b200ac8c7c3b925843392a35160018152f35b8251634a1406b160e11b81525f81860152602490fd5b825163e602df0560e01b81525f81860152602490fd5b50903461026b575f36600319011261026b578051905f9260035460018160011c91600181168015610eb3575b6020948585108214610ea05750838752908115610e805750600114610e26575b5050506108738261087d940383610fea565b60035f9081529295507fc2575a0e9e593c00f959f8c92f12db2869c3395a3b0502d05e2516446f71f85b5b828410610e6d575050508261087d946108739282010194610e14565b8054868501880152928601928101610e51565b60ff1916868501525050151560051b83010192506108738261087d610e14565b602290634e487b7160e01b5f525260245ffd5b92607f1692610df4565b823461026b575f36600319011261026b576020906104b9611020565b602080825282518183018190529093925f5b828110610f0c57505060409293505f838284010152601f8019910116010190565b818101860151848201604001528501610eeb565b3461026b57602036600319011261026b576020610f3e600435611342565b604051908152f35b600435906001600160a01b038216820361026b57565b602435906001600160a01b038216820361026b57565b3461026b57602036600319011261026b57610f8b610f46565b5060206040515f198152f35b606090600319011261026b57600435906001600160a01b0390602435828116810361026b5791604435908116810361026b5790565b3461026b57602036600319011261026b576020610f3e600435611398565b90601f8019910116810190811067ffffffffffffffff82111761100c57604052565b634e487b7160e01b5f52604160045260245ffd5b6040516370a0823160e01b81523060048201526020816024817f00000000000000000000000000000000000000000000000000000000000000006001600160a01b03165afa9081156110a5575f91611076575090565b90506020813d60201161109d575b8161109160209383610fea565b8101031261026b575190565b3d9150611084565b6040513d5f823e3d90fd5b919082018092116110bd57565b634e487b7160e01b5f52601160045260245ffd5b919082039182116110bd57565b6001600160a01b03165f90815260066020526040902054801561111e576203f48081018091116110bd578042101561111e5761111b9042906110d1565b90565b505f90565b6001600160a01b03165f908152600660205260409020548015611153576203f48081018091116110bd5742101590565b50600190565b9081602091031261026b5751801515810361026b5790565b1561117857565b60405162461bcd60e51b8152602060048201526024808201527f4a756e696f725472616e6368653a2075736572206e6f74204b59432076657269604482015263199a595960e21b6064820152608490fd5b81156111d3570490565b634e487b7160e01b5f52601260045260245ffd5b6111ef611020565b15801561125a575b61125657611207600954426110d1565b801561111e57600754612710908181029181830414901517156110bd5761123690611230611020565b906111c9565b906301e13380918281029281840414901517156110bd5761111b916111c9565b5f90565b50600754156111f7565b1561126b57565b60405162461bcd60e51b815260206004820152602860248201527f4a756e696f725472616e6368653a206c6f636b757020706572696f64206e6f7460448201526708195e1c1a5c995960c21b6064820152608490fd5b156112c857565b60405162461bcd60e51b815260206004820152602160248201527f4a756e696f725472616e6368653a20616d6f756e74206d757374206265203e206044820152600360fc1b6064820152608490fd5b61131f611020565b600181018091116110bd5760025490600182018092116110bd5761111b92611596565b61134a611020565b600181018091116110bd5760025490600182018092116110bd5761111b92611857565b600254600181018091116110bd57611383611020565b90600182018092116110bd5761111b92611596565b600254600181018091116110bd576113ae611020565b90600182018092116110bd5761111b92611857565b919060018060a01b0380931692835f526001602052604093845f2091831691825f52602052845f2054925f1984106113fe575b505050505050565b84841061146057508015611449578115611432575f526001602052835f20905f5260205203905f20555f80808080806113f6565b8451634a1406b160e11b81525f6004820152602490fd5b845163e602df0560e01b81525f6004820152602490fd5b8551637dc7a0d960e11b81526001600160a01b039190911660048201526024810184905260448101859052606490fd5b916001600160a01b03808416928315611552571692831561153a57825f525f60205260405f2054908282106115085750817fddf252ad1be2c89b69c2b068fc378daa952ba7f163c4a11628f55a4df523b3ef92602092855f525f84520360405f2055845f5260405f20818154019055604051908152a3565b60405163391434e360e21b81526001600160a01b03919091166004820152602481019190915260448101829052606490fd5b60405163ec442f0560e01b81525f6004820152602490fd5b604051634b637e8f60e11b81525f6004820152602490fd5b6005546001600160a01b0316330361157e57565b60405163118cdaa760e01b8152336004820152602490fd5b916115a2818385611857565b9181156111d35761111b93091515906110b0565b909160018060a01b03807f00000000000000000000000000000000000000000000000000000000000000001693604093828551916323b872dd60e01b5f52169586600452306024528460445260205f60648180855af160015f51148116156116d6575b8287525f606052156116c1575050169384156116aa57908161165f7fdcbc1c05240f31ff3ad067ef1ee35ce4997762752e3a095284754544f4c709d794936002546110b0565b600255855f525f602052825f20818154019055855f7fddf252ad1be2c89b69c2b068fc378daa952ba7f163c4a11628f55a4df523b3ef60208651858152a382519182526020820152a3565b825163ec442f0560e01b81525f6004820152602490fd5b635274afe760e01b8252600482015260249150fd5b60018115166116ec57813b15153d151616611619565b823d5f823e3d90fd5b6001600160a01b038084169590948583169493909282888703611846575b5050861561155257865f525f602052604093845f20549083821061181557508290885f525f60205203845f205581600254036002555f877fddf252ad1be2c89b69c2b068fc378daa952ba7f163c4a11628f55a4df523b3ef60208751868152a3857f0000000000000000000000000000000000000000000000000000000000000000169584519163a9059cbb60e01b5f521695866004528360245260205f60448180855af160015f51148116156117ff575b828652156116c1575050825191825260208201527ffbde797d201c681b91056529119e0b02407c7bb96a4a2c75c01fc9667232c8db9190a4565b60018115166116ec57813b15153d1516166117c5565b855163391434e360e21b81526001600160a01b03919091166004820152602481019190915260448101839052606490fd5b61185091866113c3565b5f82611713565b90915f1983830992808302928380861095039480860395146118e357848311156118cb5790829109815f038216809204600280826003021880830282030280830282030280830282030280830282030280830282030280920290030293600183805f03040190848311900302920304170290565b82634e487b715f52156003026011186020526024601cfd5b50509061111b92506111c956fea2646970667358221220909e9ff0b2fb762aa6e4c3500e927331ce7326151d84248cb4f74b7eac61937864736f6c63430008180033","linkReferences":{}},"methodIdentifiers":{"BASIS_POINTS()":"e1f1c4a7","LOCKUP_PERIOD()":"ec16d076","TARGET_APY()":"ed9f2448","absorbLoss(uint256)":"ec78412e","allowance(address,address)":"dd62ed3e","approve(address,uint256)":"095ea7b3","asset()":"38d52e0f","balanceOf(address)":"70a08231","convertToAssets(uint256)":"07a2d13a","convertToShares(uint256)":"c6e6f592","decimals()":"313ce567","deposit(uint256,address)":"6e553f65","depositTime(address)":"46c64873","distributeYield(uint256)":"c8cc5cd8","getCurrentAPY()":"962ca496","getLockupTimeRemaining(address)":"43f459e2","identityRegistry()":"134e18f4","isLockupExpired(address)":"59f3bc44","lastDistributionTime()":"75b17350","maxDeposit(address)":"402d267d","maxMint(address)":"c63d75b6","maxRedeem(address)":"d905777e","maxWithdraw(address)":"ce96cb77","mint(uint256,address)":"94bf804d","name()":"06fdde03","owner()":"8da5cb5b","previewDeposit(uint256)":"ef8b30f7","previewMint(uint256)":"b3d7f6b9","previewRedeem(uint256)":"4cdad506","previewWithdraw(uint256)":"0a28a477","redeem(uint256,address,address)":"ba087652","renounceOwnership()":"715018a6","symbol()":"95d89b41","totalAssets()":"01e1d114","totalLossAbsorbed()":"d51f5588","totalSupply()":"18160ddd","totalYieldDistributed()":"97206bd5","transfer(address,uint256)":"a9059cbb","transferFrom(address,address,uint256)":"23b872dd","transferOwnership(address)":"f2fde38b","withdraw(uint256,address,address)":"b460af94"},"id":6}