{"abi":[{"type":"constructor","inputs":[],"stateMutability":"nonpayable"},{"type":"function","name":"allowance","inputs":[{"name":"owner","type":"address","internalType":"address"},{"name":"spender","type":"address","internalType":"address"}],"outputs":[{"name":"","type":"uint256","internalType":"uint256"}],"stateMutability":"view"},{"type":"function","name":"approve","inputs":[{"name":"spender","type":"address","internalType":"address"},{"name":"value","type":"uint256","internalType":"uint256"}],"outputs":[{"name":"","type":"bool","internalType":"bool"}],"stateMutability":"nonpayable"},{"type":"function","name":"balanceOf","inputs":[{"name":"account","type":"address","internalType":"address"}],"outputs":[{"name":"","type":"uint256","internalType":"uint256"}],"stateMutability":"view"},{"type":"function","name":"decimals","inputs":[],"outputs":[{"name":"","type":"uint8","internalType":"uint8"}],"stateMutability":"pure"},{"type":"function","name":"mint","inputs":[{"name":"to","type":"address","internalType":"address"},{"name":"amount","type":"uint256","internalType":"uint256"}],"outputs":[],"stateMutability":"nonpayable"},{"type":"function","name":"mintToSelf","inputs":[{"name":"amount","type":"uint256","internalType":"uint256"}],"outputs":[],"stateMutability":"nonpayable"},{"type":"function","name":"name","inputs":[],"outputs":[{"name":"","type":"string","internalType":"string"}],"stateMutability":"view"},{"type":"function","name":"owner","inputs":[],"outputs":[{"name":"","type":"address","internalType":"address"}],"stateMutability":"view"},{"type":"function","name":"renounceOwnership","inputs":[],"outputs":[],"stateMutability":"nonpayable"},{"type":"function","name":"symbol","inputs":[],"outputs":[{"name":"","type":"string","internalType":"string"}],"stateMutability":"view"},{"type":"function","name":"totalSupply","inputs":[],"outputs":[{"name":"","type":"uint256","internalType":"uint256"}],"stateMutability":"view"},{"type":"function","name":"transfer","inputs":[{"name":"to","type":"address","internalType":"address"},{"name":"value","type":"uint256","internalType":"uint256"}],"outputs":[{"name":"","type":"bool","internalType":"bool"}],"stateMutability":"nonpayable"},{"type":"function","name":"transferFrom","inputs":[{"name":"from","type":"address","internalType":"address"},{"name":"to","type":"address","internalType":"address"},{"name":"value","type":"uint256","internalType":"uint256"}],"outputs":[{"name":"","type":"bool","internalType":"bool"}],"stateMutability":"nonpayable"},{"type":"function","name":"transferOwnership","inputs":[{"name":"newOwner","type":"address","internalType":"address"}],"outputs":[],"stateMutability":"nonpayable"},{"type":"event","name":"Approval","inputs":[{"name":"owner","type":"address","indexed":true,"internalType":"address"},{"name":"spender","type":"address","indexed":true,"internalType":"address"},{"name":"value","type":"uint256","indexed":false,"internalType":"uint256"}],"anonymous":false},{"type":"event","name":"OwnershipTransferred","inputs":[{"name":"previousOwner","type":"address","indexed":true,"internalType":"address"},{"name":"newOwner","type":"address","indexed":true,"internalType":"address"}],"anonymous":false},{"type":"event","name":"Transfer","inputs":[{"name":"from","type":"address","indexed":true,"internalType":"address"},{"name":"to","type":"address","indexed":true,"internalType":"address"},{"name":"value","type":"uint256","indexed":false,"internalType":"uint256"}],"anonymous":false},{"type":"error","name":"ERC20InsufficientAllowance","inputs":[{"name":"spender","type":"address","internalType":"address"},{"name":"allowance","type":"uint256","internalType":"uint256"},{"name":"needed","type":"uint256","internalType":"uint256"}]},{"type":"error","name":"ERC20InsufficientBalance","inputs":[{"name":"sender","type":"address","internalType":"address"},{"name":"balance","type":"uint256","internalType":"uint256"},{"name":"needed","type":"uint256","internalType":"uint256"}]},{"type":"error","name":"ERC20InvalidApprover","inputs":[{"name":"approver","type":"address","internalType":"address"}]},{"type":"error","name":"ERC20InvalidReceiver","inputs":[{"name":"receiver","type":"address","internalType":"address"}]},{"type":"error","name":"ERC20InvalidSender","inputs":[{"name":"sender","type":"address","internalType":"address"}]},{"type":"error","name":"ERC20InvalidSpender","inputs":[{"name":"spender","type":"address","internalType":"address"}]},{"type":"error","name":"OwnableInvalidOwner","inputs":[{"name":"owner","type":"address","internalType":"address"}]},{"type":"error","name":"OwnableUnauthorizedAccount","inputs":[{"name":"account","type":"address","internalType":"address"}]}],"bytecode":{"object":"0x608034620003df576040906001600160401b039080830182811182821017620003cb57835260098152602090684d6f636b205553444360b81b8282015283519284840184811082821117620003cb578552600493848152635553444360e01b848201528251828111620003b8576003918254916001958684811c94168015620003ad575b888510146200039a578190601f9485811162000347575b508890858311600114620002e4575f92620002d8575b50505f1982861b1c191690861b1783555b8051938411620002c55786548581811c91168015620002ba575b87821014620002a7578281116200025f575b5085918411600114620001f8579383949184925f95620001ec575b50501b925f19911b1c19161782555b3315620001d65760058054336001600160a01b0319821681179092556001600160a01b03167f8be0079c531659141344cd1fd0a4f28419497f9722a3daafe3b4186f6b6457e05f80a36002546509184e72a00092838201809211620001c357505f917fddf252ad1be2c89b69c2b068fc378daa952ba7f163c4a11628f55a4df523b3ef9160025533835282815284832084815401905584519384523393a3516108d49081620003e48239f35b601190634e487b7160e01b5f525260245ffd5b505f6024925191631e4fbdf760e01b8352820152fd5b015193505f8062000108565b9190601f19841692875f5284875f20945f5b89898383106200024757505050106200022d575b50505050811b01825562000117565b01519060f8845f19921b161c191690555f8080806200021e565b8686015189559097019694850194889350016200020a565b875f52865f208380870160051c8201928988106200029d575b0160051c019086905b82811062000291575050620000ed565b5f815501869062000281565b9250819262000278565b602288634e487b7160e01b5f525260245ffd5b90607f1690620000db565b604187634e487b7160e01b5f525260245ffd5b015190505f80620000b0565b90889350601f19831691875f528a5f20925f5b8c82821062000330575050841162000318575b505050811b018355620000c1565b01515f1983881b60f8161c191690555f80806200030a565b8385015186558c97909501949384019301620002f7565b909150855f52885f208580850160051c8201928b861062000390575b918a91869594930160051c01915b828110620003815750506200009a565b5f81558594508a910162000371565b9250819262000363565b602289634e487b7160e01b5f525260245ffd5b93607f169362000083565b604186634e487b7160e01b5f525260245ffd5b634e487b7160e01b5f52604160045260245ffd5b5f80fdfe608060409080825260049081361015610016575f80fd5b5f3560e01c90816306fdde03146105bb57508063095ea7b31461051257806318160ddd146104f457806323b872dd14610403578063313ce567146103e857806340c10f19146103bc57806370a0823114610386578063715018a61461032b5780638da5cb5b1461030357806395d89b41146101e3578063a9059cbb146101b3578063bb6d5e3b14610194578063dd62ed3e1461014b5763f2fde38b146100ba575f80fd5b34610147576020366003190112610147576100d36106f8565b906100dc6107fe565b6001600160a01b03918216928315610131575050600554826bffffffffffffffffffffffff60a01b821617600555167f8be0079c531659141344cd1fd0a4f28419497f9722a3daafe3b4186f6b6457e05f80a3005b905f6024925191631e4fbdf760e01b8352820152fd5b5f80fd5b82346101475780600319360112610147576020906101676106f8565b61016f61070e565b9060018060a01b038091165f5260018452825f2091165f528252805f20549051908152f35b5034610147576020366003190112610147576101b190353361082a565b005b82346101475780600319360112610147576020906101dc6101d26106f8565b6024359033610724565b5160018152f35b509034610147575f366003190112610147578051905f835460018160011c90600183169283156102f9575b60209384841081146102e6578388529081156102ca5750600114610276575b505050829003601f01601f191682019267ffffffffffffffff841183851017610263575082918261025f9252826106b1565b0390f35b604190634e487b7160e01b5f525260245ffd5b5f878152929350837f8a35acfbc15ff81a39ae7d344fd709f28e8600b4aa8c65c6b64bfe7fe36bd19b5b8385106102b657505050508301015f808061022d565b8054888601830152930192849082016102a0565b60ff1916878501525050151560051b84010190505f808061022d565b602289634e487b7160e01b5f525260245ffd5b91607f169161020e565b8234610147575f3660031901126101475760055490516001600160a01b039091168152602090f35b34610147575f366003190112610147576103436107fe565b600580546001600160a01b031981169091555f906001600160a01b03167f8be0079c531659141344cd1fd0a4f28419497f9722a3daafe3b4186f6b6457e08280a3005b8234610147576020366003190112610147576020906001600160a01b036103ab6106f8565b165f525f8252805f20549051908152f35b823461014757366003190112610147576101b16103d76106f8565b6103df6107fe565b6024359061082a565b8234610147575f366003190112610147576020905160068152f35b50346101475760603660031901126101475761041d6106f8565b61042561070e565b906044359260018060a01b038216805f526001602052855f20335f52602052855f2054915f198310610460575b6020876101dc888888610724565b8583106104c85781156104b257331561049c57505f908152600160209081528682203383528152908690209185900390915582906101dc610452565b6024905f885191634a1406b160e11b8352820152fd5b6024905f88519163e602df0560e01b8352820152fd5b8651637dc7a0d960e11b8152339181019182526020820193909352604081018690528291506060010390fd5b8234610147575f366003190112610147576020906002549051908152f35b50903461014757806003193601126101475761052c6106f8565b6024359033156105a5576001600160a01b031690811561058f5760209350335f5260018452825f20825f52845280835f205582519081527f8c5be1e5ebec7d5bd14f71427d1e84f3dd0314c0f7b2291e5b200ac8c7c3b925843392a35160018152f35b8251634a1406b160e11b81525f81860152602490fd5b825163e602df0560e01b81525f81860152602490fd5b90508234610147575f366003190112610147575f60035460018160011c90600183169283156106a7575b60209384841081146102e65783885290811561068b575060011461063557505050829003601f01601f191682019267ffffffffffffffff841183851017610263575082918261025f9252826106b1565b60035f908152929350837fc2575a0e9e593c00f959f8c92f12db2869c3395a3b0502d05e2516446f71f85b5b838510610677575050505083010184808061022d565b805488860183015293019284908201610661565b60ff1916878501525050151560051b840101905084808061022d565b91607f16916105e5565b602080825282518183018190529093925f5b8281106106e457505060409293505f838284010152601f8019910116010190565b8181018601518482016040015285016106c3565b600435906001600160a01b038216820361014757565b602435906001600160a01b038216820361014757565b916001600160a01b038084169283156107e657169283156107ce57825f525f60205260405f20549082821061079c5750817fddf252ad1be2c89b69c2b068fc378daa952ba7f163c4a11628f55a4df523b3ef92602092855f525f84520360405f2055845f5260405f20818154019055604051908152a3565b60405163391434e360e21b81526001600160a01b03919091166004820152602481019190915260448101829052606490fd5b60405163ec442f0560e01b81525f6004820152602490fd5b604051634b637e8f60e11b81525f6004820152602490fd5b6005546001600160a01b0316330361081257565b60405163118cdaa760e01b8152336004820152602490fd5b6001600160a01b03169081156107ce576002549080820180921161088a5760207fddf252ad1be2c89b69c2b068fc378daa952ba7f163c4a11628f55a4df523b3ef915f9360025584845283825260408420818154019055604051908152a3565b634e487b7160e01b5f52601160045260245ffdfea26469706673582212200933b6269a431ea49f61797a6da73d71bca35ec42d6c4f303906427f85fa0a8964736f6c63430008180033","linkReferences":{}},"methodIdentifiers":{"allowance(address,address)":"dd62ed3e","approve(address,uint256)":"095ea7b3","balanceOf(address)":"70a08231","decimals()":"313ce567","mint(address,uint256)":"40c10f19","mintToSelf(uint256)":"bb6d5e3b","name()":"06fdde03","owner()":"8da5cb5b","renounceOwnership()":"715018a6","symbol()":"95d89b41","totalSupply()":"18160ddd","transfer(address,uint256)":"a9059cbb","transferFrom(address,address,uint256)":"23b872dd","transferOwnership(address)":"f2fde38b"},"id":1}