{"abi":[{"type":"constructor","inputs":[{"name":"_usdc","type":"address","internalType":"address"},{"name":"_rwaIncomeNFT","type":"address","internalType":"address"},{"name":"_identityRegistry","type":"address","internalType":"address"}],"stateMutability":"nonpayable"},{"type":"function","name":"BASIS_POINTS","inputs":[],"outputs":[{"name":"","type":"uint256","internalType":"uint256"}],"stateMutability":"view"},{"type":"function","name":"LTV_RATIO","inputs":[],"outputs":[{"name":"","type":"uint256","internalType":"uint256"}],"stateMutability":"view"},{"type":"function","name":"borrow","inputs":[{"name":"amount","type":"uint256","internalType":"uint256"}],"outputs":[],"stateMutability":"nonpayable"},{"type":"function","name":"depositAndBorrow","inputs":[{"name":"nftId","type":"uint256","internalType":"uint256"},{"name":"amount","type":"uint256","internalType":"uint256"},{"name":"enableAutoRepay","type":"bool","internalType":"bool"}],"outputs":[],"stateMutability":"nonpayable"},{"type":"function","name":"depositCollateral","inputs":[{"name":"nftId","type":"uint256","internalType":"uint256"}],"outputs":[],"stateMutability":"nonpayable"},{"type":"function","name":"enableAutoRepay","inputs":[],"outputs":[],"stateMutability":"nonpayable"},{"type":"function","name":"getUserCollateralNFTs","inputs":[{"name":"user","type":"address","internalType":"address"}],"outputs":[{"name":"","type":"uint256[]","internalType":"uint256[]"}],"stateMutability":"view"},{"type":"function","name":"getUserCollateralValue","inputs":[{"name":"user","type":"address","internalType":"address"}],"outputs":[{"name":"","type":"uint256","internalType":"uint256"}],"stateMutability":"view"},{"type":"function","name":"getUserDebt","inputs":[{"name":"user","type":"address","internalType":"address"}],"outputs":[{"name":"","type":"uint256","internalType":"uint256"}],"stateMutability":"view"},{"type":"function","name":"identityRegistry","inputs":[],"outputs":[{"name":"","type":"address","internalType":"contract IdentityRegistry"}],"stateMutability":"view"},{"type":"function","name":"isAutoRepayEnabled","inputs":[{"name":"user","type":"address","internalType":"address"}],"outputs":[{"name":"","type":"bool","internalType":"bool"}],"stateMutability":"view"},{"type":"function","name":"isNFTLocked","inputs":[{"name":"nftId","type":"uint256","internalType":"uint256"}],"outputs":[{"name":"","type":"bool","internalType":"bool"}],"stateMutability":"view"},{"type":"function","name":"nftDepositor","inputs":[{"name":"","type":"uint256","internalType":"uint256"}],"outputs":[{"name":"","type":"address","internalType":"address"}],"stateMutability":"view"},{"type":"function","name":"repay","inputs":[{"name":"amount","type":"uint256","internalType":"uint256"}],"outputs":[],"stateMutability":"nonpayable"},{"type":"function","name":"repayOnBehalfOf","inputs":[{"name":"borrower","type":"address","internalType":"address"},{"name":"amount","type":"uint256","internalType":"uint256"}],"outputs":[],"stateMutability":"nonpayable"},{"type":"function","name":"rwaIncomeNFT","inputs":[],"outputs":[{"name":"","type":"address","internalType":"contract RWAIncomeNFT"}],"stateMutability":"view"},{"type":"function","name":"usdc","inputs":[],"outputs":[{"name":"","type":"address","internalType":"contract IERC20"}],"stateMutability":"view"},{"type":"function","name":"userPositions","inputs":[{"name":"","type":"address","internalType":"address"}],"outputs":[{"name":"totalDebt","type":"uint256","internalType":"uint256"},{"name":"autoRepayEnabled","type":"bool","internalType":"bool"}],"stateMutability":"view"},{"type":"function","name":"withdrawCollateral","inputs":[{"name":"nftId","type":"uint256","internalType":"uint256"}],"outputs":[],"stateMutability":"nonpayable"},{"type":"event","name":"AutoRepayEnabled","inputs":[{"name":"user","type":"address","indexed":true,"internalType":"address"}],"anonymous":false},{"type":"event","name":"Borrowed","inputs":[{"name":"user","type":"address","indexed":true,"internalType":"address"},{"name":"amount","type":"uint256","indexed":false,"internalType":"uint256"},{"name":"totalDebt","type":"uint256","indexed":false,"internalType":"uint256"}],"anonymous":false},{"type":"event","name":"CollateralDeposited","inputs":[{"name":"user","type":"address","indexed":true,"internalType":"address"},{"name":"nftId","type":"uint256","indexed":true,"internalType":"uint256"},{"name":"value","type":"uint256","indexed":false,"internalType":"uint256"}],"anonymous":false},{"type":"event","name":"CollateralWithdrawn","inputs":[{"name":"user","type":"address","indexed":true,"internalType":"address"},{"name":"nftId","type":"uint256","indexed":true,"internalType":"uint256"}],"anonymous":false},{"type":"event","name":"Repaid","inputs":[{"name":"user","type":"address","indexed":true,"internalType":"address"},{"name":"amount","type":"uint256","indexed":false,"internalType":"uint256"},{"name":"remainingDebt","type":"uint256","indexed":false,"internalType":"uint256"}],"anonymous":false},{"type":"error","name":"ReentrancyGuardReentrantCall","inputs":[]}],"bytecode":{"object":"0x60e03461011457601f6200187238819003918201601f19168301916001600160401b0383118484101761011857808492606094604052833981010312610114576100488161012c565b61006060406100596020850161012c565b930161012c565b60017f9b779b17422d0df92223018b32b4d1fa46e071723d6817e2486d003becc55f00556001600160a01b0391821660805291811660a0521660c05260405161173190816200014182396080518181816101ba015281816103f501528181610c9b01528181610d490152611041015260a051818181610651015281816108580152818161098701528181610efc01526115e9015260c05181818161036b0152818161060201528181610ebe01526112ed0152f35b5f80fd5b634e487b7160e01b5f52604160045260245ffd5b51906001600160a01b03821682036101145756fe60806040818152600480361015610014575f80fd5b5f925f3560e01c908163134e18f4146112db5750806314211c5314610e6b5780631a5a3b8614610e37578063302916de14610df6578063371fd8e614610cca5780633e413bee14610c865780634e63d95c14610bd75780635696b18914610bba5780636112fe2e146108fd578063613cf420146108b457806375417da614610887578063793aae0d14610843578063bad4a01f146105c0578063c5ebeaec1461032a578063e1f1c4a71461030d578063e5d61e93146102bb578063e65896c91461027c578063ede66a45146101265763fac8440e146100f1575f80fd5b346101225760203660031901126101225735825260016020908152918190205490516001600160a01b039091168152f35b8280fd5b50346101225781600319360112610122576101b69161014361131c565b60243561014e6116ac565b602060018060a01b03809316948588528782526001858920019283549061017682151561156e565b8181111561027257509384915b86516323b872dd60e01b81523391810191825230602083015260408201939093529197889283918b918391606090910190565b03927f0000000000000000000000000000000000000000000000000000000000000000165af1948515610268577f1b8cd61ed43bec7c6bdad3a18ffee613f99c853d16c50678d248d879e1b434389495610239575b506102178282546115ba565b80915582519182526020820152a260015f805160206116dc8339815191525580f35b61025a9060203d602011610261575b610252818361135a565b81019061137c565b505f61020b565b503d610248565b83513d88823e3d90fd5b9050938491610183565b5050346102b75760203660031901126102b75760209160019082906001600160a01b036102a761131c565b1681528085522001549051908152f35b5080fd5b5050346102b757816003193601126102b75760029033835282602052822001600160ff19825416179055337f2b64c559c157da187597a94c30db5332612f2a8b9c69de94efc60261e913256c8280a280f35b5050346102b757816003193601126102b757602090516127108152f35b50903461012257602090816003193601126105bc5782359161034a6116ac565b815163b9209e3360e01b815233858201526001600160a01b039082816024817f000000000000000000000000000000000000000000000000000000000000000086165afa9081156105b257906103a7918891610595575b50611394565b6103b2841515611457565b3386528582528286206103c4336115c7565b90611388918281029281840414901517156105825760010191612710835492046103ee878461154d565b1161053f577f0000000000000000000000000000000000000000000000000000000000000000169084516370a0823160e01b815230888201528481602481865afa9081156105355789916104fc575b509161048a9761045b888094610456828a9810156114f5565b61154d565b8555865163a9059cbb60e01b81523391810191825260208201939093529197889283918b918391604090910190565b03925af1948515610268577feae9cfbc77fdd40ca899f36b608256063b2bc9d8178b0220f7ad513e178d673094956104df575b50549082519485528401523392a260015f805160206116dc8339815191525580f35b6104f590833d851161026157610252818361135a565b505f6104bd565b919290508482813d831161052e575b610515818361135a565b8101031261052a57905190919061048a61043d565b5f80fd5b503d61050b565b86513d8b823e3d90fd5b845162461bcd60e51b8152808801859052601f60248201527f4f72626974525741506f6f6c3a2065786365656473204c5456206c696d6974006044820152606490fd5b634e487b7160e01b885260118752602488fd5b6105ac9150843d861161026157610252818361135a565b5f6103a1565b84513d89823e3d90fd5b8380fd5b50903461012257602091826003193601126105bc578035926105e06116ac565b825163b9209e3360e01b815233818401526001600160a01b03929082816024817f000000000000000000000000000000000000000000000000000000000000000088165afa908115610839579061063d9188916105955750611394565b83516331a9108f60e11b81528181018690527f00000000000000000000000000000000000000000000000000000000000000008416938382602481885afa91821561082f579061069892918992610800575b5016331461140b565b823b156107f25783516323b872dd60e01b81523382820190815230602082015260408101879052879190829082908190606001038183895af180156107f6579184939188936107d6575b50506024903389528884526106f983888b206114cb565b82895260018452868920336bffffffffffffffffffffffff60a01b825416179055865195869384926307fa648b60e11b84528301525afa9182156107cc57859261077d575b507ff4d587c98d234ca4d147061e6b5167e7f41ee17f11562a9f0b49570abece859e9192519283523392a360015f805160206116dc8339815191525580f35b91508082813d83116107c5575b610794818361135a565b8101031261052a577ff4d587c98d234ca4d147061e6b5167e7f41ee17f11562a9f0b49570abece859e91519161073e565b503d61078a565b83513d87823e3d90fd5b9092506107e4919350611332565b6107f257848291875f6106e2565b8580fd5b86513d84823e3d90fd5b610821919250853d8711610828575b610819818361135a565b8101906113ec565b905f61068f565b503d61080f565b86513d8a823e3d90fd5b85513d89823e3d90fd5b5050346102b757816003193601126102b757517f00000000000000000000000000000000000000000000000000000000000000006001600160a01b03168152602090f35b5050346102b75760203660031901126102b7576020906108ad6108a861131c565b6115c7565b9051908152f35b5050346102b75760203660031901126102b7579081906001600160a01b036108da61131c565b168152806020522060ff6002600183015492015416825191825215156020820152f35b509190346102b757602092836003193601126101225780359061091e6116ac565b8184526001808652838520549093906001600160a01b039081163303610b6d57338652858752848287200154610b1e573386528587528186209686865b610a43575b508697509484958795829852528184206bffffffffffffffffffffffff60a01b81541690557f000000000000000000000000000000000000000000000000000000000000000016803b156105bc5781516323b872dd60e01b81523093810193845233602085015260408401869052928491849182908490829060600103925af1908115610a3a5750610a26575b5050337fc30fcfbcaac9e0deffa719714eaa82396ff506a0d0d0eebe170830177288715d8480a35f805160206116dc8339815191525580f35b610a2f90611332565b61012257825f6109ed565b513d84823e3d90fd5b885480821015610b18578690610a59838c6114a2565b929054600393841b1c14610a7157505086018661095b565b909293949596979899915f1991828101908111610b055790610aa6610a99610abe93866114a2565b905490871b1c91856114a2565b90919082549060031b91821b915f19901b1916179055565b81548015610af25791818a94928c99989796940192610add84846114a2565b81939154921b1b191690555590959496610960565b634e487b7160e01b8b526031885260248bfd5b634e487b7160e01b8c526011895260248cfd5b50610960565b815162461bcd60e51b8152808401889052602360248201527f4f72626974525741506f6f6c3a206d75737420726570617920646562742066696044820152621c9cdd60ea1b6064820152608490fd5b815162461bcd60e51b8152808401889052602160248201527f4f72626974525741506f6f6c3a206e6f7420796f757220636f6c6c61746572616044820152601b60fa1b6064820152608490fd5b5050346102b757816003193601126102b757602090516113888152f35b828434610c835760209081600319360112610c835782906001600160a01b03610bfe61131c565b168152808352818120908251808584549182815201908194845286842090845b818110610c6f5750505081610c3491038261135a565b83519485948186019282875251809352850193925b828110610c5857505050500390f35b835185528695509381019392810192600101610c49565b825484529288019260019283019201610c1e565b80fd5b5050346102b757816003193601126102b757517f00000000000000000000000000000000000000000000000000000000000000006001600160a01b03168152602090f35b503461012257602091826003193601126105bc57610d4492823590610ced6116ac565b3386528581528060018488200192835490610d0982151561156e565b81811115610ded575080955b85516323b872dd60e01b8152339181019182523060208301526040820192909252909687918291606090910190565b0381897f00000000000000000000000000000000000000000000000000000000000000006001600160a01b03165af1948515610268577f1b8cd61ed43bec7c6bdad3a18ffee613f99c853d16c50678d248d879e1b434389495610dd0575b50610dae8583546115ba565b80925582519485528401523392a260015f805160206116dc8339815191525580f35b610de690823d841161026157610252818361135a565b505f610da2565b90508095610d15565b5050346102b75760203660031901126102b75760209160ff9060029083906001600160a01b03610e2461131c565b1681528086522001541690519015158152f35b50346101225760203660031901126101225735825260016020908152918190205490516001600160a01b0390911615158152f35b503461052a57606036600319011261052a5780359160249283359260443590811515820361052a57610e9b6116ac565b835163b9209e3360e01b815233828201526020936001600160a01b039185818a817f000000000000000000000000000000000000000000000000000000000000000087165afa9081156112d15790610ef9915f916112ba5750611394565b817f00000000000000000000000000000000000000000000000000000000000000001686516331a9108f60e11b8152828582015286818b81855afa9081156112935790610f51915f9161129d575b508416331461140b565b610f5c881515611457565b803b1561052a5786516323b872dd60e01b815233858201908152306020820152604081018490525f9082908190606001038183865af1801561129357611278575b5090858992610fb4838a8e338152808652206114cb565b828c5260018252888c2080546001600160a01b0319163317905588516307fa648b60e11b815286810184905293849182905afa91821561126e578a9261123f575b5086518281527ff4d587c98d234ca4d147061e6b5167e7f41ee17f11562a9f0b49570abece859e873392a36113889081810291818304149015171561122d57612710900486116111df577f0000000000000000000000000000000000000000000000000000000000000000169583855180926370a0823160e01b82523085830152818a5afa9081156111d55788916111a6575b506110e296849261109c88809410156114f5565b338a528984526001878b20016110b384825461154d565b9055865163a9059cbb60e01b81523391810191825260208201939093529197889283918b918391604090910190565b03925af1948515610268577feae9cfbc77fdd40ca899f36b608256063b2bc9d8178b0220f7ad513e178d67309495611189575b50611148575b338552848152600182862001549082519485528401523392a260015f805160206116dc8339815191525580f35b33808652858252828620600201805460ff191660011790557f2b64c559c157da187597a94c30db5332612f2a8b9c69de94efc60261e913256c8680a261111b565b61119f90833d851161026157610252818361135a565b505f611115565b90508381813d83116111ce575b6111bd818361135a565b8101031261052a57516110e2611088565b503d6111b3565b85513d8a823e3d90fd5b845162461bcd60e51b81528083018590526023818901527f4f72626974525741506f6f6c3a206578636565647320353025204c5456206c696044820152621b5a5d60ea1b6064820152608490fd5b634e487b7160e01b8952601183528789fd5b9091508581813d8311611267575b611257818361135a565b8101031261052a5751905f610ff5565b503d61124d565b87513d8c823e3d90fd5b879a508992916112888892611332565b5f9b50919250610f9d565b88513d5f823e3d90fd5b6112b49150883d8a1161082857610819818361135a565b5f610f47565b6105ac9150873d891161026157610252818361135a565b87513d5f823e3d90fd5b3461052a575f36600319011261052a577f00000000000000000000000000000000000000000000000000000000000000006001600160a01b03168152602090f35b600435906001600160a01b038216820361052a57565b67ffffffffffffffff811161134657604052565b634e487b7160e01b5f52604160045260245ffd5b90601f8019910116810190811067ffffffffffffffff82111761134657604052565b9081602091031261052a5751801515810361052a5790565b1561139b57565b60405162461bcd60e51b815260206004820152602360248201527f4f72626974525741506f6f6c3a2075736572206e6f74204b59432076657269666044820152621a595960ea1b6064820152608490fd5b9081602091031261052a57516001600160a01b038116810361052a5790565b1561141257565b60405162461bcd60e51b815260206004820152601b60248201527f4f72626974525741506f6f6c3a206e6f74204e4654206f776e657200000000006044820152606490fd5b1561145e57565b606460405162461bcd60e51b815260206004820152602060248201527f4f72626974525741506f6f6c3a20616d6f756e74206d757374206265203e20306044820152fd5b80548210156114b7575f5260205f2001905f90565b634e487b7160e01b5f52603260045260245ffd5b90815491680100000000000000008310156113465782610aa69160016114f3950181556114a2565b565b156114fc57565b60405162461bcd60e51b8152602060048201526024808201527f4f72626974525741506f6f6c3a20696e73756666696369656e74206c697175696044820152636469747960e01b6064820152608490fd5b9190820180921161155a57565b634e487b7160e01b5f52601160045260245ffd5b1561157557565b60405162461bcd60e51b815260206004820152601e60248201527f4f72626974525741506f6f6c3a206e6f206465627420746f20726570617900006044820152606490fd5b9190820391821161155a57565b6001600160a01b039081165f90815260208181526040808320805493948594937f0000000000000000000000000000000000000000000000000000000000000000909116915b84861061161d5750505050505090565b90919293949561162d87836114a2565b90548651916307fa648b60e11b835260031b1c60048201528381602481885afa9081156116a2575f91611674575b506116689060019261154d565b9601949392919061160d565b90508381813d831161169b575b61168b818361135a565b8101031261052a5751600161165b565b503d611681565b86513d5f823e3d90fd5b5f805160206116dc83398151915260028154146116c95760029055565b604051633ee5aeb560e01b8152600490fdfe9b779b17422d0df92223018b32b4d1fa46e071723d6817e2486d003becc55f00a2646970667358221220d6d62e9f8cc596ac048bb7ee4983c09c3ea8ed057f63afa1f443263625455c9464736f6c63430008180033","linkReferences":{}},"methodIdentifiers":{"BASIS_POINTS()":"e1f1c4a7","LTV_RATIO()":"5696b189","borrow(uint256)":"c5ebeaec","depositAndBorrow(uint256,uint256,bool)":"14211c53","depositCollateral(uint256)":"bad4a01f","enableAutoRepay()":"e5d61e93","getUserCollateralNFTs(address)":"4e63d95c","getUserCollateralValue(address)":"75417da6","getUserDebt(address)":"e65896c9","identityRegistry()":"134e18f4","isAutoRepayEnabled(address)":"302916de","isNFTLocked(uint256)":"1a5a3b86","nftDepositor(uint256)":"fac8440e","repay(uint256)":"371fd8e6","repayOnBehalfOf(address,uint256)":"ede66a45","rwaIncomeNFT()":"793aae0d","usdc()":"3e413bee","userPositions(address)":"613cf420","withdrawCollateral(uint256)":"6112fe2e"},"id":3}