{"abi":[{"type":"constructor","inputs":[],"stateMutability":"nonpayable"},{"type":"function","name":"addSPVApprover","inputs":[{"name":"approver","type":"address","internalType":"address"}],"outputs":[],"stateMutability":"nonpayable"},{"type":"function","name":"approve","inputs":[{"name":"to","type":"address","internalType":"address"},{"name":"tokenId","type":"uint256","internalType":"uint256"}],"outputs":[],"stateMutability":"nonpayable"},{"type":"function","name":"assetMetadata","inputs":[{"name":"","type":"uint256","internalType":"uint256"}],"outputs":[{"name":"assetName","type":"string","internalType":"string"},{"name":"assetType","type":"uint8","internalType":"enum RWAIncomeNFT.AssetType"},{"name":"monthlyIncome","type":"uint256","internalType":"uint256"},{"name":"duration","type":"uint256","internalType":"uint256"},{"name":"totalValue","type":"uint256","internalType":"uint256"},{"name":"mintedAt","type":"uint256","internalType":"uint256"},{"name":"spvApproved","type":"bool","internalType":"bool"}],"stateMutability":"view"},{"type":"function","name":"balanceOf","inputs":[{"name":"owner","type":"address","internalType":"address"}],"outputs":[{"name":"","type":"uint256","internalType":"uint256"}],"stateMutability":"view"},{"type":"function","name":"getApproved","inputs":[{"name":"tokenId","type":"uint256","internalType":"uint256"}],"outputs":[{"name":"","type":"address","internalType":"address"}],"stateMutability":"view"},{"type":"function","name":"getMetadata","inputs":[{"name":"tokenId","type":"uint256","internalType":"uint256"}],"outputs":[{"name":"","type":"tuple","internalType":"struct RWAIncomeNFT.AssetMetadata","components":[{"name":"assetName","type":"string","internalType":"string"},{"name":"assetType","type":"uint8","internalType":"enum RWAIncomeNFT.AssetType"},{"name":"monthlyIncome","type":"uint256","internalType":"uint256"},{"name":"duration","type":"uint256","internalType":"uint256"},{"name":"totalValue","type":"uint256","internalType":"uint256"},{"name":"mintedAt","type":"uint256","internalType":"uint256"},{"name":"spvApproved","type":"bool","internalType":"bool"}]}],"stateMutability":"view"},{"type":"function","name":"getValue","inputs":[{"name":"tokenId","type":"uint256","internalType":"uint256"}],"outputs":[{"name":"","type":"uint256","internalType":"uint256"}],"stateMutability":"view"},{"type":"function","name":"isApprovedForAll","inputs":[{"name":"owner","type":"address","internalType":"address"},{"name":"operator","type":"address","internalType":"address"}],"outputs":[{"name":"","type":"bool","internalType":"bool"}],"stateMutability":"view"},{"type":"function","name":"isSPVApprover","inputs":[{"name":"","type":"address","internalType":"address"}],"outputs":[{"name":"","type":"bool","internalType":"bool"}],"stateMutability":"view"},{"type":"function","name":"mint","inputs":[{"name":"to","type":"address","internalType":"address"},{"name":"assetName","type":"string","internalType":"string"},{"name":"assetType","type":"uint8","internalType":"enum RWAIncomeNFT.AssetType"},{"name":"monthlyIncome","type":"uint256","internalType":"uint256"},{"name":"duration","type":"uint256","internalType":"uint256"},{"name":"totalValue","type":"uint256","internalType":"uint256"}],"outputs":[{"name":"","type":"uint256","internalType":"uint256"}],"stateMutability":"nonpayable"},{"type":"function","name":"name","inputs":[],"outputs":[{"name":"","type":"string","internalType":"string"}],"stateMutability":"view"},{"type":"function","name":"owner","inputs":[],"outputs":[{"name":"","type":"address","internalType":"address"}],"stateMutability":"view"},{"type":"function","name":"ownerOf","inputs":[{"name":"tokenId","type":"uint256","internalType":"uint256"}],"outputs":[{"name":"","type":"address","internalType":"address"}],"stateMutability":"view"},{"type":"function","name":"removeSPVApprover","inputs":[{"name":"approver","type":"address","internalType":"address"}],"outputs":[],"stateMutability":"nonpayable"},{"type":"function","name":"renounceOwnership","inputs":[],"outputs":[],"stateMutability":"nonpayable"},{"type":"function","name":"safeTransferFrom","inputs":[{"name":"from","type":"address","internalType":"address"},{"name":"to","type":"address","internalType":"address"},{"name":"tokenId","type":"uint256","internalType":"uint256"}],"outputs":[],"stateMutability":"nonpayable"},{"type":"function","name":"safeTransferFrom","inputs":[{"name":"from","type":"address","internalType":"address"},{"name":"to","type":"address","internalType":"address"},{"name":"tokenId","type":"uint256","internalType":"uint256"},{"name":"data","type":"bytes","internalType":"bytes"}],"outputs":[],"stateMutability":"nonpayable"},{"type":"function","name":"setApprovalForAll","inputs":[{"name":"operator","type":"address","internalType":"address"},{"name":"approved","type":"bool","internalType":"bool"}],"outputs":[],"stateMutability":"nonpayable"},{"type":"function","name":"supportsInterface","inputs":[{"name":"interfaceId","type":"bytes4","internalType":"bytes4"}],"outputs":[{"name":"","type":"bool","internalType":"bool"}],"stateMutability":"view"},{"type":"function","name":"symbol","inputs":[],"outputs":[{"name":"","type":"string","internalType":"string"}],"stateMutability":"view"},{"type":"function","name":"tokenByIndex","inputs":[{"name":"index","type":"uint256","internalType":"uint256"}],"outputs":[{"name":"","type":"uint256","internalType":"uint256"}],"stateMutability":"view"},{"type":"function","name":"tokenOfOwnerByIndex","inputs":[{"name":"owner","type":"address","internalType":"address"},{"name":"index","type":"uint256","internalType":"uint256"}],"outputs":[{"name":"","type":"uint256","internalType":"uint256"}],"stateMutability":"view"},{"type":"function","name":"tokenURI","inputs":[{"name":"tokenId","type":"uint256","internalType":"uint256"}],"outputs":[{"name":"","type":"string","internalType":"string"}],"stateMutability":"view"},{"type":"function","name":"tokensOfOwner","inputs":[{"name":"owner","type":"address","internalType":"address"}],"outputs":[{"name":"","type":"uint256[]","internalType":"uint256[]"}],"stateMutability":"view"},{"type":"function","name":"totalSupply","inputs":[],"outputs":[{"name":"","type":"uint256","internalType":"uint256"}],"stateMutability":"view"},{"type":"function","name":"transferFrom","inputs":[{"name":"from","type":"address","internalType":"address"},{"name":"to","type":"address","internalType":"address"},{"name":"tokenId","type":"uint256","internalType":"uint256"}],"outputs":[],"stateMutability":"nonpayable"},{"type":"function","name":"transferOwnership","inputs":[{"name":"newOwner","type":"address","internalType":"address"}],"outputs":[],"stateMutability":"nonpayable"},{"type":"event","name":"Approval","inputs":[{"name":"owner","type":"address","indexed":true,"internalType":"address"},{"name":"approved","type":"address","indexed":true,"internalType":"address"},{"name":"tokenId","type":"uint256","indexed":true,"internalType":"uint256"}],"anonymous":false},{"type":"event","name":"ApprovalForAll","inputs":[{"name":"owner","type":"address","indexed":true,"internalType":"address"},{"name":"operator","type":"address","indexed":true,"internalType":"address"},{"name":"approved","type":"bool","indexed":false,"internalType":"bool"}],"anonymous":false},{"type":"event","name":"AssetApproved","inputs":[{"name":"tokenId","type":"uint256","indexed":true,"internalType":"uint256"},{"name":"approver","type":"address","indexed":true,"internalType":"address"}],"anonymous":false},{"type":"event","name":"AssetMinted","inputs":[{"name":"tokenId","type":"uint256","indexed":true,"internalType":"uint256"},{"name":"owner","type":"address","indexed":true,"internalType":"address"},{"name":"assetName","type":"string","indexed":false,"internalType":"string"},{"name":"assetType","type":"uint8","indexed":false,"internalType":"enum RWAIncomeNFT.AssetType"},{"name":"totalValue","type":"uint256","indexed":false,"internalType":"uint256"}],"anonymous":false},{"type":"event","name":"OwnershipTransferred","inputs":[{"name":"previousOwner","type":"address","indexed":true,"internalType":"address"},{"name":"newOwner","type":"address","indexed":true,"internalType":"address"}],"anonymous":false},{"type":"event","name":"SPVApproverAdded","inputs":[{"name":"approver","type":"address","indexed":true,"internalType":"address"}],"anonymous":false},{"type":"event","name":"SPVApproverRemoved","inputs":[{"name":"approver","type":"address","indexed":true,"internalType":"address"}],"anonymous":false},{"type":"event","name":"Transfer","inputs":[{"name":"from","type":"address","indexed":true,"internalType":"address"},{"name":"to","type":"address","indexed":true,"internalType":"address"},{"name":"tokenId","type":"uint256","indexed":true,"internalType":"uint256"}],"anonymous":false},{"type":"error","name":"ERC721EnumerableForbiddenBatchMint","inputs":[]},{"type":"error","name":"ERC721IncorrectOwner","inputs":[{"name":"sender","type":"address","internalType":"address"},{"name":"tokenId","type":"uint256","internalType":"uint256"},{"name":"owner","type":"address","internalType":"address"}]},{"type":"error","name":"ERC721InsufficientApproval","inputs":[{"name":"operator","type":"address","internalType":"address"},{"name":"tokenId","type":"uint256","internalType":"uint256"}]},{"type":"error","name":"ERC721InvalidApprover","inputs":[{"name":"approver","type":"address","internalType":"address"}]},{"type":"error","name":"ERC721InvalidOperator","inputs":[{"name":"operator","type":"address","internalType":"address"}]},{"type":"error","name":"ERC721InvalidOwner","inputs":[{"name":"owner","type":"address","internalType":"address"}]},{"type":"error","name":"ERC721InvalidReceiver","inputs":[{"name":"receiver","type":"address","internalType":"address"}]},{"type":"error","name":"ERC721InvalidSender","inputs":[{"name":"sender","type":"address","internalType":"address"}]},{"type":"error","name":"ERC721NonexistentToken","inputs":[{"name":"tokenId","type":"uint256","internalType":"uint256"}]},{"type":"error","name":"ERC721OutOfBoundsIndex","inputs":[{"name":"owner","type":"address","internalType":"address"},{"name":"index","type":"uint256","internalType":"uint256"}]},{"type":"error","name":"OwnableInvalidOwner","inputs":[{"name":"owner","type":"address","internalType":"address"}]},{"type":"error","name":"OwnableUnauthorizedAccount","inputs":[{"name":"account","type":"address","internalType":"address"}]}],"bytecode":{"object":"0x60803462000369576040906001600160401b03908083018281118282101762000287578352601481526020927f4f726269742052574120496e636f6d65204e465400000000000000000000000084830152805192818401848110828211176200028757825260058452646f7252574160d81b8585015282519381851162000287575f54946001948587811c971680156200035e575b8888101462000268578190601f978881116200030b575b508890888311600114620002a7575f926200029b575b50505f19600383901b1c191690851b175f555b8051918211620002875783548481811c911680156200027c575b87821014620002685785811162000220575b5085948211600114620001bd5793819293945f92620001b1575b50505f19600383901b1c191690831b1782555b33156200019b57600a8054336001600160a01b031982168117909255825194600d9290916001600160a01b03167f8be0079c531659141344cd1fd0a4f28419497f9722a3daafe3b4186f6b6457e05f80a3335f52525f209060ff19825416179055611ab090816200036e8239f35b51631e4fbdf760e01b81525f6004820152602490fd5b015190505f806200011a565b601f19821694845f52865f20915f5b888882106200020b57505083869796959610620001f2575b505050811b0182556200012d565b01515f1960f88460031b161c191690555f8080620001e4565b828401518555938701939283019201620001cc565b845f52865f208680850160051c8201928986106200025e575b0160051c019085905b8281106200025257505062000100565b5f815501859062000242565b9250819262000239565b634e487b7160e01b5f52602260045260245ffd5b90607f1690620000ee565b634e487b7160e01b5f52604160045260245ffd5b015190505f80620000c1565b90879350601f198316915f80528a5f20925f5b8c828210620002f45750508411620002db575b505050811b015f55620000d4565b01515f1960f88460031b161c191690555f8080620002cd565b8385015186558b97909501949384019301620002ba565b9091505f8052885f208880850160051c8201928b861062000354575b918991869594930160051c01915b82811062000345575050620000ab565b5f815585945089910162000335565b9250819262000327565b96607f169662000094565b5f80fdfe6080806040526004361015610012575f80fd5b5f3560e01c90816301ffc9a71461126f5750806306fdde03146111c8578063081812fc1461118c578063095ea7b3146110ab5780630ff4c9161461105c57806318160ddd1461103f57806323b872dd146110285780632f745c591461100157806340ea36ef14610fc457806342842e0e14610f975780634f6ccce714610f42578063504e35d314610ead5780636352211e14610e7d57806370a0823114610e52578063715018a614610df75780637ec3f50614610d8f57806383888cac14610d2a5780638462151c14610c525780638da5cb5b14610c2a57806395d89b4114610b4c578063a22cb46514610aa2578063a574cea414610970578063a5fd2ab5146102e5578063b88d4fde14610277578063c87b56dd14610222578063e985e9c5146101d05763f2fde38b14610145575f80fd5b346101cc5760203660031901126101cc5761015e611332565b610166611904565b6001600160a01b039081169081156101b457600a54826001600160601b0360a01b821617600a55167f8be0079c531659141344cd1fd0a4f28419497f9722a3daafe3b4186f6b6457e05f80a3005b604051631e4fbdf760e01b81525f6004820152602490fd5b5f80fd5b346101cc5760403660031901126101cc576101e9611332565b6101f1611348565b9060018060a01b038091165f52600560205260405f2091165f52602052602060ff60405f2054166040519015158152f35b346101cc5760203660031901126101cc5761023e6004356118ca565b505f60405161024c816113e7565b5261027360405161025c816113e7565b5f81526040519182916020835260208301906112f4565b0390f35b346101cc5760803660031901126101cc57610290611332565b610298611348565b906044356064359267ffffffffffffffff84116101cc57366023850112156101cc576102d16102e39436906024816004013591016114f0565b926102dd83838361157d565b33611930565b005b346101cc5760c03660031901126101cc576102fe611332565b67ffffffffffffffff6024358181116101cc57366023820112156101cc576103309036906024816004013591016114f0565b600360443510156101cc57335f52600d60205260ff60405f205416801561095c575b1561091757600b54915f1983146107565760018301600b5560405190610377826113cb565b828252610389604435602084016118be565b6064356040830152608435606083015260a43560808301524260a0830152600160c0830152835f52600c60205260405f20908251805191821161076a5781906103d28454611393565b601f81116108ca575b50602090601f8311600114610862575f92610857575b50508160011b915f199060031b1c19161781555b60018101602083015160038110156108435761046c9360069260c09260ff8019835416911617905560408101516002850155606081015160038501556080810151600485015560a081015160058501550151151591019060ff801983541691151516179055565b604051610478816113e7565b5f81526001600160a01b038481169490851561082b57845f52600260205260405f20541680159086821592836107f8575b815f52600360205260405f2060018154019055875f52600260205260405f20826001600160601b0360a01b8254161790558782847fddf252ad1be2c89b69c2b068fc378daa952ba7f163c4a11628f55a4df523b3ef5f80a41561077e575060085490865f5260096020528160405f2055600160401b82101561076a576105528761053a8460018c960160085561183b565b90919082549060031b91821b915f19901b1916179055565b03610718575b610700573b6105e7575b5091817f5d21a8b84b62304c74cc6b6a6271e376b8b888d2fb4637dbe253319c96bb4b796105a06020956040519182916060835260608301906112f4565b6105ae8883016044356114c7565b60a43560408301520390a36040519033817f4a184b517d677abb35488a7ffba6353e76337257a70f5b190375e62d0a5b3a365f80a38152f35b60405160208180610620630a85bd0160e11b958683523360048401525f60248401528860448401526080606484015260848301906112f4565b03815f895af15f91816106bb575b5061068d57843d15610685573d90610645826114d4565b916106536040519384611403565b82523d5f602084013e5b8151918261067e57604051633250574960e11b815260048101839052602490fd5b6020915001fd5b60609061065d565b6001600160e01b031916036106a25781610562565b604051633250574960e11b815260048101849052602490fd5b9091506020813d6020116106f8575b816106d760209383611403565b810103126101cc57516001600160e01b0319811681036101cc57908661062e565b3d91506106ca565b6040516339e3563760e11b81525f6004820152602490fd5b61072182611870565b5f19810190811161075657865f52600660205260405f20815f526020528560405f2055855f52600760205260405f2055610558565b634e487b7160e01b5f52601160045260245ffd5b634e487b7160e01b5f52604160045260245ffd5b908082146105525761078f81611870565b875f52600760205260405f205490825f52600660205260405f20918181036107d1575b50885f5260076020525f60408120555f526020525f6040812055610552565b815f528260205260405f2054815f528060405f20555f52600760205260405f20558a6107b2565b5f88815260046020526040902080546001600160a01b0319169055825f52600360205260405f205f1981540190556104a9565b604051633250574960e11b81525f6004820152602490fd5b634e487b7160e01b5f52602160045260245ffd5b0151905087806103f1565b9250835f5260205f20905f935b601f19841685106108af576001945083601f19811610610897575b505050811b018155610405565b01515f1960f88460031b161c1916905587808061088a565b8181015183556020948501946001909301929091019061086f565b909150835f5260205f20601f840160051c810160208510610910575b90849392915b601f830160051c820181106109025750506103db565b5f81558594506001016108ec565b50806108e6565b60405162461bcd60e51b815260206004820152601e60248201527f525741496e636f6d654e46543a206e6f742053505620617070726f76657200006044820152606490fd5b50600a546001600160a01b03163314610352565b346101cc576020806003193601126101cc5760e0906004355f60c0604051610997816113cb565b6060815282858201528260408201528260608201528260808201528260a08201520152805f52600282526109d860018060a01b0360405f2054161515611526565b5f52600c815260405f20604051916109ef836113cb565b6109f882611425565b835260ff60018301541691610a1082850193846118be565b60028101546040850190815260038201546060860190815260048301549160808701928352610a7e610a7260ff600660058801549760a08c019889520154169660c08a0197151588526040519a8b9a828c5251918b01526101008a01906112f4565b965160408901906114c7565b5160608701525160808601525160a08501525160c084015251151560e08301520390f35b346101cc5760403660031901126101cc57610abb611332565b60243590811515908183036101cc576001600160a01b0316918215610b3357610b0590335f52600560205260405f20845f5260205260405f209060ff801983541691151516179055565b6040519081527f17307eab39ab6107e8899845ad3d59bd9653f200f220920489ca2b5937696c3160203392a3005b604051630b61174360e31b815260048101849052602490fd5b346101cc575f3660031901126101cc576040515f60018260015492610b7084611393565b92838352602094856001821691825f14610c0a575050600114610baf575b50610b9b92500383611403565b6102736040519282849384528301906112f4565b84915060015f527fb10e2d527612073b26eecdfd717e6a320cf44b4afac2b0732d9fcbe2b7fa0cf6905f915b858310610bf2575050610b9b935082010185610b8e565b80548389018501528794508693909201918101610bdb565b60ff191685820152610b9b95151560051b8501019250879150610b8e9050565b346101cc575f3660031901126101cc57600a546040516001600160a01b039091168152602090f35b346101cc576020806003193601126101cc57610c6c611332565b610c7581611870565b610c7e816118a6565b90610c8c6040519283611403565b808252610c98816118a6565b8285019390601f19013685375f5b828110610cf0575050509060405192839281840190828552518091526040840192915f5b828110610cd957505050500390f35b835185528695509381019392810192600101610cca565b610cfa81836117df565b908451811015610d1657600191878260051b8701015201610ca6565b634e487b7160e01b5f52603260045260245ffd5b346101cc5760203660031901126101cc57610d43611332565b610d4b611904565b6001600160a01b03165f818152600d60205260408120805460ff191690557fe080b1825e09cbe2ca3b0025e0455ecdbeeb23283c589b298a643ae1b429ad189080a2005b346101cc5760203660031901126101cc57610da8611332565b610db0611904565b6001600160a01b03165f818152600d60205260408120805460ff191660011790557fcb517fcc533600035430335be07b5bea5c4f138ec1104b30921ca78cc9fc59d09080a2005b346101cc575f3660031901126101cc57610e0f611904565b600a80546001600160a01b031981169091555f906001600160a01b03167f8be0079c531659141344cd1fd0a4f28419497f9722a3daafe3b4186f6b6457e08280a3005b346101cc5760203660031901126101cc576020610e75610e70611332565b611870565b604051908152f35b346101cc5760203660031901126101cc576020610e9b6004356118ca565b6040516001600160a01b039091168152f35b346101cc5760203660031901126101cc576004355f52600c602052610f1860405f20610ed881611425565b9060ff60018201541690600281015490600381015460048201549060ff600660058501549401541693610f2360405198899860e08a5260e08a01906112f4565b9660208901906114c7565b60408701526060860152608085015260a0840152151560c08301520390f35b346101cc5760203660031901126101cc57600435600854811015610f7957610f6b60209161183b565b90546040519160031b1c8152f35b6044906040519063295f44f760e21b82525f60048301526024820152fd5b346101cc576102e3610fa83661135e565b9060405192610fb6846113e7565b5f84526102dd83838361157d565b346101cc5760203660031901126101cc576001600160a01b03610fe5611332565b165f52600d602052602060ff60405f2054166040519015158152f35b346101cc5760403660031901126101cc576020610e7561101f611332565b602435906117df565b346101cc576102e36110393661135e565b9161157d565b346101cc575f3660031901126101cc576020600854604051908152f35b346101cc5760203660031901126101cc576004355f81815260026020526040902054611092906001600160a01b03161515611526565b5f52600c6020526020600460405f200154604051908152f35b346101cc5760403660031901126101cc576110c4611332565b6024356110d0816118ca565b33151580611179575b80611150575b611138576001600160a01b039283169282918491167f8c5be1e5ebec7d5bd14f71427d1e84f3dd0314c0f7b2291e5b200ac8c7c3b9255f80a45f90815260046020526040902080546001600160a01b0319169091179055005b60405163a9fbf51f60e01b8152336004820152602490fd5b5060018060a01b0381165f52600560205260405f20335f5260205260ff60405f205416156110df565b506001600160a01b0381163314156110d9565b346101cc5760203660031901126101cc576004356111a9816118ca565b505f526004602052602060018060a01b0360405f205416604051908152f35b346101cc575f3660031901126101cc576040515f805490826111e983611393565b91828252602093600190856001821691825f14610c0a5750506001146112165750610b9b92500383611403565b5f808052859250907f290decd9548b62a8d60345a988386fc84ba6bc95484008f6362f93160ef3e5635b858310611257575050610b9b935082010185610b8e565b80548389018501528794508693909201918101611240565b346101cc5760203660031901126101cc576004359063ffffffff60e01b82168092036101cc5760209163780e9d6360e01b81149081156112b1575b5015158152f35b6380ac58cd60e01b8114915081156112e3575b81156112d2575b50836112aa565b6301ffc9a760e01b149050836112cb565b635b5e139f60e01b811491506112c4565b91908251928382525f5b84811061131e575050825f602080949584010152601f8019910116010190565b6020818301810151848301820152016112fe565b600435906001600160a01b03821682036101cc57565b602435906001600160a01b03821682036101cc57565b60609060031901126101cc576001600160a01b039060043582811681036101cc579160243590811681036101cc579060443590565b90600182811c921680156113c1575b60208310146113ad57565b634e487b7160e01b5f52602260045260245ffd5b91607f16916113a2565b60e0810190811067ffffffffffffffff82111761076a57604052565b6020810190811067ffffffffffffffff82111761076a57604052565b90601f8019910116810190811067ffffffffffffffff82111761076a57604052565b9060405191825f825461143781611393565b908184526020946001916001811690815f146114a55750600114611467575b50505061146592500383611403565b565b5f90815285812095935091905b81831061148d57505061146593508201015f8080611456565b85548884018501529485019487945091830191611474565b9250505061146594925060ff191682840152151560051b8201015f8080611456565b9060038210156108435752565b67ffffffffffffffff811161076a57601f01601f191660200190565b9291926114fc826114d4565b9161150a6040519384611403565b8294818452818301116101cc578281602093845f960137010152565b1561152d57565b60405162461bcd60e51b815260206004820152602260248201527f525741496e636f6d654e46543a20746f6b656e20646f6573206e6f74206578696044820152611cdd60f21b6064820152608490fd5b6001600160a01b038281169391841561082b57825f5260206002815260409583875f2054169533151580611751575b5086158015611720575b825f5260038452885f2060018154019055865f5260028452885f20836001600160601b0360a01b8254161790558683897fddf252ad1be2c89b69c2b068fc378daa952ba7f163c4a11628f55a4df523b3ef5f80a4156116b457600854865f526009845280895f2055600160401b81101561076a578661053a82600161163e940160085561183b565b818703611679575b50505016928383036116585750505050565b6064945051926364283d7b60e01b8452600484015260248301526044820152fd5b61168290611870565b5f19810192908311610756576007915f5260068152875f20835f52815285885f2055855f5252855f20555f8080611646565b86821461163e576116c487611870565b865f5260078452885f205490885f5260068552895f20918181036116fe575b50875f52600785525f8a8120555f5283525f8881205561163e565b815f528286528a5f2054815f52808c5f20555f52600786528a5f20555f6116e3565b5f87815260046020526040812080546001600160a01b03191690558881526003855289902080545f190190556115b6565b8061179e575b15611762575f6115ac565b87868861177f576024915190637e27328960e01b82526004820152fd5b905163177e802f60e01b81523360048201526024810191909152604490fd5b5033871480156117c3575b806117575750855f52600483523385895f20541614611757565b50865f5260058352875f20335f52835260ff885f2054166117a9565b6117e881611870565b8210156118105760018060a01b03165f52600660205260405f20905f5260205260405f205490565b60405163295f44f760e21b81526001600160a01b039190911660048201526024810191909152604490fd5b600854811015610d165760085f527ff3f7a9fe364faab93b216da50a3214154f22a0a2b415b23a84c8169e8b636ee301905f90565b6001600160a01b0316801561188e575f52600360205260405f205490565b6040516322718ad960e21b81525f6004820152602490fd5b67ffffffffffffffff811161076a5760051b60200190565b60038210156108435752565b5f818152600260205260409020546001600160a01b03169081156118ec575090565b60249060405190637e27328960e01b82526004820152fd5b600a546001600160a01b0316330361191857565b60405163118cdaa760e01b8152336004820152602490fd5b9293909193843b611943575b5050505050565b604051630a85bd0160e11b8082526001600160a01b0395861660048301529385166024820152604481019190915260806064820152602095949093169392908590829081906119969060848301906112f4565b03815f885af15f9181611a3a575b50611a03575050503d5f146119fb573d916119be836114d4565b926119cc6040519485611403565b83523d5f8285013e5b825192836119f657604051633250574960e11b815260048101849052602490fd5b019050fd5b6060916119d5565b9193506001600160e01b031990911603611a2257505f8080808061193c565b60249060405190633250574960e11b82526004820152fd5b9091508581813d8311611a73575b611a528183611403565b810103126101cc57516001600160e01b0319811681036101cc57905f6119a4565b503d611a4856fea2646970667358221220436c955aa8b9b8384e592540d8dfc42134ad921692a9c8daa8e12f55705b087064736f6c63430008180033","linkReferences":{}},"methodIdentifiers":{"addSPVApprover(address)":"7ec3f506","approve(address,uint256)":"095ea7b3","assetMetadata(uint256)":"504e35d3","balanceOf(address)":"70a08231","getApproved(uint256)":"081812fc","getMetadata(uint256)":"a574cea4","getValue(uint256)":"0ff4c916","isApprovedForAll(address,address)":"e985e9c5","isSPVApprover(address)":"40ea36ef","mint(address,string,uint8,uint256,uint256,uint256)":"a5fd2ab5","name()":"06fdde03","owner()":"8da5cb5b","ownerOf(uint256)":"6352211e","removeSPVApprover(address)":"83888cac","renounceOwnership()":"715018a6","safeTransferFrom(address,address,uint256)":"42842e0e","safeTransferFrom(address,address,uint256,bytes)":"b88d4fde","setApprovalForAll(address,bool)":"a22cb465","supportsInterface(bytes4)":"01ffc9a7","symbol()":"95d89b41","tokenByIndex(uint256)":"4f6ccce7","tokenOfOwnerByIndex(address,uint256)":"2f745c59","tokenURI(uint256)":"c87b56dd","tokensOfOwner(address)":"8462151c","totalSupply()":"18160ddd","transferFrom(address,address,uint256)":"23b872dd","transferOwnership(address)":"f2fde38b"},"id":4}