{"abi":[{"type":"constructor","inputs":[{"name":"asset_","type":"address","internalType":"contract IERC20"},{"name":"_identityRegistry","type":"address","internalType":"address"},{"name":"name_","type":"string","internalType":"string"},{"name":"symbol_","type":"string","internalType":"string"}],"stateMutability":"nonpayable"},{"type":"function","name":"BASIS_POINTS","inputs":[],"outputs":[{"name":"","type":"uint256","internalType":"uint256"}],"stateMutability":"view"},{"type":"function","name":"TARGET_APY","inputs":[],"outputs":[{"name":"","type":"uint256","internalType":"uint256"}],"stateMutability":"view"},{"type":"function","name":"allowance","inputs":[{"name":"owner","type":"address","internalType":"address"},{"name":"spender","type":"address","internalType":"address"}],"outputs":[{"name":"","type":"uint256","internalType":"uint256"}],"stateMutability":"view"},{"type":"function","name":"approve","inputs":[{"name":"spender","type":"address","internalType":"address"},{"name":"value","type":"uint256","internalType":"uint256"}],"outputs":[{"name":"","type":"bool","internalType":"bool"}],"stateMutability":"nonpayable"},{"type":"function","name":"asset","inputs":[],"outputs":[{"name":"","type":"address","internalType":"address"}],"stateMutability":"view"},{"type":"function","name":"balanceOf","inputs":[{"name":"account","type":"address","internalType":"address"}],"outputs":[{"name":"","type":"uint256","internalType":"uint256"}],"stateMutability":"view"},{"type":"function","name":"convertToAssets","inputs":[{"name":"shares","type":"uint256","internalType":"uint256"}],"outputs":[{"name":"","type":"uint256","internalType":"uint256"}],"stateMutability":"view"},{"type":"function","name":"convertToShares","inputs":[{"name":"assets","type":"uint256","internalType":"uint256"}],"outputs":[{"name":"","type":"uint256","internalType":"uint256"}],"stateMutability":"view"},{"type":"function","name":"decimals","inputs":[],"outputs":[{"name":"","type":"uint8","internalType":"uint8"}],"stateMutability":"view"},{"type":"function","name":"deposit","inputs":[{"name":"assets","type":"uint256","internalType":"uint256"},{"name":"receiver","type":"address","internalType":"address"}],"outputs":[{"name":"","type":"uint256","internalType":"uint256"}],"stateMutability":"nonpayable"},{"type":"function","name":"distributeYield","inputs":[{"name":"amount","type":"uint256","internalType":"uint256"}],"outputs":[],"stateMutability":"nonpayable"},{"type":"function","name":"emergencyWithdraw","inputs":[{"name":"amount","type":"uint256","internalType":"uint256"}],"outputs":[],"stateMutability":"nonpayable"},{"type":"function","name":"getCurrentAPY","inputs":[],"outputs":[{"name":"","type":"uint256","internalType":"uint256"}],"stateMutability":"view"},{"type":"function","name":"identityRegistry","inputs":[],"outputs":[{"name":"","type":"address","internalType":"contract IdentityRegistry"}],"stateMutability":"view"},{"type":"function","name":"lastDistributionTime","inputs":[],"outputs":[{"name":"","type":"uint256","internalType":"uint256"}],"stateMutability":"view"},{"type":"function","name":"maxDeposit","inputs":[{"name":"","type":"address","internalType":"address"}],"outputs":[{"name":"","type":"uint256","internalType":"uint256"}],"stateMutability":"view"},{"type":"function","name":"maxMint","inputs":[{"name":"","type":"address","internalType":"address"}],"outputs":[{"name":"","type":"uint256","internalType":"uint256"}],"stateMutability":"view"},{"type":"function","name":"maxRedeem","inputs":[{"name":"owner","type":"address","internalType":"address"}],"outputs":[{"name":"","type":"uint256","internalType":"uint256"}],"stateMutability":"view"},{"type":"function","name":"maxWithdraw","inputs":[{"name":"owner","type":"address","internalType":"address"}],"outputs":[{"name":"","type":"uint256","internalType":"uint256"}],"stateMutability":"view"},{"type":"function","name":"mint","inputs":[{"name":"shares","type":"uint256","internalType":"uint256"},{"name":"receiver","type":"address","internalType":"address"}],"outputs":[{"name":"","type":"uint256","internalType":"uint256"}],"stateMutability":"nonpayable"},{"type":"function","name":"name","inputs":[],"outputs":[{"name":"","type":"string","internalType":"string"}],"stateMutability":"view"},{"type":"function","name":"owner","inputs":[],"outputs":[{"name":"","type":"address","internalType":"address"}],"stateMutability":"view"},{"type":"function","name":"previewDeposit","inputs":[{"name":"assets","type":"uint256","internalType":"uint256"}],"outputs":[{"name":"","type":"uint256","internalType":"uint256"}],"stateMutability":"view"},{"type":"function","name":"previewMint","inputs":[{"name":"shares","type":"uint256","internalType":"uint256"}],"outputs":[{"name":"","type":"uint256","internalType":"uint256"}],"stateMutability":"view"},{"type":"function","name":"previewRedeem","inputs":[{"name":"shares","type":"uint256","internalType":"uint256"}],"outputs":[{"name":"","type":"uint256","internalType":"uint256"}],"stateMutability":"view"},{"type":"function","name":"previewWithdraw","inputs":[{"name":"assets","type":"uint256","internalType":"uint256"}],"outputs":[{"name":"","type":"uint256","internalType":"uint256"}],"stateMutability":"view"},{"type":"function","name":"redeem","inputs":[{"name":"shares","type":"uint256","internalType":"uint256"},{"name":"receiver","type":"address","internalType":"address"},{"name":"owner","type":"address","internalType":"address"}],"outputs":[{"name":"","type":"uint256","internalType":"uint256"}],"stateMutability":"nonpayable"},{"type":"function","name":"renounceOwnership","inputs":[],"outputs":[],"stateMutability":"nonpayable"},{"type":"function","name":"symbol","inputs":[],"outputs":[{"name":"","type":"string","internalType":"string"}],"stateMutability":"view"},{"type":"function","name":"totalAssets","inputs":[],"outputs":[{"name":"","type":"uint256","internalType":"uint256"}],"stateMutability":"view"},{"type":"function","name":"totalSupply","inputs":[],"outputs":[{"name":"","type":"uint256","internalType":"uint256"}],"stateMutability":"view"},{"type":"function","name":"totalYieldDistributed","inputs":[],"outputs":[{"name":"","type":"uint256","internalType":"uint256"}],"stateMutability":"view"},{"type":"function","name":"transfer","inputs":[{"name":"to","type":"address","internalType":"address"},{"name":"value","type":"uint256","internalType":"uint256"}],"outputs":[{"name":"","type":"bool","internalType":"bool"}],"stateMutability":"nonpayable"},{"type":"function","name":"transferFrom","inputs":[{"name":"from","type":"address","internalType":"address"},{"name":"to","type":"address","internalType":"address"},{"name":"value","type":"uint256","internalType":"uint256"}],"outputs":[{"name":"","type":"bool","internalType":"bool"}],"stateMutability":"nonpayable"},{"type":"function","name":"transferOwnership","inputs":[{"name":"newOwner","type":"address","internalType":"address"}],"outputs":[],"stateMutability":"nonpayable"},{"type":"function","name":"withdraw","inputs":[{"name":"assets","type":"uint256","internalType":"uint256"},{"name":"receiver","type":"address","internalType":"address"},{"name":"owner","type":"address","internalType":"address"}],"outputs":[{"name":"","type":"uint256","internalType":"uint256"}],"stateMutability":"nonpayable"},{"type":"event","name":"Approval","inputs":[{"name":"owner","type":"address","indexed":true,"internalType":"address"},{"name":"spender","type":"address","indexed":true,"internalType":"address"},{"name":"value","type":"uint256","indexed":false,"internalType":"uint256"}],"anonymous":false},{"type":"event","name":"Deposit","inputs":[{"name":"sender","type":"address","indexed":true,"internalType":"address"},{"name":"owner","type":"address","indexed":true,"internalType":"address"},{"name":"assets","type":"uint256","indexed":false,"internalType":"uint256"},{"name":"shares","type":"uint256","indexed":false,"internalType":"uint256"}],"anonymous":false},{"type":"event","name":"KYCRequired","inputs":[{"name":"user","type":"address","indexed":true,"internalType":"address"}],"anonymous":false},{"type":"event","name":"OwnershipTransferred","inputs":[{"name":"previousOwner","type":"address","indexed":true,"internalType":"address"},{"name":"newOwner","type":"address","indexed":true,"internalType":"address"}],"anonymous":false},{"type":"event","name":"Transfer","inputs":[{"name":"from","type":"address","indexed":true,"internalType":"address"},{"name":"to","type":"address","indexed":true,"internalType":"address"},{"name":"value","type":"uint256","indexed":false,"internalType":"uint256"}],"anonymous":false},{"type":"event","name":"Withdraw","inputs":[{"name":"sender","type":"address","indexed":true,"internalType":"address"},{"name":"receiver","type":"address","indexed":true,"internalType":"address"},{"name":"owner","type":"address","indexed":true,"internalType":"address"},{"name":"assets","type":"uint256","indexed":false,"internalType":"uint256"},{"name":"shares","type":"uint256","indexed":false,"internalType":"uint256"}],"anonymous":false},{"type":"event","name":"YieldDistributed","inputs":[{"name":"amount","type":"uint256","indexed":false,"internalType":"uint256"},{"name":"newTotalAssets","type":"uint256","indexed":false,"internalType":"uint256"}],"anonymous":false},{"type":"error","name":"ERC20InsufficientAllowance","inputs":[{"name":"spender","type":"address","internalType":"address"},{"name":"allowance","type":"uint256","internalType":"uint256"},{"name":"needed","type":"uint256","internalType":"uint256"}]},{"type":"error","name":"ERC20InsufficientBalance","inputs":[{"name":"sender","type":"address","internalType":"address"},{"name":"balance","type":"uint256","internalType":"uint256"},{"name":"needed","type":"uint256","internalType":"uint256"}]},{"type":"error","name":"ERC20InvalidApprover","inputs":[{"name":"approver","type":"address","internalType":"address"}]},{"type":"error","name":"ERC20InvalidReceiver","inputs":[{"name":"receiver","type":"address","internalType":"address"}]},{"type":"error","name":"ERC20InvalidSender","inputs":[{"name":"sender","type":"address","internalType":"address"}]},{"type":"error","name":"ERC20InvalidSpender","inputs":[{"name":"spender","type":"address","internalType":"address"}]},{"type":"error","name":"ERC4626ExceededMaxDeposit","inputs":[{"name":"receiver","type":"address","internalType":"address"},{"name":"assets","type":"uint256","internalType":"uint256"},{"name":"max","type":"uint256","internalType":"uint256"}]},{"type":"error","name":"ERC4626ExceededMaxMint","inputs":[{"name":"receiver","type":"address","internalType":"address"},{"name":"shares","type":"uint256","internalType":"uint256"},{"name":"max","type":"uint256","internalType":"uint256"}]},{"type":"error","name":"ERC4626ExceededMaxRedeem","inputs":[{"name":"owner","type":"address","internalType":"address"},{"name":"shares","type":"uint256","internalType":"uint256"},{"name":"max","type":"uint256","internalType":"uint256"}]},{"type":"error","name":"ERC4626ExceededMaxWithdraw","inputs":[{"name":"owner","type":"address","internalType":"address"},{"name":"assets","type":"uint256","internalType":"uint256"},{"name":"max","type":"uint256","internalType":"uint256"}]},{"type":"error","name":"OwnableInvalidOwner","inputs":[{"name":"owner","type":"address","internalType":"address"}]},{"type":"error","name":"OwnableUnauthorizedAccount","inputs":[{"name":"account","type":"address","internalType":"address"}]},{"type":"error","name":"SafeERC20FailedOperation","inputs":[{"name":"token","type":"address","internalType":"address"}]}],"bytecode":{"object":"0x60e0604081815234620004885762001b0580380380916200002182866200048c565b8439820190608083830312620004885782516001600160a01b039390848116908181036200048857602080840151958787168097036200048857848601516001600160401b0395908681116200048857826200007f918301620004b0565b9160608201518781116200048857620000999201620004b0565b938151868111620003935760038054916001948584811c941680156200047d575b8785101462000469578190601f9485811162000416575b508790858311600114620003b3575f92620003a7575b50505f1982841b1c191690851b1781555b865191888311620003935760049788548681811c9116801562000388575b88821014620003755790818386959493116200031e575b5087918411600114620002b7575f93620002ab575b505082851b925f19911b1c19161785555b865163313ce56760e01b84820190815286825290968789019081118882101762000298578852865188925f92905afa5f5192868852816200028c575b508062000280575b15620002765760ff909116905b156200026d575b60a05260805233156200025957505060058054336001600160a01b0319821681179092559151939091167f8be0079c531659141344cd1fd0a4f28419497f9722a3daafe3b4186f6b6457e05f80a360c052426007556115e0908162000525823960805181818161037501528181610957015281816109c301528181610e26015281816112d101526113fc015260a05181610a08015260c051818181610752015281816108ae0152610abc0152f35b631e4fbdf760e01b82525f90820152602490fd5b506012620001ab565b50505f80620001a4565b5060ff82111562000197565b90503d10155f6200018f565b604187634e487b7160e01b5f525260245ffd5b015191505f8062000142565b9190869450601f198416928a5f52885f20935f5b8a828210620003075750508511620002ed575b50505050811b01855562000153565b01519060f8845f19921b161c191690555f808080620002de565b8385015187558a98909601959384019301620002cb565b9091929350895f52875f208380870160051c8201928a88106200036b575b9189918897969594930160051c01915b8281106200035c5750506200012d565b5f81558796508991016200034c565b925081926200033c565b60228a634e487b7160e01b5f525260245ffd5b90607f169062000116565b634e487b7160e01b5f52604160045260245ffd5b015190505f80620000e7565b90879350601f19831691855f52895f20925f5b8b828210620003ff5750508411620003e7575b505050811b018155620000f8565b01515f1983861b60f8161c191690555f8080620003d9565b8385015186558b97909501949384019301620003c6565b909150835f52875f208580850160051c8201928a86106200045f575b918991869594930160051c01915b82811062000450575050620000d1565b5f815585945089910162000440565b9250819262000432565b634e487b7160e01b5f52602260045260245ffd5b93607f1693620000ba565b5f80fd5b601f909101601f19168101906001600160401b038211908210176200039357604052565b919080601f84011215620004885782516001600160401b038111620003935760209060405192620004eb83601f19601f85011601856200048c565b81845282828701011162000488575f5b818110620005105750825f9394955001015290565b8581018301518482018401528201620004fb56fe604060808152600480361015610013575f80fd5b5f3560e01c806301e1d11414610ca857806306fdde0314610bb357806307a2d13a146109aa578063095ea7b314610b0a5780630a28a47714610aeb578063134e18f414610aa857806318160ddd14610a8a57806323b872dd14610a4e578063313ce567146109f257806338d52e0f146109af578063402d267d146104785780634cdad506146109aa5780635312ea8e146109095780636e553f651461087557806370a08231146102be578063715018a61461081a57806375b17350146107fc5780638da5cb5b146107d457806394bf804d1461071a57806395d89b4114610617578063962ca496146105fb57806397206bd5146105dd578063a9059cbb146105ad578063b3d7f6b91461058e578063b460af9414610507578063ba0876521461047d578063c63d75b614610478578063c6e6f59214610238578063c8cc5cd814610327578063ce96cb77146102ff578063d905777e146102be578063dd62ed3e14610275578063e1f1c4a714610259578063ed9f24481461023d578063ef8b30f7146102385763f2fde38b146101a7575f80fd5b34610234576020366003190112610234576101c0610d31565b906101c9611224565b6001600160a01b0391821692831561021e575050600554826bffffffffffffffffffffffff60a01b821617600555167f8be0079c531659141344cd1fd0a4f28419497f9722a3daafe3b4186f6b6457e05f80a3005b905f6024925191631e4fbdf760e01b8352820152fd5b5f80fd5b610db7565b8234610234575f36600319011261023457602090516102088152f35b8234610234575f36600319011261023457602090516127108152f35b8234610234578060031936011261023457602090610291610d31565b610299610d47565b9060018060a01b038091165f5260018452825f2091165f528252805f20549051908152f35b8234610234576020366003190112610234576020906102f86102de610d31565b6001600160a01b03165f9081526020819052604090205490565b9051908152f35b8234610234576020366003190112610234576020906102f86103226102de610d31565b610ffc565b5090346102345760208060031936011261023457823590610346611224565b811561042c5782516323b872dd60e01b815233948101949094523060248501526044840182905280846064815f7f00000000000000000000000000000000000000000000000000000000000000006001600160a01b03165af1938415610422577ffe4996cd48c364c468cee70dd6b9061874ff01b05c5ea49311cbcabd9b9cb615946103f5575b506103da82600654610fc4565b600655426007556103e9610e0b565b908351928352820152a1005b61041490823d841161041b575b61040c8183610dd5565b810190610e9b565b505f6103cd565b503d610402565b83513d5f823e3d90fd5b8360849184519162461bcd60e51b8352820152602160248201527f53656e696f725472616e6368653a20616d6f756e74206d757374206265203e206044820152600360fc1b6064820152fd5b610d5d565b5090346102345761048d36610d82565b9291936104aa8460018060a01b03165f525f60205260405f205490565b8086116104d2575050836104cc916104c3602096610ffc565b94859133611250565b51908152f35b9251632e52afbb60e21b81526001600160a01b0390941690840190815260208101949094525060408301529081906060010390fd5b5090346102345761051736610d82565b9291936105376103228560018060a01b03165f525f60205260405f205490565b8086116105595750506104cc9084610550602096611027565b94859233611250565b9251633fa733bb60e21b81526001600160a01b0390941690840190815260208101949094525060408301529081906060010390fd5b509034610234576020366003190112610234576102f860209235610fd1565b82346102345780600319360112610234576020906105d66105cc610d31565b602435903361114a565b5160018152f35b8234610234575f366003190112610234576020906006549051908152f35b8234610234575f366003190112610234576020906102f8610f29565b509034610234575f366003190112610234578051905f9280549060018260011c9160018416938415610710575b60209485851081146106fd578488529081156106db5750600114610682575b61067e8686610674828b0383610dd5565b5191829182610cc4565b0390f35b5f9081529295507f8a35acfbc15ff81a39ae7d344fd709f28e8600b4aa8c65c6b64bfe7fe36bd19b5b8284106106c8575050508261067e9461067492820101945f610663565b80548685018801529286019281016106ab565b60ff191687860152505050151560051b83010192506106748261067e5f610663565b602283634e487b7160e01b5f525260245ffd5b92607f1692610644565b50346102345781600319360112610234578035610735610d47565b835163b9209e3360e01b81523393810193909352916020816024817f00000000000000000000000000000000000000000000000000000000000000006001600160a01b03165afa9081156107ca579161079c6104cc92602096945f916107ad575b50610eb3565b6107a581610fd1565b8094336113f0565b6107c49150873d891161041b5761040c8183610dd5565b5f610796565b84513d5f823e3d90fd5b8234610234575f3660031901126102345760055490516001600160a01b039091168152602090f35b8234610234575f366003190112610234576020906007549051908152f35b34610234575f36600319011261023457610832611224565b600580546001600160a01b031981169091555f906001600160a01b03167f8be0079c531659141344cd1fd0a4f28419497f9722a3daafe3b4186f6b6457e08280a3005b5034610234578160031936011261023457803590610891610d47565b835163b9209e3360e01b81523392810192909252906020816024817f00000000000000000000000000000000000000000000000000000000000000006001600160a01b03165afa9081156107ca57916108f76104cc92602096945f916107ad5750610eb3565b61090084611052565b938491336113f0565b50903461023457602036600319011261023457610924611224565b600554815163a9059cbb60e01b81526001600160a01b039182168185015292356024840152602090839060449082905f907f0000000000000000000000000000000000000000000000000000000000000000165af19081156109a1575061098757005b61099f9060203d60201161041b5761040c8183610dd5565b005b513d5f823e3d90fd5b610d0b565b8234610234575f36600319011261023457517f00000000000000000000000000000000000000000000000000000000000000006001600160a01b03168152602090f35b509034610234575f3660031901126102345760ff7f0000000000000000000000000000000000000000000000000000000000000000169060ff8211610a3b576020925051908152f35b601183634e487b7160e01b5f525260245ffd5b8234610234576060366003190112610234576020906105d6610a6e610d31565b610a76610d47565b60443591610a8583338361107d565b61114a565b8234610234575f366003190112610234576020906002549051908152f35b8234610234575f36600319011261023457517f00000000000000000000000000000000000000000000000000000000000000006001600160a01b03168152602090f35b509034610234576020366003190112610234576102f860209235611027565b509034610234578060031936011261023457610b24610d31565b602435903315610b9d576001600160a01b0316908115610b875760209350335f5260018452825f20825f52845280835f205582519081527f8c5be1e5ebec7d5bd14f71427d1e84f3dd0314c0f7b2291e5b200ac8c7c3b925843392a35160018152f35b8251634a1406b160e11b81525f81860152602490fd5b825163e602df0560e01b81525f81860152602490fd5b509034610234575f366003190112610234578051905f9260035460018160011c91600181168015610c9e575b6020948585108214610c8b5750838752908115610c6b5750600114610c11575b5050506106748261067e940383610dd5565b60035f9081529295507fc2575a0e9e593c00f959f8c92f12db2869c3395a3b0502d05e2516446f71f85b5b828410610c58575050508261067e946106749282010194610bff565b8054868501880152928601928101610c3c565b60ff1916868501525050151560051b83010192506106748261067e610bff565b602290634e487b7160e01b5f525260245ffd5b92607f1692610bdf565b8234610234575f366003190112610234576020906102f8610e0b565b602080825282518183018190529093925f5b828110610cf757505060409293505f838284010152601f8019910116010190565b818101860151848201604001528501610cd6565b34610234576020366003190112610234576020610d29600435610ffc565b604051908152f35b600435906001600160a01b038216820361023457565b602435906001600160a01b038216820361023457565b3461023457602036600319011261023457610d76610d31565b5060206040515f198152f35b606090600319011261023457600435906001600160a01b03906024358281168103610234579160443590811681036102345790565b34610234576020366003190112610234576020610d29600435611052565b90601f8019910116810190811067ffffffffffffffff821117610df757604052565b634e487b7160e01b5f52604160045260245ffd5b6040516370a0823160e01b81523060048201526020816024817f00000000000000000000000000000000000000000000000000000000000000006001600160a01b03165afa908115610e90575f91610e61575090565b90506020813d602011610e88575b81610e7c60209383610dd5565b81010312610234575190565b3d9150610e6f565b6040513d5f823e3d90fd5b90816020910312610234575180151581036102345790565b15610eba57565b60405162461bcd60e51b8152602060048201526024808201527f53656e696f725472616e6368653a2075736572206e6f74204b59432076657269604482015263199a595960e21b6064820152608490fd5b8115610f15570490565b634e487b7160e01b5f52601260045260245ffd5b610f31610e0b565b158015610fba575b610fb65760075480420390428211610f9d574214610fb15760065461271090818102918183041490151715610f9d57610f7a90610f74610e0b565b90610f0b565b906301e1338091828102928184041490151715610f9d57610f9a91610f0b565b90565b634e487b7160e01b5f52601160045260245ffd5b505f90565b5f90565b5060065415610f39565b91908201809211610f9d57565b610fd9610e0b565b60018101809111610f9d576002549060018201809211610f9d57610f9a926113d0565b611004610e0b565b60018101809111610f9d576002549060018201809211610f9d57610f9a92611511565b60025460018101809111610f9d5761103d610e0b565b9060018201809211610f9d57610f9a926113d0565b60025460018101809111610f9d57611068610e0b565b9060018201809211610f9d57610f9a92611511565b919060018060a01b0380931692835f526001602052604093845f2091831691825f52602052845f2054925f1984106110b8575b505050505050565b84841061111a575080156111035781156110ec575f526001602052835f20905f5260205203905f20555f80808080806110b0565b8451634a1406b160e11b81525f6004820152602490fd5b845163e602df0560e01b81525f6004820152602490fd5b8551637dc7a0d960e11b81526001600160a01b039190911660048201526024810184905260448101859052606490fd5b916001600160a01b0380841692831561120c57169283156111f457825f525f60205260405f2054908282106111c25750817fddf252ad1be2c89b69c2b068fc378daa952ba7f163c4a11628f55a4df523b3ef92602092855f525f84520360405f2055845f5260405f20818154019055604051908152a3565b60405163391434e360e21b81526001600160a01b03919091166004820152602481019190915260448101829052606490fd5b60405163ec442f0560e01b81525f6004820152602490fd5b604051634b637e8f60e11b81525f6004820152602490fd5b6005546001600160a01b0316330361123857565b60405163118cdaa760e01b8152336004820152602490fd5b6001600160a01b0380841695909485831694939092828887036113bf575b5050861561120c57865f525f602052604093845f20549083821061138e57508290885f525f60205203845f205581600254036002555f877fddf252ad1be2c89b69c2b068fc378daa952ba7f163c4a11628f55a4df523b3ef60208751868152a3857f0000000000000000000000000000000000000000000000000000000000000000169584519163a9059cbb60e01b5f521695866004528360245260205f60448180855af160015f511481161561136f575b8286521561135a575050825191825260208201527ffbde797d201c681b91056529119e0b02407c7bb96a4a2c75c01fc9667232c8db9190a4565b635274afe760e01b8252600482015260249150fd5b600181151661138557813b15153d151616611320565b823d5f823e3d90fd5b855163391434e360e21b81526001600160a01b03919091166004820152602481019190915260448101839052606490fd5b6113c9918661107d565b5f8261126e565b916113dc818385611511565b918115610f1557610f9a9309151590610fc4565b909160018060a01b03807f00000000000000000000000000000000000000000000000000000000000000001693604093828551916323b872dd60e01b5f52169586600452306024528460445260205f60648180855af160015f51148116156114fb575b8287525f6060521561135a575050169384156114e45790816114997fdcbc1c05240f31ff3ad067ef1ee35ce4997762752e3a095284754544f4c709d79493600254610fc4565b600255855f525f602052825f20818154019055855f7fddf252ad1be2c89b69c2b068fc378daa952ba7f163c4a11628f55a4df523b3ef60208651858152a382519182526020820152a3565b825163ec442f0560e01b81525f6004820152602490fd5b600181151661138557813b15153d151616611453565b90915f19838309928083029283808610950394808603951461159d57848311156115855790829109815f038216809204600280826003021880830282030280830282030280830282030280830282030280830282030280920290030293600183805f03040190848311900302920304170290565b82634e487b715f52156003026011186020526024601cfd5b505090610f9a9250610f0b56fea26469706673582212208f410d9bc6f4fefbcefd73df4cde0f89fb71f3551c1bc6c5e48425850682e14464736f6c63430008180033","linkReferences":{}},"methodIdentifiers":{"BASIS_POINTS()":"e1f1c4a7","TARGET_APY()":"ed9f2448","allowance(address,address)":"dd62ed3e","approve(address,uint256)":"095ea7b3","asset()":"38d52e0f","balanceOf(address)":"70a08231","convertToAssets(uint256)":"07a2d13a","convertToShares(uint256)":"c6e6f592","decimals()":"313ce567","deposit(uint256,address)":"6e553f65","distributeYield(uint256)":"c8cc5cd8","emergencyWithdraw(uint256)":"5312ea8e","getCurrentAPY()":"962ca496","identityRegistry()":"134e18f4","lastDistributionTime()":"75b17350","maxDeposit(address)":"402d267d","maxMint(address)":"c63d75b6","maxRedeem(address)":"d905777e","maxWithdraw(address)":"ce96cb77","mint(uint256,address)":"94bf804d","name()":"06fdde03","owner()":"8da5cb5b","previewDeposit(uint256)":"ef8b30f7","previewMint(uint256)":"b3d7f6b9","previewRedeem(uint256)":"4cdad506","previewWithdraw(uint256)":"0a28a477","redeem(uint256,address,address)":"ba087652","renounceOwnership()":"715018a6","symbol()":"95d89b41","totalAssets()":"01e1d114","totalSupply()":"18160ddd","totalYieldDistributed()":"97206bd5","transfer(address,uint256)":"a9059cbb","transferFrom(address,address,uint256)":"23b872dd","transferOwnership(address)":"f2fde38b","withdraw(uint256,address,address)":"b460af94"},"id":7}