{"abi":[{"type":"constructor","inputs":[{"name":"_rwaPool","type":"address","internalType":"address"},{"name":"_rwaIncomeNFT","type":"address","internalType":"address"},{"name":"_usdc","type":"address","internalType":"address"}],"stateMutability":"nonpayable"},{"type":"function","name":"applyAutoRepayment","inputs":[{"name":"borrower","type":"address","internalType":"address"},{"name":"nftId","type":"uint256","internalType":"uint256"},{"name":"amount","type":"uint256","internalType":"uint256"}],"outputs":[],"stateMutability":"nonpayable"},{"type":"function","name":"autoRepayConfigs","inputs":[{"name":"","type":"address","internalType":"address"},{"name":"","type":"uint256","internalType":"uint256"}],"outputs":[{"name":"enabled","type":"bool","internalType":"bool"},{"name":"nftId","type":"uint256","internalType":"uint256"},{"name":"totalRepaid","type":"uint256","internalType":"uint256"},{"name":"lastRepaymentTime","type":"uint256","internalType":"uint256"}],"stateMutability":"view"},{"type":"function","name":"disableAutoRepay","inputs":[{"name":"borrower","type":"address","internalType":"address"},{"name":"nftId","type":"uint256","internalType":"uint256"}],"outputs":[],"stateMutability":"nonpayable"},{"type":"function","name":"enableAutoRepay","inputs":[{"name":"borrower","type":"address","internalType":"address"},{"name":"nftId","type":"uint256","internalType":"uint256"}],"outputs":[],"stateMutability":"nonpayable"},{"type":"function","name":"getAutoRepayConfig","inputs":[{"name":"borrower","type":"address","internalType":"address"},{"name":"nftId","type":"uint256","internalType":"uint256"}],"outputs":[{"name":"","type":"tuple","internalType":"struct SPVManager.AutoRepayConfig","components":[{"name":"enabled","type":"bool","internalType":"bool"},{"name":"nftId","type":"uint256","internalType":"uint256"},{"name":"totalRepaid","type":"uint256","internalType":"uint256"},{"name":"lastRepaymentTime","type":"uint256","internalType":"uint256"}]}],"stateMutability":"view"},{"type":"function","name":"getYieldHistory","inputs":[{"name":"borrower","type":"address","internalType":"address"}],"outputs":[{"name":"","type":"tuple[]","internalType":"struct SPVManager.YieldRecord[]","components":[{"name":"amount","type":"uint256","internalType":"uint256"},{"name":"timestamp","type":"uint256","internalType":"uint256"},{"name":"nftId","type":"uint256","internalType":"uint256"}]}],"stateMutability":"view"},{"type":"function","name":"isAutoRepayEnabled","inputs":[{"name":"borrower","type":"address","internalType":"address"},{"name":"nftId","type":"uint256","internalType":"uint256"}],"outputs":[{"name":"","type":"bool","internalType":"bool"}],"stateMutability":"view"},{"type":"function","name":"owner","inputs":[],"outputs":[{"name":"","type":"address","internalType":"address"}],"stateMutability":"view"},{"type":"function","name":"renounceOwnership","inputs":[],"outputs":[],"stateMutability":"nonpayable"},{"type":"function","name":"rwaIncomeNFT","inputs":[],"outputs":[{"name":"","type":"address","internalType":"contract RWAIncomeNFT"}],"stateMutability":"view"},{"type":"function","name":"rwaPool","inputs":[],"outputs":[{"name":"","type":"address","internalType":"contract OrbitRWAPool"}],"stateMutability":"view"},{"type":"function","name":"transferOwnership","inputs":[{"name":"newOwner","type":"address","internalType":"address"}],"outputs":[],"stateMutability":"nonpayable"},{"type":"function","name":"usdc","inputs":[],"outputs":[{"name":"","type":"address","internalType":"contract IERC20"}],"stateMutability":"view"},{"type":"function","name":"yieldHistory","inputs":[{"name":"","type":"address","internalType":"address"},{"name":"","type":"uint256","internalType":"uint256"}],"outputs":[{"name":"amount","type":"uint256","internalType":"uint256"},{"name":"timestamp","type":"uint256","internalType":"uint256"},{"name":"nftId","type":"uint256","internalType":"uint256"}],"stateMutability":"view"},{"type":"event","name":"AutoRepayEnabled","inputs":[{"name":"borrower","type":"address","indexed":true,"internalType":"address"},{"name":"nftId","type":"uint256","indexed":true,"internalType":"uint256"}],"anonymous":false},{"type":"event","name":"AutoRepaymentApplied","inputs":[{"name":"borrower","type":"address","indexed":true,"internalType":"address"},{"name":"nftId","type":"uint256","indexed":true,"internalType":"uint256"},{"name":"amount","type":"uint256","indexed":false,"internalType":"uint256"},{"name":"remainingDebt","type":"uint256","indexed":false,"internalType":"uint256"}],"anonymous":false},{"type":"event","name":"OwnershipTransferred","inputs":[{"name":"previousOwner","type":"address","indexed":true,"internalType":"address"},{"name":"newOwner","type":"address","indexed":true,"internalType":"address"}],"anonymous":false},{"type":"event","name":"YieldReceived","inputs":[{"name":"borrower","type":"address","indexed":true,"internalType":"address"},{"name":"nftId","type":"uint256","indexed":true,"internalType":"uint256"},{"name":"amount","type":"uint256","indexed":false,"internalType":"uint256"}],"anonymous":false},{"type":"error","name":"OwnableInvalidOwner","inputs":[{"name":"owner","type":"address","internalType":"address"}]},{"type":"error","name":"OwnableUnauthorizedAccount","inputs":[{"name":"account","type":"address","internalType":"address"}]}],"bytecode":{"object":"0x60e03461011c57601f610f1638819003918201601f19168301916001600160401b038311848410176101205780849260609460405283398101031261011c5761004781610134565b90610060604061005960208401610134565b9201610134565b3315610104575f8054336001600160a01b0319821681178355604051956001600160a01b039586949093859391908416907f8be0079c531659141344cd1fd0a4f28419497f9722a3daafe3b4186f6b6457e09080a3166080521660a0521660c052610dcd9081610149823960805181818161029d0152818161037a01526108a1015260a0518181816103410152610582015260c05181818161073201526108e20152f35b604051631e4fbdf760e01b81525f6004820152602490fd5b5f80fd5b634e487b7160e01b5f52604160045260245ffd5b51906001600160a01b038216820361011c5756fe60406080815260049081361015610014575f80fd5b5f915f3560e01c80630a989973146108305780630b1140ed146107ca578063200d9655146107615780633e413bee1461071d57806353d7a5001461060d578063715018a6146105b1578063793aae0d1461056d5780637de356fb146102f45780638da5cb5b146102cc57806396e4bba514610288578063ced94b9d14610241578063d7272d1314610197578063da450c9b146101485763f2fde38b146100b8575f80fd5b34610144576020366003190112610144576100d1610ca3565b906100da610d6c565b6001600160a01b0391821692831561012e5750505f54826bffffffffffffffffffffffff60a01b8216175f55167f8be0079c531659141344cd1fd0a4f28419497f9722a3daafe3b4186f6b6457e05f80a380f35b51631e4fbdf760e01b8152908101849052602490fd5b8280fd5b505034610193578060031936011261019357610162610ca3565b61016a610d6c565b6001600160a01b0316825260016020908152818320602435845290528120805460ff1916905580f35b5080fd5b505034610193578060031936011261019357806080926101b5610ca3565b81606084516101c381610d16565b8281528260208201528286820152015260018060a01b031681526001602052818120602435825260205220908051906101fb82610d16565b60ff835416151592838352600181015460208401908152606060036002840154938587019485520154940193845282519485525160208501525190830152516060820152f35b50503461019357806003193601126101935760209160ff9082906001600160a01b0361026b610ca3565b168152600185528181206024358252855220541690519015158152f35b505034610193578160031936011261019357517f00000000000000000000000000000000000000000000000000000000000000006001600160a01b03168152602090f35b505034610193578160031936011261019357905490516001600160a01b039091168152602090f35b503461014457816003193601126101445761030d610ca3565b916024359261031a610d6c565b81516331a9108f60e11b81528084018590526001600160a01b0393602092909183816024817f00000000000000000000000000000000000000000000000000000000000000008a165afa90811561056357908692918991610523575b50827f00000000000000000000000000000000000000000000000000000000000000001696879116036104e057839060248651809481936318148b6f60e11b8352169889878301525afa9081156104d65787916104a9575b501561045557506003908251926103e484610d16565b60018452818401868152818501918883526060860193428552878a5260018152818a2090898b525288209451151560ff80198754169116178555516001850155516002840155519101557f6ad76dc795503578fdb5ff2191760fac854975aac535fe6bb894e13ed1af1ead8380a380f35b915162461bcd60e51b815291820152602a60248201527f5350564d616e616765723a206175746f2d7265706179206e6f7420656e61626c6044820152691959081a5b881c1bdbdb60b21b6064820152608490fd5b6104c99150833d85116104cf575b6104c18183610d32565b810190610d54565b5f6103ce565b503d6104b7565b84513d89823e3d90fd5b845162461bcd60e51b8152808401859052601b60248201527f5350564d616e616765723a204e4654206e6f7420696e20706f6f6c00000000006044820152606490fd5b80929350858092503d831161055c575b61053d8183610d32565b8101031261055857519085821682036105585785915f610376565b8780fd5b503d610533565b85513d8a823e3d90fd5b505034610193578160031936011261019357517f00000000000000000000000000000000000000000000000000000000000000006001600160a01b03168152602090f35b833461060a578060031936011261060a576105ca610d6c565b5f80546001600160a01b0319811682556001600160a01b03167f8be0079c531659141344cd1fd0a4f28419497f9722a3daafe3b4186f6b6457e08280a380f35b80fd5b5082903461019357602080600319360112610144576001600160a01b03610632610ca3565b168352600290600281528484209283549067ffffffffffffffff821161070a57508551919492610668600583901b870184610d32565b81835285830190819585528685209085925b8484106106ce575050505050845193808501918186525180925285850193925b8281106106a75785850386f35b8351805186528083015186840152870151878601526060909401939281019260010161069a565b6003896001928c9b98999b516106e381610ce6565b8654815284870154838201528d86880154908201528152019301930192919795949761067a565b634e487b7160e01b865260419052602485fd5b505034610193578160031936011261019357517f00000000000000000000000000000000000000000000000000000000000000006001600160a01b03168152602090f35b50503461019357806003193601126101935760809181906001600160a01b03610788610ca3565b16815260016020528181206024358252602052209060ff8254169160018101549160036002830154920154928151941515855260208501528301526060820152f35b5050346101935780600319360112610193576107e4610ca3565b6001600160a01b0316825260026020528082208054602435939084101561060a575060609261081291610cb9565b50805491600260018301549201549181519384526020840152820152f35b50829034610b0a576060366003190112610b0a5761084c610ca3565b906024938435926044359061085f610d6c565b60018060a01b039384821694855f5260209260018452855f20885f528452855f209060ff82541615610c4957865163e65896c960e01b8082528582018a9052937f0000000000000000000000000000000000000000000000000000000000000000811693929187818f81885afa908115610bd0575f91610c1c575b5015610bda577f00000000000000000000000000000000000000000000000000000000000000001688516323b872dd60e01b815233878201528d309082015288604482015287816064815f865af18015610bd05761097392865f8a8e8d968f96610bb3575b505163095ea7b360e01b81526001600160a01b03909316908301908152602081019490945290948593849291839160400190565b03925af18015610ba957610b8c575b50823b15610b0a57875163ede66a4560e01b81526001600160a01b03909116858201908152602081018890525f9082908190604001038183875af18015610b8257610b54575b5060028101805490878201809211610b425755600342910155868952600284528589208651906109f782610ce6565b868252858201428152888301918b835280549068010000000000000000821015610b305790610a2b91600182018155610cb9565b939093610b1f578a9b9c9d94928897969492600292518455516001840155519101558751988994859384528301525afa908115610b15578791610ac2575b7f8c21cf79a255de60a4e14e8efcf726c14a4b4a31769e0c7a1656b4b7db481bdb945086867f08f2eb7ab6b674308b7f2b1bd986a89438bd264f21d0cc5411e9d361c6ca667c838751878152a38351928352820152a380f35b80915084813d8311610b0e575b610ad98183610d32565b81010312610b0a577f8c21cf79a255de60a4e14e8efcf726c14a4b4a31769e0c7a1656b4b7db481bdb935190610a69565b5f80fd5b503d610acf565b83513d89823e3d90fd5b634e487b7160e01b8d528c87528d8dfd5b634e487b7160e01b8e52604188528e8efd5b634e487b7160e01b8c52601186528c8cfd5b90995067ffffffffffffffff8111610b705786525f988b6109c8565b8a604185634e487b7160e01b5f52525ffd5b88513d5f823e3d90fd5b610ba290873d89116104cf576104c18183610d32565b508c610982565b89513d5f823e3d90fd5b610bc990883d8a116104cf576104c18183610d32565b505f61093f565b8a513d5f823e3d90fd5b885162461bcd60e51b8152808701889052601c818f01527f5350564d616e616765723a206e6f206465627420746f207265706179000000006044820152606490fd5b90508781813d8311610c42575b610c338183610d32565b81010312610b0a57518e6108da565b503d610c29565b865162461bcd60e51b8152808501869052602f818d01527f5350564d616e616765723a206175746f2d7265706179206e6f7420656e61626c60448201526e195908199bdc881d1a1a5cc8139195608a1b6064820152608490fd5b600435906001600160a01b0382168203610b0a57565b8054821015610cd2575f52600360205f20910201905f90565b634e487b7160e01b5f52603260045260245ffd5b6060810190811067ffffffffffffffff821117610d0257604052565b634e487b7160e01b5f52604160045260245ffd5b6080810190811067ffffffffffffffff821117610d0257604052565b90601f8019910116810190811067ffffffffffffffff821117610d0257604052565b90816020910312610b0a57518015158103610b0a5790565b5f546001600160a01b03163303610d7f57565b60405163118cdaa760e01b8152336004820152602490fdfea26469706673582212208755edd6cd5006aa032ab759669af37d2f03d05593bb802ddc84ac6f4c35f1fd64736f6c63430008180033","linkReferences":{}},"methodIdentifiers":{"applyAutoRepayment(address,uint256,uint256)":"0a989973","autoRepayConfigs(address,uint256)":"200d9655","disableAutoRepay(address,uint256)":"da450c9b","enableAutoRepay(address,uint256)":"7de356fb","getAutoRepayConfig(address,uint256)":"d7272d13","getYieldHistory(address)":"53d7a500","isAutoRepayEnabled(address,uint256)":"ced94b9d","owner()":"8da5cb5b","renounceOwnership()":"715018a6","rwaIncomeNFT()":"793aae0d","rwaPool()":"96e4bba5","transferOwnership(address)":"f2fde38b","usdc()":"3e413bee","yieldHistory(address,uint256)":"0b1140ed"},"id":5}