{"abi":[{"type":"constructor","inputs":[{"name":"_seniorTranche","type":"address","internalType":"address"},{"name":"_juniorTranche","type":"address","internalType":"address"},{"name":"_asset","type":"address","internalType":"address"}],"stateMutability":"nonpayable"},{"type":"function","name":"BASIS_POINTS","inputs":[],"outputs":[{"name":"","type":"uint256","internalType":"uint256"}],"stateMutability":"view"},{"type":"function","name":"SECONDS_PER_YEAR","inputs":[],"outputs":[{"name":"","type":"uint256","internalType":"uint256"}],"stateMutability":"view"},{"type":"function","name":"SENIOR_TARGET_APY","inputs":[],"outputs":[{"name":"","type":"uint256","internalType":"uint256"}],"stateMutability":"view"},{"type":"function","name":"absorbLoss","inputs":[{"name":"lossAmount","type":"uint256","internalType":"uint256"}],"outputs":[],"stateMutability":"nonpayable"},{"type":"function","name":"asset","inputs":[],"outputs":[{"name":"","type":"address","internalType":"contract IERC20"}],"stateMutability":"view"},{"type":"function","name":"distributeYield","inputs":[{"name":"totalYield","type":"uint256","internalType":"uint256"}],"outputs":[],"stateMutability":"nonpayable"},{"type":"function","name":"getDistributionSummary","inputs":[],"outputs":[{"name":"seniorAssets","type":"uint256","internalType":"uint256"},{"name":"juniorAssets","type":"uint256","internalType":"uint256"},{"name":"seniorAPY","type":"uint256","internalType":"uint256"},{"name":"juniorAPY","type":"uint256","internalType":"uint256"}],"stateMutability":"view"},{"type":"function","name":"juniorTranche","inputs":[],"outputs":[{"name":"","type":"address","internalType":"contract JuniorTranche"}],"stateMutability":"view"},{"type":"function","name":"lastDistributionTime","inputs":[],"outputs":[{"name":"","type":"uint256","internalType":"uint256"}],"stateMutability":"view"},{"type":"function","name":"owner","inputs":[],"outputs":[{"name":"","type":"address","internalType":"address"}],"stateMutability":"view"},{"type":"function","name":"previewYieldDistribution","inputs":[{"name":"totalYield","type":"uint256","internalType":"uint256"}],"outputs":[{"name":"seniorAmount","type":"uint256","internalType":"uint256"},{"name":"juniorAmount","type":"uint256","internalType":"uint256"}],"stateMutability":"view"},{"type":"function","name":"renounceOwnership","inputs":[],"outputs":[],"stateMutability":"nonpayable"},{"type":"function","name":"seniorTranche","inputs":[],"outputs":[{"name":"","type":"address","internalType":"contract SeniorTranche"}],"stateMutability":"view"},{"type":"function","name":"totalLossAbsorbed","inputs":[],"outputs":[{"name":"","type":"uint256","internalType":"uint256"}],"stateMutability":"view"},{"type":"function","name":"totalYieldDistributed","inputs":[],"outputs":[{"name":"","type":"uint256","internalType":"uint256"}],"stateMutability":"view"},{"type":"function","name":"transferOwnership","inputs":[{"name":"newOwner","type":"address","internalType":"address"}],"outputs":[],"stateMutability":"nonpayable"},{"type":"event","name":"LossAbsorbed","inputs":[{"name":"totalLoss","type":"uint256","indexed":false,"internalType":"uint256"},{"name":"juniorLoss","type":"uint256","indexed":false,"internalType":"uint256"},{"name":"seniorLoss","type":"uint256","indexed":false,"internalType":"uint256"},{"name":"timestamp","type":"uint256","indexed":false,"internalType":"uint256"}],"anonymous":false},{"type":"event","name":"OwnershipTransferred","inputs":[{"name":"previousOwner","type":"address","indexed":true,"internalType":"address"},{"name":"newOwner","type":"address","indexed":true,"internalType":"address"}],"anonymous":false},{"type":"event","name":"YieldDistributed","inputs":[{"name":"totalYield","type":"uint256","indexed":false,"internalType":"uint256"},{"name":"seniorAmount","type":"uint256","indexed":false,"internalType":"uint256"},{"name":"juniorAmount","type":"uint256","indexed":false,"internalType":"uint256"},{"name":"timestamp","type":"uint256","indexed":false,"internalType":"uint256"}],"anonymous":false},{"type":"error","name":"OwnableInvalidOwner","inputs":[{"name":"owner","type":"address","internalType":"address"}]},{"type":"error","name":"OwnableUnauthorizedAccount","inputs":[{"name":"account","type":"address","internalType":"address"}]}],"bytecode":{"object":"0x60e03461013c57601f6110b338819003918201601f19168301916001600160401b038311848410176101405780849260609460405283398101031261013c5761004781610154565b90610060604061005960208401610154565b9201610154565b3315610124575f8054336001600160a01b0319821681178355604051956001600160a01b039586949093859391908416907f8be0079c531659141344cd1fd0a4f28419497f9722a3daafe3b4186f6b6457e09080a3166080521660a0521660c05242600355610f4a908161016982396080518181816101ee015281816105ae015281816109c101528181610ace0152610bb0015260a0518181816101a6015281816105f501528181610b560152610bee015260c0518181816105720152610dfd0152f35b604051631e4fbdf760e01b81525f6004820152602490fd5b5f80fd5b634e487b7160e01b5f52604160045260245ffd5b51906001600160a01b038216820361013c5756fe6080604081815260049081361015610015575f80fd5b5f925f3560e01c9081632b08c72e14610e2c5750806338d52e0f14610de9578063715018a614610d9257806375b1735014610d745780638476a6ea14610b8557806386d4779e14610b425780638da5cb5b14610b1b57806397206bd514610afd578063a639d0dc14610aba578063a6c05a6d14610997578063c8cc5cd814610524578063d51f558814610505578063e1f1c4a7146104e8578063e6a69ab8146104c5578063ec78412e146101685763f2fde38b146100d1575f80fd5b34610164576020366003190112610164576001600160a01b0382358181169391929084900361016057610102610ee9565b831561014a5750505f54826bffffffffffffffffffffffff60a01b8216175f55167f8be0079c531659141344cd1fd0a4f28419497f9722a3daafe3b4186f6b6457e05f80a380f35b51631e4fbdf760e01b8152908101849052602490fd5b8480fd5b8280fd5b50903461016457602090816003193601126104c157803592610188610ee9565b83156104715780516278744560e21b80825290936001600160a01b037f000000000000000000000000000000000000000000000000000000000000000081169290919081878781875afa968715610467578997610438575b5081908686518095819382527f0000000000000000000000000000000000000000000000000000000000000000165afa91821561042e5788926103fb575b5087958781106102dc5750505085908593813b15610164578660248492838751958694859363763c209760e11b85528401525af180156102d2576102be575b50507f283209153e46ca7128835a1b341801d7ac45a9acb72a28ade92ed293e5658736936102b8915b61029282600254610edc565b600255519384934292859094939260609260808301968352602083015260408201520152565b0390a180f35b6102c790610e46565b61016057845f61025d565b83513d84823e3d90fd5b8091929593965097969397946102f28286610e90565b96828893610398575b5050106103305750506102b8907f283209153e46ca7128835a1b341801d7ac45a9acb72a28ade92ed293e56587369495610286565b865162461bcd60e51b815291820152603860248201527f576174657266616c6c4469737472696275746f723a20696e737566666963696560448201527f6e742061737365747320746f206162736f7262206c6f73730000000000000000606482015260849150fd5b90809293503b156103f7578891602483928c51948593849263763c209760e11b84528a8401525af180156103ed578792918991156102fb576103dc91929350610e46565b6103e9578590875f6102fb565b8680fd5b89513d8a823e3d90fd5b8880fd5b9080925081813d8311610427575b6104138183610e6e565b810103126104235751905f61021e565b5f80fd5b503d610409565b84513d8a823e3d90fd5b9096508181813d8311610460575b6104508183610e6e565b81010312610423575195816101e0565b503d610446565b85513d8b823e3d90fd5b91608492519162461bcd60e51b8352820152602660248201527f576174657266616c6c4469737472696275746f723a206c6f7373206d7573742060448201526506265203e20360d41b6064820152fd5b8380fd5b8382346104e457816003193601126104e457602090516301e133808152f35b5080fd5b8382346104e457816003193601126104e457602090516127108152f35b8382346104e457816003193601126104e4576020906002549051908152f35b509034610423576020908160031936011261042357803592610544610ee9565b83156109465780516323b872dd60e01b81523383820152306024820152604481018590526001600160a01b037f0000000000000000000000000000000000000000000000000000000000000000811693909185816064815f895af1801561093c5761091f575b50817f000000000000000000000000000000000000000000000000000000000000000016948351946278744560e21b93848752828785818b5afa96871561082e575f976108f0575b507f00000000000000000000000000000000000000000000000000000000000000001693855190815282818581885afa801561082e57908a95949392916108c2575b5061064160035442610e90565b5f9780158015806108b9575b61085f575b50505061065f878a610e90565b9787610792575b50876106cc575b847fc39bd4b19f4d9308b07f50c64b0e693c21f81328f10f571b7f9433525808ea1689896102b88d8b6106a282600154610edc565b60015542600355519384934292859094939260609260808301968352602083015260408201520152565b855163095ea7b360e01b81526001600160a01b038516848201908152602081018a90529091839183919082908990829060400103925af180156107885761075a575b5050813b1561016457856024849283875195869485936319198b9b60e31b85528401525af180156102d257610746575b80808061066d565b61074f90610e46565b61016057845f61073e565b8161077992903d10610781575b6107718183610e6e565b810190610ec4565b505f8061070e565b503d610767565b86513d87823e3d90fd5b865163095ea7b360e01b81526001600160a01b038216818601908152602081018a905295965093949293919290919084908290819060400103815f875af1801561085557610838575b50803b15610423575f809160248851809481936319198b9b60e31b83528c8a8401525af1801561082e57610815575b908994939291610666565b610823919493929950610e46565b5f979091925f61080a565b86513d5f823e3d90fd5b61084e90843d8611610781576107718183610e6e565b505f6107db565b87513d5f823e3d90fd5b9193949596509197506102088083029283041417156108a65761088c8a9594939264496cebb80092610eb1565b049588871161089e575b5f8080610652565b889650610896565b601184634e487b7160e01b5f525260245ffd5b5082151561064d565b82809296503d83116108e9575b6108d98183610e6e565b810103126104235788935f610634565b503d6108cf565b9096508281813d8311610918575b6109088183610e6e565b810103126104235751955f6105f2565b503d6108fe565b61093590863d8811610781576107718183610e6e565b505f6105aa565b84513d5f823e3d90fd5b91608492519162461bcd60e51b8352820152602760248201527f576174657266616c6c4469737472696275746f723a207969656c64206d7573746044820152660206265203e20360cc1b6064820152fd5b509034610423576020806003193601126104235782516278744560e21b81525f92803591838183817f00000000000000000000000000000000000000000000000000000000000000006001600160a01b03165afa90811561082e575f91610a8d575b50610a0660035442610e90565b918115801580610a84575b610a2f575b5050505082610a2491610e90565b908351928352820152f35b909192939550610208808402938404141715610a71575064496cebb80091610a5691610eb1565b0491808311610a69575b84808080610a16565b915081610a60565b601190634e487b7160e01b5f525260245ffd5b50831515610a11565b90508381813d8311610ab3575b610aa48183610e6e565b810103126104235751866109f9565b503d610a9a565b5034610423575f36600319011261042357517f00000000000000000000000000000000000000000000000000000000000000006001600160a01b03168152602090f35b5034610423575f366003190112610423576020906001549051908152f35b5034610423575f366003190112610423575f5490516001600160a01b039091168152602090f35b5034610423575f36600319011261042357517f00000000000000000000000000000000000000000000000000000000000000006001600160a01b03168152602090f35b509034610423575f3660031901126104235781516278744560e21b8082529290916001600160a01b037f00000000000000000000000000000000000000000000000000000000000000008116926020929183868481885afa958615610d3b575f96610d45575b507f00000000000000000000000000000000000000000000000000000000000000001693815196875283878481885afa968715610d3b575f97610d0c575b5081519284848281634b16524b60e11b958682525afa938415610d0257908592915f95610cd1575b5083518097819382525afa928315610cc7575f93610c95575b50610c91935051948594859094939260609260808301968352602083015260408201520152565b0390f35b90925083813d8311610cc0575b610cac8183610e6e565b8101031261042357610c9192519186610c6a565b503d610ca2565b50513d5f823e3d90fd5b8381949296503d8311610cfb575b610ce98183610e6e565b81010312610423578491519389610c51565b503d610cdf565b83513d5f823e3d90fd5b9096508381813d8311610d34575b610d248183610e6e565b8101031261042357519587610c29565b503d610d1a565b82513d5f823e3d90fd5b9095508381813d8311610d6d575b610d5d8183610e6e565b8101031261042357519487610beb565b503d610d53565b5034610423575f366003190112610423576020906003549051908152f35b34610423575f36600319011261042357610daa610ee9565b5f80546001600160a01b0319811682556001600160a01b03167f8be0079c531659141344cd1fd0a4f28419497f9722a3daafe3b4186f6b6457e08280a3005b5034610423575f36600319011261042357517f00000000000000000000000000000000000000000000000000000000000000006001600160a01b03168152602090f35b34610423575f366003190112610423578061020860209252f35b67ffffffffffffffff8111610e5a57604052565b634e487b7160e01b5f52604160045260245ffd5b90601f8019910116810190811067ffffffffffffffff821117610e5a57604052565b91908203918211610e9d57565b634e487b7160e01b5f52601160045260245ffd5b81810292918115918404141715610e9d57565b90816020910312610423575180151581036104235790565b91908201809211610e9d57565b5f546001600160a01b03163303610efc57565b60405163118cdaa760e01b8152336004820152602490fdfea2646970667358221220316b5c2d19ad2f1a3ac9401434a84d331af258412d0f77c3945ccb2549e8c5fe64736f6c63430008180033","linkReferences":{}},"methodIdentifiers":{"BASIS_POINTS()":"e1f1c4a7","SECONDS_PER_YEAR()":"e6a69ab8","SENIOR_TARGET_APY()":"2b08c72e","absorbLoss(uint256)":"ec78412e","asset()":"38d52e0f","distributeYield(uint256)":"c8cc5cd8","getDistributionSummary()":"8476a6ea","juniorTranche()":"86d4779e","lastDistributionTime()":"75b17350","owner()":"8da5cb5b","previewYieldDistribution(uint256)":"a6c05a6d","renounceOwnership()":"715018a6","seniorTranche()":"a639d0dc","totalLossAbsorbed()":"d51f5588","totalYieldDistributed()":"97206bd5","transferOwnership(address)":"f2fde38b"},"id":7}