{"abi":[{"type":"constructor","inputs":[{"name":"_accountImplementation","type":"address","internalType":"address"},{"name":"_vaultRegistry","type":"address","internalType":"address"},{"name":"_debtManager","type":"address","internalType":"address"}],"stateMutability":"nonpayable"},{"type":"function","name":"accountImplementation","inputs":[],"outputs":[{"name":"","type":"address","internalType":"address"}],"stateMutability":"view"},{"type":"function","name":"accounts","inputs":[{"name":"user","type":"address","internalType":"address"}],"outputs":[{"name":"account","type":"address","internalType":"address"}],"stateMutability":"view"},{"type":"function","name":"createAccount","inputs":[],"outputs":[{"name":"account","type":"address","internalType":"address"}],"stateMutability":"nonpayable"},{"type":"function","name":"debtManager","inputs":[],"outputs":[{"name":"","type":"address","internalType":"address"}],"stateMutability":"view"},{"type":"function","name":"getAccount","inputs":[{"name":"user","type":"address","internalType":"address"}],"outputs":[{"name":"","type":"address","internalType":"address"}],"stateMutability":"view"},{"type":"function","name":"getOrCreateAccount","inputs":[{"name":"user","type":"address","internalType":"address"}],"outputs":[{"name":"account","type":"address","internalType":"address"}],"stateMutability":"nonpayable"},{"type":"function","name":"isOrbitAccount","inputs":[{"name":"account","type":"address","internalType":"address"}],"outputs":[{"name":"isValid","type":"bool","internalType":"bool"}],"stateMutability":"view"},{"type":"function","name":"isValidAccount","inputs":[{"name":"account","type":"address","internalType":"address"}],"outputs":[{"name":"","type":"bool","internalType":"bool"}],"stateMutability":"view"},{"type":"function","name":"owner","inputs":[],"outputs":[{"name":"","type":"address","internalType":"address"}],"stateMutability":"view"},{"type":"function","name":"setOwner","inputs":[{"name":"newOwner","type":"address","internalType":"address"}],"outputs":[],"stateMutability":"nonpayable"},{"type":"function","name":"totalAccounts","inputs":[],"outputs":[{"name":"","type":"uint256","internalType":"uint256"}],"stateMutability":"view"},{"type":"function","name":"vaultRegistry","inputs":[],"outputs":[{"name":"","type":"address","internalType":"address"}],"stateMutability":"view"},{"type":"event","name":"AccountCreated","inputs":[{"name":"user","type":"address","indexed":true,"internalType":"address"},{"name":"account","type":"address","indexed":true,"internalType":"address"},{"name":"totalAccounts","type":"uint256","indexed":false,"internalType":"uint256"}],"anonymous":false},{"type":"event","name":"OwnershipTransferred","inputs":[{"name":"previousOwner","type":"address","indexed":true,"internalType":"address"},{"name":"newOwner","type":"address","indexed":true,"internalType":"address"}],"anonymous":false},{"type":"error","name":"AccountAlreadyExists","inputs":[{"name":"user","type":"address","internalType":"address"},{"name":"account","type":"address","internalType":"address"}]},{"type":"error","name":"FailedDeployment","inputs":[]},{"type":"error","name":"InsufficientBalance","inputs":[{"name":"balance","type":"uint256","internalType":"uint256"},{"name":"needed","type":"uint256","internalType":"uint256"}]},{"type":"error","name":"InvalidImplementation","inputs":[{"name":"impl","type":"address","internalType":"address"}]},{"type":"error","name":"Unauthorized","inputs":[{"name":"caller","type":"address","internalType":"address"}]}],"bytecode":{"object":"0x60e03461010957601f61076438819003918201601f19168301916001600160401b0383118484101761010d578084926060946040528339810103126101095761004781610121565b90610060604061005960208401610121565b9201610121565b916001600160a01b03808216159081156100fe575b81156100f3575b506100db5760805260a05260c052600280546001600160a01b0319163317905560405161062e9081610136823960805181818161038b01526103f7015260a05181818161014b015261047f015260c05181818161025001526104a60152f35b604051630c76093760e01b81525f6004820152602490fd5b90508316155f61007c565b838116159150610075565b5f80fd5b634e487b7160e01b5f52604160045260245ffd5b51906001600160a01b03821682036101095756fe608060409080825260049081361015610016575f80fd5b5f3560e01c90816311464fbe146103795750806313af4035146102d857806323cca69c146101d557806358451f97146102ba5780635e5c06e21461027f57806360b3a0331461023c5780638da5cb5b146102145780638e05db89146101d55780639dca362f1461017a578063cdd7b38a14610137578063e72f1858146100e25763fbcbc0f1146100a4575f80fd5b346100de5760203660031901126100de57356001600160a01b0381811692918390036100de576020925f525f8352815f2054169051908152f35b5f80fd5b50346100de5760203660031901126100de573560018060a01b03808216928383036100de576020935f525f845281815f205416928315610125575b505191168152f35b6101309193506103e2565b915f61011d565b82346100de575f3660031901126100de57517f00000000000000000000000000000000000000000000000000000000000000006001600160a01b03168152602090f35b5090346100de575f3660031901126100de57335f525f60205260018060a01b039182825f205416806101bb57602083856101b3336103e2565b915191168152f35b604492519162411dbd60e61b835233908301526024820152fd5b50346100de5760203660031901126100de57356001600160a01b03811691908290036100de576020915f526001825260ff815f20541690519015158152f35b82346100de575f3660031901126100de5760025490516001600160a01b039091168152602090f35b82346100de575f3660031901126100de57517f00000000000000000000000000000000000000000000000000000000000000006001600160a01b03168152602090f35b50346100de5760203660031901126100de57356001600160a01b0381811692918390036100de576020925f525f8352815f2054169051908152f35b82346100de575f3660031901126100de576020906003549051908152f35b5090346100de5760203660031901126100de576001600160a01b03823581811693908490036100de576002549182169283330361036257841561034c5750506001600160a01b03191682176002557f8be0079c531659141344cd1fd0a4f28419497f9722a3daafe3b4186f6b6457e05f80a3005b51630c76093760e01b8152908101849052602490fd5b60249250519063472511eb60e11b82523390820152fd5b346100de575f3660031901126100de577f00000000000000000000000000000000000000000000000000000000000000006001600160a01b03168152602090f35b67ffffffffffffffff81116103ce57604052565b634e487b7160e01b5f52604160045260245ffd5b905f916e5af43d82803e903d91602b57fd5bf37f0000000000000000000000000000000000000000000000000000000000000000763d602d80600a3d3981f3363d3d373d3d3d363d7300000062ffffff8260881c16175f5260781b17602052603760095ff06001600160a01b0380821692909183156105e65794833b156100de5760409183835191637c643b2f60e11b83521693846004830152807f00000000000000000000000000000000000000000000000000000000000000001660248301527f000000000000000000000000000000000000000000000000000000000000000016908160448201525f60648201525f81608481838a5af180156105dc576105c9575b5083825281602052828220856bffffffffffffffffffffffff60a01b8254161790558482526001602052828220600160ff198254161790556003545f1981146105b557600101600355803b156105b157818091602485518094819363a9a8679b60e01b83528a60048401525af180156105a757610590575b505060207f33310a89c32d8cc00057ad6ef6274d2f8fe22389a992cf89983e09fc84f6cfff916003549051908152a3565b61059a82916103ba565b6105a4578061055f565b80fd5b83513d84823e3d90fd5b5080fd5b634e487b7160e01b83526011600452602483fd5b6105d49192506103ba565b5f905f6104e7565b84513d5f823e3d90fd5b60405163b06ebf3d60e01b8152600490fdfea264697066735822122036f86822ba3d4125257323a0e19f388c510a337ebd73b21ff808400f51ec164564736f6c63430008180033","linkReferences":{}},"methodIdentifiers":{"accountImplementation()":"11464fbe","accounts(address)":"5e5c06e2","createAccount()":"9dca362f","debtManager()":"60b3a033","getAccount(address)":"fbcbc0f1","getOrCreateAccount(address)":"e72f1858","isOrbitAccount(address)":"8e05db89","isValidAccount(address)":"23cca69c","owner()":"8da5cb5b","setOwner(address)":"13af4035","totalAccounts()":"58451f97","vaultRegistry()":"cdd7b38a"},"id":0}