{"abi":[{"type":"constructor","inputs":[{"name":"_asset","type":"address","internalType":"address"},{"name":"_strategy","type":"address","internalType":"address"},{"name":"_ltvRatio","type":"uint256","internalType":"uint256"},{"name":"_depositCap","type":"uint256","internalType":"uint256"},{"name":"_name","type":"string","internalType":"string"},{"name":"_symbol","type":"string","internalType":"string"}],"stateMutability":"nonpayable"},{"type":"function","name":"allowance","inputs":[{"name":"owner","type":"address","internalType":"address"},{"name":"spender","type":"address","internalType":"address"}],"outputs":[{"name":"","type":"uint256","internalType":"uint256"}],"stateMutability":"view"},{"type":"function","name":"approve","inputs":[{"name":"spender","type":"address","internalType":"address"},{"name":"value","type":"uint256","internalType":"uint256"}],"outputs":[{"name":"","type":"bool","internalType":"bool"}],"stateMutability":"nonpayable"},{"type":"function","name":"asset","inputs":[],"outputs":[{"name":"","type":"address","internalType":"address"}],"stateMutability":"view"},{"type":"function","name":"balanceOf","inputs":[{"name":"account","type":"address","internalType":"address"}],"outputs":[{"name":"","type":"uint256","internalType":"uint256"}],"stateMutability":"view"},{"type":"function","name":"convertToAssets","inputs":[{"name":"shares","type":"uint256","internalType":"uint256"}],"outputs":[{"name":"","type":"uint256","internalType":"uint256"}],"stateMutability":"view"},{"type":"function","name":"convertToShares","inputs":[{"name":"assets","type":"uint256","internalType":"uint256"}],"outputs":[{"name":"","type":"uint256","internalType":"uint256"}],"stateMutability":"view"},{"type":"function","name":"decimals","inputs":[],"outputs":[{"name":"","type":"uint8","internalType":"uint8"}],"stateMutability":"view"},{"type":"function","name":"deposit","inputs":[{"name":"assets","type":"uint256","internalType":"uint256"},{"name":"receiver","type":"address","internalType":"address"}],"outputs":[{"name":"shares","type":"uint256","internalType":"uint256"}],"stateMutability":"nonpayable"},{"type":"function","name":"depositCap","inputs":[],"outputs":[{"name":"","type":"uint256","internalType":"uint256"}],"stateMutability":"view"},{"type":"function","name":"harvest","inputs":[],"outputs":[{"name":"yieldEarned","type":"uint256","internalType":"uint256"}],"stateMutability":"nonpayable"},{"type":"function","name":"lastHarvestBlock","inputs":[],"outputs":[{"name":"","type":"uint256","internalType":"uint256"}],"stateMutability":"view"},{"type":"function","name":"ltvRatio","inputs":[],"outputs":[{"name":"","type":"uint256","internalType":"uint256"}],"stateMutability":"view"},{"type":"function","name":"maxDeposit","inputs":[{"name":"","type":"address","internalType":"address"}],"outputs":[{"name":"","type":"uint256","internalType":"uint256"}],"stateMutability":"view"},{"type":"function","name":"maxMint","inputs":[{"name":"","type":"address","internalType":"address"}],"outputs":[{"name":"","type":"uint256","internalType":"uint256"}],"stateMutability":"view"},{"type":"function","name":"maxRedeem","inputs":[{"name":"owner","type":"address","internalType":"address"}],"outputs":[{"name":"","type":"uint256","internalType":"uint256"}],"stateMutability":"view"},{"type":"function","name":"maxWithdraw","inputs":[{"name":"owner","type":"address","internalType":"address"}],"outputs":[{"name":"","type":"uint256","internalType":"uint256"}],"stateMutability":"view"},{"type":"function","name":"mint","inputs":[{"name":"shares","type":"uint256","internalType":"uint256"},{"name":"receiver","type":"address","internalType":"address"}],"outputs":[{"name":"","type":"uint256","internalType":"uint256"}],"stateMutability":"nonpayable"},{"type":"function","name":"name","inputs":[],"outputs":[{"name":"","type":"string","internalType":"string"}],"stateMutability":"view"},{"type":"function","name":"owner","inputs":[],"outputs":[{"name":"","type":"address","internalType":"address"}],"stateMutability":"view"},{"type":"function","name":"pause","inputs":[],"outputs":[],"stateMutability":"nonpayable"},{"type":"function","name":"paused","inputs":[],"outputs":[{"name":"","type":"bool","internalType":"bool"}],"stateMutability":"view"},{"type":"function","name":"previewDeposit","inputs":[{"name":"assets","type":"uint256","internalType":"uint256"}],"outputs":[{"name":"","type":"uint256","internalType":"uint256"}],"stateMutability":"view"},{"type":"function","name":"previewMint","inputs":[{"name":"shares","type":"uint256","internalType":"uint256"}],"outputs":[{"name":"","type":"uint256","internalType":"uint256"}],"stateMutability":"view"},{"type":"function","name":"previewRedeem","inputs":[{"name":"shares","type":"uint256","internalType":"uint256"}],"outputs":[{"name":"","type":"uint256","internalType":"uint256"}],"stateMutability":"view"},{"type":"function","name":"previewWithdraw","inputs":[{"name":"assets","type":"uint256","internalType":"uint256"}],"outputs":[{"name":"","type":"uint256","internalType":"uint256"}],"stateMutability":"view"},{"type":"function","name":"redeem","inputs":[{"name":"shares","type":"uint256","internalType":"uint256"},{"name":"receiver","type":"address","internalType":"address"},{"name":"owner_","type":"address","internalType":"address"}],"outputs":[{"name":"assets","type":"uint256","internalType":"uint256"}],"stateMutability":"nonpayable"},{"type":"function","name":"setOwner","inputs":[{"name":"newOwner","type":"address","internalType":"address"}],"outputs":[],"stateMutability":"nonpayable"},{"type":"function","name":"strategy","inputs":[],"outputs":[{"name":"","type":"address","internalType":"contract IStrategy"}],"stateMutability":"view"},{"type":"function","name":"symbol","inputs":[],"outputs":[{"name":"","type":"string","internalType":"string"}],"stateMutability":"view"},{"type":"function","name":"totalAssets","inputs":[],"outputs":[{"name":"","type":"uint256","internalType":"uint256"}],"stateMutability":"view"},{"type":"function","name":"totalAssetsAtLastHarvest","inputs":[],"outputs":[{"name":"","type":"uint256","internalType":"uint256"}],"stateMutability":"view"},{"type":"function","name":"totalDeposits","inputs":[],"outputs":[{"name":"","type":"uint256","internalType":"uint256"}],"stateMutability":"view"},{"type":"function","name":"totalSupply","inputs":[],"outputs":[{"name":"","type":"uint256","internalType":"uint256"}],"stateMutability":"view"},{"type":"function","name":"transfer","inputs":[{"name":"to","type":"address","internalType":"address"},{"name":"value","type":"uint256","internalType":"uint256"}],"outputs":[{"name":"","type":"bool","internalType":"bool"}],"stateMutability":"nonpayable"},{"type":"function","name":"transferFrom","inputs":[{"name":"from","type":"address","internalType":"address"},{"name":"to","type":"address","internalType":"address"},{"name":"value","type":"uint256","internalType":"uint256"}],"outputs":[{"name":"","type":"bool","internalType":"bool"}],"stateMutability":"nonpayable"},{"type":"function","name":"unpause","inputs":[],"outputs":[],"stateMutability":"nonpayable"},{"type":"function","name":"withdraw","inputs":[{"name":"assets","type":"uint256","internalType":"uint256"},{"name":"receiver","type":"address","internalType":"address"},{"name":"owner","type":"address","internalType":"address"}],"outputs":[{"name":"","type":"uint256","internalType":"uint256"}],"stateMutability":"nonpayable"},{"type":"event","name":"Approval","inputs":[{"name":"owner","type":"address","indexed":true,"internalType":"address"},{"name":"spender","type":"address","indexed":true,"internalType":"address"},{"name":"value","type":"uint256","indexed":false,"internalType":"uint256"}],"anonymous":false},{"type":"event","name":"Deposit","inputs":[{"name":"sender","type":"address","indexed":true,"internalType":"address"},{"name":"owner","type":"address","indexed":true,"internalType":"address"},{"name":"assets","type":"uint256","indexed":false,"internalType":"uint256"},{"name":"shares","type":"uint256","indexed":false,"internalType":"uint256"}],"anonymous":false},{"type":"event","name":"Harvested","inputs":[{"name":"yieldEarned","type":"uint256","indexed":false,"internalType":"uint256"},{"name":"totalAssets","type":"uint256","indexed":false,"internalType":"uint256"}],"anonymous":false},{"type":"event","name":"Paused","inputs":[],"anonymous":false},{"type":"event","name":"Transfer","inputs":[{"name":"from","type":"address","indexed":true,"internalType":"address"},{"name":"to","type":"address","indexed":true,"internalType":"address"},{"name":"value","type":"uint256","indexed":false,"internalType":"uint256"}],"anonymous":false},{"type":"event","name":"Unpaused","inputs":[],"anonymous":false},{"type":"event","name":"Withdraw","inputs":[{"name":"sender","type":"address","indexed":true,"internalType":"address"},{"name":"receiver","type":"address","indexed":true,"internalType":"address"},{"name":"owner","type":"address","indexed":true,"internalType":"address"},{"name":"assets","type":"uint256","indexed":false,"internalType":"uint256"},{"name":"shares","type":"uint256","indexed":false,"internalType":"uint256"}],"anonymous":false},{"type":"error","name":"ERC20InsufficientAllowance","inputs":[{"name":"spender","type":"address","internalType":"address"},{"name":"allowance","type":"uint256","internalType":"uint256"},{"name":"needed","type":"uint256","internalType":"uint256"}]},{"type":"error","name":"ERC20InsufficientBalance","inputs":[{"name":"sender","type":"address","internalType":"address"},{"name":"balance","type":"uint256","internalType":"uint256"},{"name":"needed","type":"uint256","internalType":"uint256"}]},{"type":"error","name":"ERC20InvalidApprover","inputs":[{"name":"approver","type":"address","internalType":"address"}]},{"type":"error","name":"ERC20InvalidReceiver","inputs":[{"name":"receiver","type":"address","internalType":"address"}]},{"type":"error","name":"ERC20InvalidSender","inputs":[{"name":"sender","type":"address","internalType":"address"}]},{"type":"error","name":"ERC20InvalidSpender","inputs":[{"name":"spender","type":"address","internalType":"address"}]},{"type":"error","name":"ERC4626ExceededMaxDeposit","inputs":[{"name":"receiver","type":"address","internalType":"address"},{"name":"assets","type":"uint256","internalType":"uint256"},{"name":"max","type":"uint256","internalType":"uint256"}]},{"type":"error","name":"ERC4626ExceededMaxMint","inputs":[{"name":"receiver","type":"address","internalType":"address"},{"name":"shares","type":"uint256","internalType":"uint256"},{"name":"max","type":"uint256","internalType":"uint256"}]},{"type":"error","name":"ERC4626ExceededMaxRedeem","inputs":[{"name":"owner","type":"address","internalType":"address"},{"name":"shares","type":"uint256","internalType":"uint256"},{"name":"max","type":"uint256","internalType":"uint256"}]},{"type":"error","name":"ERC4626ExceededMaxWithdraw","inputs":[{"name":"owner","type":"address","internalType":"address"},{"name":"assets","type":"uint256","internalType":"uint256"},{"name":"max","type":"uint256","internalType":"uint256"}]},{"type":"error","name":"ExceedsMaxBorrow","inputs":[{"name":"requested","type":"uint256","internalType":"uint256"},{"name":"max","type":"uint256","internalType":"uint256"}]},{"type":"error","name":"InvalidImplementation","inputs":[{"name":"impl","type":"address","internalType":"address"}]},{"type":"error","name":"InvalidState","inputs":[{"name":"current","type":"uint8","internalType":"uint8"},{"name":"required","type":"uint8","internalType":"uint8"}]},{"type":"error","name":"SafeERC20FailedOperation","inputs":[{"name":"token","type":"address","internalType":"address"}]},{"type":"error","name":"Unauthorized","inputs":[{"name":"caller","type":"address","internalType":"address"}]},{"type":"error","name":"ZeroAmount","inputs":[]}],"bytecode":{"object":"0x60c060409080825234620002875762001d138038038091620000228285620004b9565b8339810160c08282031262000287576200003c82620004dd565b6020916200004c838501620004dd565b92858501519260608601519460808701519660018060401b03978881116200028757856200007c918301620004f2565b9460a08201518981116200028757620000969201620004f2565b845190936001600160a01b0393841691898111620003c45760038054916001988984811c94168015620004ae575b858510146200049a578190601f9485811162000447575b508590858311600114620003e4575f92620003d8575b50505f1982841b1c191690891b1781555b8651918b8311620003c45760049788548a81811c91168015620003b9575b86821014620003a65790818386959493116200034f575b5085918411600114620002e8575f93620002dc575b505082891b925f19911b1c19161785555b89519581870163313ce56760e01b81528688528b88018881108c821117620002c9578c915f918352895190865afa5f5192888d5281620002bd575b5080620002b1575b15620002a75760ff909116905b156200029e575b60a052608052169182156200028b5750600580546001600160a01b0319908116841790915594823b1562000287575f80936024895180968193636817031b60e01b835230888401525af180156200027d5762000257575b5050506006556007553390600b541617600b5543600a55516117ac908162000567823960805181818161049801528181610743015281816108df0152610d7a015260a05181610dbe0152f35b82116200026a575084525f80806200020b565b604190634e487b7160e01b5f525260245ffd5b87513d5f823e3d90fd5b5f80fd5b82602492630c76093760e01b8352820152fd5b506012620001b4565b50505f80620001ad565b5060ff821115620001a0565b90503d10155f62000198565b604188634e487b7160e01b5f525260245ffd5b015191505f806200014c565b91908a9450601f198416928a5f52865f20935f5b888282106200033857505085116200031e575b50505050811b0185556200015d565b01519060f8845f19921b161c191690555f8080806200030f565b8385015187558e98909601959384019301620002fc565b9091929350895f52855f208380870160051c8201928888106200039c575b918d918897969594930160051c01915b8281106200038d57505062000137565b5f81558796508d91016200037d565b925081926200036d565b60228a634e487b7160e01b5f525260245ffd5b90607f169062000120565b634e487b7160e01b5f52604160045260245ffd5b015190505f80620000f1565b908b9350601f19831691855f52875f20925f5b8982821062000430575050841162000418575b505050811b01815562000102565b01515f1983861b60f8161c191690555f80806200040a565b8385015186558f97909501949384019301620003f7565b909150835f52855f208580850160051c82019288861062000490575b918d91869594930160051c01915b82811062000481575050620000db565b5f81558594508d910162000471565b9250819262000463565b634e487b7160e01b5f52602260045260245ffd5b93607f1693620000c4565b601f909101601f19168101906001600160401b03821190821017620003c457604052565b51906001600160a01b03821682036200028757565b919080601f84011215620002875782516001600160401b038111620003c457602090604051926200052d83601f19601f8501160185620004b9565b81845282828701011162000287575f5b818110620005525750825f9394955001015290565b85810183015184820184015282016200053d56fe60406080815260049081361015610014575f80fd5b5f3560e01c806301e1d114146110fb57806306fdde031461100757806307a2d13a14610fc5578063095ea7b314610f1d5780630a28a47714610eff57806313af403514610e8757806314b74d9a14610e6957806318160ddd14610e4b578063229ce65014610e2d57806323b872dd14610df1578063313ce56714610da957806338d52e0f14610d665780633f4ba83a14610d0f578063402d267d1461030c5780634641257d14610b6a5780634cdad50614610b4c5780635c975abb14610b265780636e553f651461088257806370a08231146102425780637d882097146108645780638456cb59146107f05780638da5cb5b146107c85780638fbcd32f146107aa57806394bf804d1461070957806395d89b4114610607578063a8c62e76146105df578063a9059cbb146105af578063b3d7f6b914610591578063b460af9414610437578063ba08765214610311578063c63d75b61461030c578063c6e6f592146102a4578063ce96cb771461027c578063d905777e14610242578063dbd5edc714610224578063dd62ed3e146101db5763ef8b30f7146101b3575f80fd5b346101d75760203660031901126101d7576101d060209235611314565b9051908152f35b5f80fd5b50346101d757806003193601126101d7576020906101f761115e565b6101ff611174565b9060018060a01b038091165f5260018452825f2091165f528252805f20549051908152f35b50346101d7575f3660031901126101d7576020906007549051908152f35b50346101d75760203660031901126101d7576020906101d061026261115e565b6001600160a01b03165f9081526020819052604090205490565b50346101d75760203660031901126101d7576020906101d061029f61026261115e565b6112dc565b50346101d75760203660031901126101d757600254600181018091116102f9576102cc61121a565b90600182018092116102e657906101d091602094356116dd565b601184634e487b7160e01b5f525260245ffd5b601183634e487b7160e01b5f525260245ffd5b61118a565b5090346101d757610321366111af565b908294921561042857846103355f966112dc565b946001600160a01b0384811694610355908490338890036104185761161e565b80600554169387875193627b8a6760e11b855284015216928360248301528160448160209a8b945af1801561040e579087916103e5575b505060085485116103dc576103a38560085461128a565b6008555b835190858252868201527ffbde797d201c681b91056529119e0b02407c7bb96a4a2c75c01fc9667232c8db843392a451908152f35b5f6008556103a7565b813d8311610407575b6103f881836111e4565b810103126101d757855f61038c565b503d6103ee565b85513d5f823e3d90fd5b610423823383611391565b61161e565b505051631f2a200560e01b8152fd5b50346101d757610446366111af565b9061046761029f8395949560018060a01b03165f525f60205260405f205490565b80851161055c575061047884611366565b9360018060a01b039161049586848616958633036104185761161e565b827f0000000000000000000000000000000000000000000000000000000000000000169285519163a9059cbb60e01b5f5216928388528260245260205f60448180855af160015f511481161561053d575b8287521561052957505060209550835190815284868201527ffbde797d201c681b91056529119e0b02407c7bb96a4a2c75c01fc9667232c8db843392a451908152f35b635274afe760e01b82528188015260249150fd5b600181151661055357813b15153d1516166104e6565b823d5f823e3d90fd5b8351633fa733bb60e21b81526001600160a01b0384168188019081526020810187905260408101929092529081906060010390fd5b50346101d75760203660031901126101d7576101d06020923561133b565b50346101d757806003193601126101d7576020906105d86105ce61115e565b602435903361145e565b5160018152f35b50346101d7575f3660031901126101d75760055490516001600160a01b039091168152602090f35b50346101d7575f3660031901126101d7578051905f9280549060018260011c91600184169384156106ff575b60209485851081146106ec578488529081156106ca5750600114610671575b61066d8686610663828b03836111e4565b5191829182611117565b0390f35b5f9081529295507f8a35acfbc15ff81a39ae7d344fd709f28e8600b4aa8c65c6b64bfe7fe36bd19b5b8284106106b7575050508261066d9461066392820101945f610652565b805486850188015292860192810161069a565b60ff191687860152505050151560051b83010192506106638261066d5f610652565b602283634e487b7160e01b5f525260245ffd5b92607f1692610633565b50346101d757806003193601126101d7576020913590610727611174565b916107318161133b565b926001600160a01b03906107698530337f00000000000000000000000000000000000000000000000000000000000000008616611538565b61077383826115c1565b8351928584528684015216907fdcbc1c05240f31ff3ad067ef1ee35ce4997762752e3a095284754544f4c709d7833392a351908152f35b50346101d7575f3660031901126101d7576020906006549051908152f35b50346101d7575f3660031901126101d757600b5490516001600160a01b039091168152602090f35b5090346101d7575f3660031901126101d757600b54916001600160a01b038316330361084d5760ff60a01b198316600160a01b17600b557f9e87fac88ff661f02d44f95383c817fece4bce600a3dab7a54406878b965e7525f80a1005b60249250519063472511eb60e11b82523390820152fd5b50346101d7575f3660031901126101d7576020906008549051908152f35b50346101d757806003193601126101d75781359061089e611174565b9160ff600b5460a01c16610b09578015610af9576008546108bf8282611307565b90600754809211610ad45750506108d581611314565b6001600160a01b037f0000000000000000000000000000000000000000000000000000000000000000811695919490916109118430338a611538565b826005541685519763095ea7b360e01b91825f52808452602499878b5260205f60448180875af160015f5114811615610ac7575b818a5215610a14575b50505050826005541690813b156101d7575f80928988518095819363b6b55f2560e01b83528a878401525af18015610a0a576109db575b50506020955061099585826115c1565b6109a183600854611307565b6008558351928352848684015216907fdcbc1c05240f31ff3ad067ef1ee35ce4997762752e3a095284754544f4c709d7833392a351908152f35b67ffffffffffffffff82116109f857506020965084525f80610985565b60418891634e487b7160e01b5f52525ffd5b86513d5f823e3d90fd5b835f528185525f8b5260205f60448180875af160015f5114811615610aa8575b818a5215610a9457508751925f52835285895260205f60448180855af160015f5114811615610a7e575b82885215610a6d57808061094e565b8892635274afe760e01b8352820152fd5b600181151661055357813b15153d151616610a5e565b635274afe760e01b81528481018390528a90fd5b6001811516610abe57833b15153d151616610a34565b503d5f823e3d90fd5b833b15153d151616610945565b92610ae28693604495611307565b9051630760af8760e01b8152928301526024820152fd5b8151631f2a200560e01b81528490fd5b8151633bf2e2f960e11b81526001818601525f6024820152604490fd5b50346101d7575f3660031901126101d75760209060ff600b5460a01c1690519015158152f35b50346101d75760203660031901126101d7576101d0602092356112dc565b50346101d7575f3660031901126101d75760055481516278744560e21b8082526020945f9493909291906001600160a01b0390811687848681845afa938415610a0a579088915f95610cde575b50905f9186885180948193634641257d60e01b83525af18015610a0a579088939291610cb2575b50600554169385518095819382525afa918215610ca8575f92610c79575b50808211610c3e575b50817ffa07446fad45314351eb89109a154880278451332bb87f1824d435fe58da59399143600a5581519085825286820152a151908152f35b819350610c6d83917ffa07446fad45314351eb89109a154880278451332bb87f1824d435fe58da59399361128a565b93806009559150610c05565b9091508481813d8311610ca1575b610c9181836111e4565b810103126101d75751905f610bfc565b503d610c87565b83513d5f823e3d90fd5b8391933d8311610cd7575b610cc781836111e4565b810103126101d75786915f610bde565b503d610cbd565b8281939296503d8311610d08575b610cf681836111e4565b810103126101d757519287905f610bb7565b503d610cec565b5090346101d7575f3660031901126101d757600b54916001600160a01b038316330361084d5760ff60a01b198316600b557fa45f47fdea8a1efdd9029a5691c7f759c32b7c698632b563573e155625d169335f80a1005b50346101d7575f3660031901126101d757517f00000000000000000000000000000000000000000000000000000000000000006001600160a01b03168152602090f35b50346101d7575f3660031901126101d75760ff7f0000000000000000000000000000000000000000000000000000000000000000169060ff82116102f9576020925051908152f35b50346101d75760603660031901126101d7576020906105d8610e1161115e565b610e19611174565b60443591610e28833383611391565b61145e565b50346101d7575f3660031901126101d7576020906009549051908152f35b50346101d7575f3660031901126101d7576020906002549051908152f35b50346101d7575f3660031901126101d757602090600a549051908152f35b5090346101d75760203660031901126101d757610ea261115e565b600b5491906001600160a01b03908184163303610ee95716928315610ed35750506001600160a01b03191617600b55005b51630c76093760e01b8152908101839052602490fd5b845163472511eb60e11b81523381850152602490fd5b50346101d75760203660031901126101d7576101d060209235611366565b50346101d757806003193601126101d757610f3661115e565b602435903315610faf576001600160a01b0316908115610f995760209350335f5260018452825f20825f52845280835f205582519081527f8c5be1e5ebec7d5bd14f71427d1e84f3dd0314c0f7b2291e5b200ac8c7c3b925843392a35160018152f35b8251634a1406b160e11b81525f81860152602490fd5b825163e602df0560e01b81525f81860152602490fd5b50346101d75760203660031901126101d757610fdf61121a565b600181018091116102f95760025490600182018092116102e657906101d091602094356116dd565b50346101d7575f3660031901126101d7578051905f9260035460018160011c916001811680156110f1575b60209485851082146110de57508387529081156110be5750600114611064575b5050506106638261066d9403836111e4565b60035f9081529295507fc2575a0e9e593c00f959f8c92f12db2869c3395a3b0502d05e2516446f71f85b5b8284106110ab575050508261066d946106639282010194611052565b805486850188015292860192810161108f565b60ff1916868501525050151560051b83010192506106638261066d611052565b602290634e487b7160e01b5f525260245ffd5b92607f1692611032565b50346101d7575f3660031901126101d7576020906101d061121a565b602080825282518183018190529093925f5b82811061114a57505060409293505f838284010152601f8019910116010190565b818101860151848201604001528501611129565b600435906001600160a01b03821682036101d757565b602435906001600160a01b03821682036101d757565b346101d75760203660031901126101d7576111a361115e565b5060206040515f198152f35b60609060031901126101d757600435906001600160a01b039060243582811681036101d7579160443590811681036101d75790565b90601f8019910116810190811067ffffffffffffffff82111761120657604052565b634e487b7160e01b5f52604160045260245ffd5b6005546040516278744560e21b815290602090829060049082906001600160a01b03165afa90811561127f575f91611250575090565b90506020813d602011611277575b8161126b602093836111e4565b810103126101d7575190565b3d915061125e565b6040513d5f823e3d90fd5b9190820391821161129757565b634e487b7160e01b5f52601160045260245ffd5b8181029291811591840414171561129757565b81156112c8570490565b634e487b7160e01b5f52601260045260245ffd5b600254806112ea5750505f90565b6112ff611304926112f961121a565b906112ab565b6112be565b90565b9190820180921161129757565b60025480611320575090565b61132d90611304926112ab565b61133561121a565b906112be565b61134361121a565b6001810180911161129757600254906001820180921161129757611304926116bd565b600254600181018091116112975761137c61121a565b906001820180921161129757611304926116bd565b919060018060a01b0380931692835f526001602052604093845f2091831691825f52602052845f2054925f1984106113cc575b505050505050565b84841061142e57508015611417578115611400575f526001602052835f20905f5260205203905f20555f80808080806113c4565b8451634a1406b160e11b81525f6004820152602490fd5b845163e602df0560e01b81525f6004820152602490fd5b8551637dc7a0d960e11b81526001600160a01b039190911660048201526024810184905260448101859052606490fd5b916001600160a01b03808416928315611520571692831561150857825f525f60205260405f2054908282106114d65750817fddf252ad1be2c89b69c2b068fc378daa952ba7f163c4a11628f55a4df523b3ef92602092855f525f84520360405f2055845f5260405f20818154019055604051908152a3565b60405163391434e360e21b81526001600160a01b03919091166004820152602481019190915260448101829052606490fd5b60405163ec442f0560e01b81525f6004820152602490fd5b604051634b637e8f60e11b81525f6004820152602490fd5b6040516323b872dd60e01b5f9081526001600160a01b03938416600452938316602452604494909452909160209060648180855af160015f51148116156115a2575b836040525f6060521561158c57505050565b635274afe760e01b835216600482015260249150fd5b60018115166115b857813b15153d15161661157a565b833d5f823e3d90fd5b6001600160a01b0316908115611508577fddf252ad1be2c89b69c2b068fc378daa952ba7f163c4a11628f55a4df523b3ef6020826116025f94600254611307565b60025584845283825260408420818154019055604051908152a3565b91906001600160a01b03831690811561152057815f525f60205260405f20549381851061168b57506020817fddf252ad1be2c89b69c2b068fc378daa952ba7f163c4a11628f55a4df523b3ef925f95968587528684520360408620558060025403600255604051908152a3565b60405163391434e360e21b81526001600160a01b03919091166004820152602481018590526044810191909152606490fd5b916116c98183856116dd565b9181156112c8576113049309151590611307565b90915f19838309928083029283808610950394808603951461176957848311156117515790829109815f038216809204600280826003021880830282030280830282030280830282030280830282030280830282030280920290030293600183805f03040190848311900302920304170290565b82634e487b715f52156003026011186020526024601cfd5b50509061130492506112be56fea2646970667358221220680e8ff7dfc517555f815dad46fe41f29804897fca64bbff13537257b25701c064736f6c63430008180033","linkReferences":{}},"methodIdentifiers":{"allowance(address,address)":"dd62ed3e","approve(address,uint256)":"095ea7b3","asset()":"38d52e0f","balanceOf(address)":"70a08231","convertToAssets(uint256)":"07a2d13a","convertToShares(uint256)":"c6e6f592","decimals()":"313ce567","deposit(uint256,address)":"6e553f65","depositCap()":"dbd5edc7","harvest()":"4641257d","lastHarvestBlock()":"14b74d9a","ltvRatio()":"8fbcd32f","maxDeposit(address)":"402d267d","maxMint(address)":"c63d75b6","maxRedeem(address)":"d905777e","maxWithdraw(address)":"ce96cb77","mint(uint256,address)":"94bf804d","name()":"06fdde03","owner()":"8da5cb5b","pause()":"8456cb59","paused()":"5c975abb","previewDeposit(uint256)":"ef8b30f7","previewMint(uint256)":"b3d7f6b9","previewRedeem(uint256)":"4cdad506","previewWithdraw(uint256)":"0a28a477","redeem(uint256,address,address)":"ba087652","setOwner(address)":"13af4035","strategy()":"a8c62e76","symbol()":"95d89b41","totalAssets()":"01e1d114","totalAssetsAtLastHarvest()":"229ce650","totalDeposits()":"7d882097","totalSupply()":"18160ddd","transfer(address,uint256)":"a9059cbb","transferFrom(address,address,uint256)":"23b872dd","unpause()":"3f4ba83a","withdraw(uint256,address,address)":"b460af94"},"id":27}