{"abi":[{"type":"constructor","inputs":[{"name":"_vaultRegistry","type":"address","internalType":"address"},{"name":"_debtManager","type":"address","internalType":"address"}],"stateMutability":"nonpayable"},{"type":"function","name":"accumulatedCredit","inputs":[],"outputs":[{"name":"","type":"uint256","internalType":"uint256"}],"stateMutability":"view"},{"type":"function","name":"borrow","inputs":[{"name":"amount","type":"uint256","internalType":"uint256"},{"name":"_debtToken","type":"address","internalType":"address"}],"outputs":[],"stateMutability":"nonpayable"},{"type":"function","name":"claimCredit","inputs":[{"name":"amount","type":"uint256","internalType":"uint256"}],"outputs":[],"stateMutability":"nonpayable"},{"type":"function","name":"currentState","inputs":[],"outputs":[{"name":"","type":"uint8","internalType":"enum OrbitAccount.State"}],"stateMutability":"view"},{"type":"function","name":"debtManager","inputs":[],"outputs":[{"name":"","type":"address","internalType":"address"}],"stateMutability":"view"},{"type":"function","name":"debtToken","inputs":[],"outputs":[{"name":"","type":"address","internalType":"address"}],"stateMutability":"view"},{"type":"function","name":"deposit","inputs":[{"name":"amount","type":"uint256","internalType":"uint256"},{"name":"asset","type":"address","internalType":"address"}],"outputs":[],"stateMutability":"nonpayable"},{"type":"function","name":"deposits","inputs":[{"name":"asset","type":"address","internalType":"address"}],"outputs":[{"name":"amount","type":"uint256","internalType":"uint256"}],"stateMutability":"view"},{"type":"function","name":"getDepositedAssets","inputs":[],"outputs":[{"name":"","type":"address[]","internalType":"address[]"}],"stateMutability":"view"},{"type":"function","name":"initialize","inputs":[{"name":"_owner","type":"address","internalType":"address"},{"name":"_vaultRegistry","type":"address","internalType":"address"},{"name":"_debtManager","type":"address","internalType":"address"},{"name":"_yieldRouter","type":"address","internalType":"address"}],"outputs":[],"stateMutability":"nonpayable"},{"type":"function","name":"lastSyncedValue","inputs":[{"name":"asset","type":"address","internalType":"address"}],"outputs":[{"name":"value","type":"uint256","internalType":"uint256"}],"stateMutability":"view"},{"type":"function","name":"lastUpdateBlock","inputs":[],"outputs":[{"name":"","type":"uint256","internalType":"uint256"}],"stateMutability":"view"},{"type":"function","name":"liquidate","inputs":[{"name":"debtAmount","type":"uint256","internalType":"uint256"},{"name":"asset","type":"address","internalType":"address"},{"name":"maxCollateralIn","type":"uint256","internalType":"uint256"}],"outputs":[],"stateMutability":"nonpayable"},{"type":"function","name":"maxBorrowableAmount","inputs":[{"name":"_debtToken","type":"address","internalType":"address"}],"outputs":[{"name":"","type":"uint256","internalType":"uint256"}],"stateMutability":"view"},{"type":"function","name":"maxBorrowableAmount","inputs":[],"outputs":[{"name":"","type":"uint256","internalType":"uint256"}],"stateMutability":"view"},{"type":"function","name":"owner","inputs":[],"outputs":[{"name":"","type":"address","internalType":"address"}],"stateMutability":"view"},{"type":"function","name":"repay","inputs":[{"name":"amount","type":"uint256","internalType":"uint256"}],"outputs":[],"stateMutability":"nonpayable"},{"type":"function","name":"strategyShares","inputs":[{"name":"asset","type":"address","internalType":"address"}],"outputs":[{"name":"shares","type":"uint256","internalType":"uint256"}],"stateMutability":"view"},{"type":"function","name":"sync","inputs":[],"outputs":[],"stateMutability":"nonpayable"},{"type":"function","name":"totalBorrowsAllTime","inputs":[],"outputs":[{"name":"","type":"uint256","internalType":"uint256"}],"stateMutability":"view"},{"type":"function","name":"totalDebt","inputs":[],"outputs":[{"name":"","type":"uint256","internalType":"uint256"}],"stateMutability":"view"},{"type":"function","name":"totalDepositsAllTime","inputs":[],"outputs":[{"name":"","type":"uint256","internalType":"uint256"}],"stateMutability":"view"},{"type":"function","name":"totalRepaymentsAllTime","inputs":[],"outputs":[{"name":"","type":"uint256","internalType":"uint256"}],"stateMutability":"view"},{"type":"function","name":"vaultRegistry","inputs":[],"outputs":[{"name":"","type":"address","internalType":"address"}],"stateMutability":"view"},{"type":"function","name":"withdraw","inputs":[{"name":"amount","type":"uint256","internalType":"uint256"},{"name":"asset","type":"address","internalType":"address"}],"outputs":[],"stateMutability":"nonpayable"},{"type":"function","name":"withdrawableCollateral","inputs":[{"name":"asset","type":"address","internalType":"address"}],"outputs":[{"name":"","type":"uint256","internalType":"uint256"}],"stateMutability":"view"},{"type":"event","name":"Borrowed","inputs":[{"name":"amount","type":"uint256","indexed":false,"internalType":"uint256"},{"name":"totalDebt","type":"uint256","indexed":false,"internalType":"uint256"}],"anonymous":false},{"type":"event","name":"CreditAccrued","inputs":[{"name":"amount","type":"uint256","indexed":false,"internalType":"uint256"},{"name":"totalCredit","type":"uint256","indexed":false,"internalType":"uint256"}],"anonymous":false},{"type":"event","name":"CreditClaimed","inputs":[{"name":"amount","type":"uint256","indexed":false,"internalType":"uint256"},{"name":"remainingCredit","type":"uint256","indexed":false,"internalType":"uint256"}],"anonymous":false},{"type":"event","name":"DebtRepaid","inputs":[{"name":"amount","type":"uint256","indexed":false,"internalType":"uint256"},{"name":"remainingDebt","type":"uint256","indexed":false,"internalType":"uint256"}],"anonymous":false},{"type":"event","name":"Deposit","inputs":[{"name":"asset","type":"address","indexed":true,"internalType":"address"},{"name":"amount","type":"uint256","indexed":false,"internalType":"uint256"},{"name":"shares","type":"uint256","indexed":false,"internalType":"uint256"}],"anonymous":false},{"type":"event","name":"Repaid","inputs":[{"name":"amount","type":"uint256","indexed":false,"internalType":"uint256"},{"name":"remainingDebt","type":"uint256","indexed":false,"internalType":"uint256"}],"anonymous":false},{"type":"event","name":"SelfLiquidated","inputs":[{"name":"asset","type":"address","indexed":true,"internalType":"address"},{"name":"collateralUsed","type":"uint256","indexed":false,"internalType":"uint256"},{"name":"debtRepaid","type":"uint256","indexed":false,"internalType":"uint256"}],"anonymous":false},{"type":"event","name":"Withdrawal","inputs":[{"name":"asset","type":"address","indexed":true,"internalType":"address"},{"name":"amount","type":"uint256","indexed":false,"internalType":"uint256"},{"name":"remaining","type":"uint256","indexed":false,"internalType":"uint256"}],"anonymous":false},{"type":"error","name":"AccountAlreadyExists","inputs":[{"name":"user","type":"address","internalType":"address"},{"name":"account","type":"address","internalType":"address"}]},{"type":"error","name":"ExceedsMaxBorrow","inputs":[{"name":"requested","type":"uint256","internalType":"uint256"},{"name":"max","type":"uint256","internalType":"uint256"}]},{"type":"error","name":"InsufficientCollateral","inputs":[{"name":"required","type":"uint256","internalType":"uint256"},{"name":"available","type":"uint256","internalType":"uint256"}]},{"type":"error","name":"InvalidImplementation","inputs":[{"name":"impl","type":"address","internalType":"address"}]},{"type":"error","name":"InvalidState","inputs":[{"name":"current","type":"uint8","internalType":"uint8"},{"name":"required","type":"uint8","internalType":"uint8"}]},{"type":"error","name":"ReentrancyGuardReentrantCall","inputs":[]},{"type":"error","name":"SafeERC20FailedOperation","inputs":[{"name":"token","type":"address","internalType":"address"}]},{"type":"error","name":"Unauthorized","inputs":[{"name":"caller","type":"address","internalType":"address"}]},{"type":"error","name":"ZeroAmount","inputs":[]}],"bytecode":{"object":"0x60c0346200013a57601f62002a4238819003918201601f19168301916001600160401b038311848410176200013e5780849260409485528339810103126200013a576200005a6020620000528362000152565b920162000152565b60017f9b779b17422d0df92223018b32b4d1fa46e071723d6817e2486d003becc55f0055906001600160a01b03808216159081156200012e575b50620001165760805260a0526040516128da9081620001688239608051818181610275015281816104bf015281816105f001528181610a4e015281816113a401528181611a9201528181611ba701528181611d6301526122c4015260a0518181816102e9015281816103a601528181610df901528181610ee501526110b70152f35b604051630c76093760e01b81525f6004820152602490fd5b90508216155f62000094565b5f80fd5b634e487b7160e01b5f52604160045260245ffd5b51906001600160a01b03821682036200013a5756fe608060409080825260049182361015610016575f80fd5b5f925f3560e01c928362f714ce14611325575082630890a830146112ee5782630c3f6acf146112b057826311e95e631461128b57826319c92cc31461126d57826328117060146112075782632c792e09146111e9578263371fd8e6146110595782634b3fd14814610e455782634bb2dcea14610e2857826360b3a03314610de4578263696240ee14610dac5782636e553f65146109e157826379bd1eac14610581578263836bfa18146105545782638da5cb5b1461052c5782639309f7901461050d578263a218141b146104ee578263cdd7b38a146104aa578263dc8de29b14610352578263df29410e14610333578263f8c8765e14610221578263f8d89898146101f457508163fc7b9c18146101d5578163fc7e286d14610199575063fff6cae914610141575f80fd5b34610196578060031936011261019657610159611b82565b610161611935565b90805b82518110156101925760019061018c6001600160a01b036101858387611a25565b5116611a68565b01610164565b5080f35b80fd5b9050346101d15760203660031901126101d15760209181906001600160a01b036101c1611864565b1681526001845220549051908152f35b5080fd5b9050346101d157816003193601126101d1576020906003549051908152f35b9091503461021d578260031936011261021d575490516001600160a01b03909116815260209150f35b8280fd5b91503461021d57608036600319011261021d5761023c611864565b61024461184e565b926001600160a01b03926044358481169081900361032f576064358581160361032f578654958587166103115785167f0000000000000000000000000000000000000000000000000000000000000000861614801591906102e4575b506102ce57505016906bffffffffffffffffffffffff60a01b1617815560ff19600d5416600d554360065580f35b51630c76093760e01b8152908101859052602490fd5b9050847f00000000000000000000000000000000000000000000000000000000000000001614155f6102a0565b505092604493519262411dbd60e61b84521690820152306024820152fd5b5f80fd5b8382346101d157816003193601126101d157602090600b549051908152f35b91503461021d57602036600319011261021d578254823592906001600160a01b03908116330361049357610384611a39565b83156104845760055480851161046857906103a185879493611928565b6005557f000000000000000000000000000000000000000000000000000000000000000016803b1561021d5783516340c10f1960e01b81523392810192835260208301869052918391839182908490829060400103925af1801561045e5761044a575b50507f89ba5fbbd7b4433f65b4431658fce6f80a5cdf1b011d3722998d2a860b954eed9160055482519182526020820152a160015f805160206128858339815191525580f35b6104539061187a565b61021d57825f610404565b83513d84823e3d90fd5b9050836044935192632c1f8ef160e21b84528301526024820152fd5b509051631f2a200560e01b8152fd5b50602491519063472511eb60e11b82523390820152fd5b8382346101d157816003193601126101d157517f00000000000000000000000000000000000000000000000000000000000000006001600160a01b03168152602090f35b8382346101d157816003193601126101d1576020906006549051908152f35b8382346101d157816003193601126101d157602090600c549051908152f35b8382346101d157816003193601126101d157905490516001600160a01b039091168152602090f35b8382346101d15760203660031901126101d15760209061057a610575611864565b611d4a565b9051908152f35b8390346101d15760603660031901126101d15780359261059f61184e565b83546001600160a01b0395604435929091871633036109cb576105c0611a39565b81156109bb5760035480831161099f57506105da81611a68565b6105e2611b82565b8351632630c12f60e01b81527f00000000000000000000000000000000000000000000000000000000000000008816976020929091838189818d5afa908115610995579083918a91610978575b5016968281541687519283916341976e0960e01b908184528484015286838c60249788915afa92831561096e57918588928895948f95610937575b508c5195869384928352169d8e888301525afa91821561092d578b926108fc575b506106a290670de0b6b3a7640000918291896118e3565b04612774908181029181830414901517156108ea5761271090048181029181830414901517156108d857906106d69161190a565b958087116108bf575087895260018452868920548087116108a6575083899a889a999a51938480926301d735e760e31b82528d868301525afa91821561089c579161077e939185938a9261086d575b508a8a526002845261074c8a6107478a8c808420549360018a522054926118e3565b61190a565b8951635d043b2960e11b815291820181815230602082018190526040820152909a919586948593929091849160600190565b0393165af1801561086357610839575b507f85f4cc604fa82127d4828930703e410a21f7b0e00c81d732a150b679d6522c05946107bd83600354611928565b600355868852600182528488206107d5858254611928565b9055868852600282526107ec858920918254611928565b90558587526001815283872054600982528488205560035415610827575b8351928352820152a260015f805160206128858339815191525580f35b600360ff19600d541617600d5561080a565b8190813d831161085c575b61084e81836118a2565b8101031261032f578761078e565b503d610844565b85513d8a823e3d90fd5b61088e919250843d8611610895575b61088681836118a2565b8101906118c4565b908c610725565b503d61087c565b87513d8a823e3d90fd5b60449287895193632c1f8ef160e21b8552840152820152fd5b60449287895193630760af8760e01b8552840152820152fd5b634e487b7160e01b8b5260118352838bfd5b634e487b7160e01b8c5260118452848cfd5b9091508581813d8311610926575b61091481836118a2565b8101031261032f5751906106a261068b565b503d61090a565b89513d8d823e3d90fd5b9392955093505081813d8311610967575b61095281836118a2565b8101031261032f57859285889251935f61066a565b503d610948565b8a513d8e823e3d90fd5b61098f9150853d87116108955761088681836118a2565b8b61062f565b87513d8b823e3d90fd5b8560449184875192632c1f8ef160e21b84528301526024820152fd5b50505051631f2a200560e01b8152fd5b835163472511eb60e11b81523381870152602490fd5b8382346101d157806003193601126101d1578235926109fe61184e565b83546001600160a01b03959193919086163303610d9657610a1d611a39565b8015610d8857610a2b611b82565b8151956301d735e760e31b875280851693848189015260209160249883818b81857f0000000000000000000000000000000000000000000000000000000000000000165afa908115610d7e578991610d61575b5016958615610d4b5790879291610a978530338a612514565b8684526008835260ff868520541615610cd8575b5084519663095ea7b360e01b805f52818352858b52835f604481808c5af1986001998a5f5114811615610ccb575b81895215610c10575b5050829060448b88519687938492636e553f6560e01b84528a8885015230908401525af1928315610863578893610be1575b50858852868252848820610b298582546119ac565b905585885260028252848820610b408482546119ac565b9055610b4e84600a546119ac565b600a55858852868252848820546009835285892055600d549860ff8a16916005831015610bd0575050958097987f90890809c654f11d6e72a28fa60149770a0d11ec6c92319d6ceb2bb0a4ea1a15969715610bc1575b50508351928352820152a25f805160206128858339815191525580f35b60ff191617600d558689610ba4565b634e487b7160e01b8a526021905288fd5b9092508181813d8311610c09575b610bf981836118a2565b8101031261032f57519189610b14565b503d610bef565b909192939450815f528284525f8b52845f604481808c5af1895f5114811615610cb6575b81885215610ca257508551905f52818352848a52835f604481808b5af1885f5114811615610c84575b81875215610c7057908189949392610ae2565b635274afe760e01b81528281018790528990fd5b88811516610c9957873b15153d151616610c5d565b503d5f823e3d90fd5b635274afe760e01b81528381018890528a90fd5b89811516610c9957883b15153d151616610c34565b893b15153d151616610ad9565b60075468010000000000000000811015610d395790610d00826001610d1e94016007556119dc565b90919060018060a01b038084549260031b9316831b921b1916179055565b85835260088252848320805460ff1916600117905589610aab565b634e487b7160e01b8552604183528a85fd5b8451630c76093760e01b81528083018890528990fd5b610d789150843d86116108955761088681836118a2565b8a610a7e565b86513d8b823e3d90fd5b5051631f2a200560e01b8152fd5b815163472511eb60e11b81523381850152602490fd5b8382346101d15760203660031901126101d15760209181906001600160a01b03610dd4611864565b1681526002845220549051908152f35b8382346101d157816003193601126101d157517f00000000000000000000000000000000000000000000000000000000000000006001600160a01b03168152602090f35b8382346101d157816003193601126101d15760209061057a6119b9565b8382346101d157806003193601126101d1578235610e6161184e565b83546001600160a01b0391908216330361104357610e7d611a39565b821561103357610e8b611b82565b610e9481612298565b90610ea1846003546119ac565b9180831161101757508287549181831680155f14610ff1575016906bffffffffffffffffffffffff60a01b161786555b600355610ee082600b546119ac565b600b557f000000000000000000000000000000000000000000000000000000000000000016803b15610fed5782516340c10f1960e01b815233868201908152602081018490529091859183919082908490829060400103925af18015610fe057908491610fcc575b5050600d5460ff81166005811015610fb9577f14a13f958d7fe38fb8529e8d43353b6d9120f52444e486a4077f68a3fc77dcbf949550600114610fa9575b5060035482519182526020820152a160015f805160206128858339815191525580f35b60ff1916600217600d5584610f86565b634e487b7160e01b855260218652602485fd5b610fd59061187a565b61021d578285610f48565b50505051903d90823e3d90fd5b8380fd5b92501614610ed1578351633bf2e2f960e11b815260018188015260248101869052604490fd5b8760449184885192630760af8760e01b84528301526024820152fd5b8351631f2a200560e01b81528690fd5b835163472511eb60e11b81523381880152602490fd5b83823461032f57602036600319011261032f575f54833593906001600160a01b0390811633036104935761108b611a39565b8415610484576003548086116111cd57506110a4611b82565b6110b5858284541630903390612514565b7f000000000000000000000000000000000000000000000000000000000000000016803b1561032f578251632770a7eb60e21b81523092810192835260208301869052915f91839182908490829060400103925af180156111c357611190575b50826111457f81472a96709c8315c82af40d41ef624a642ad53864b097e53af675593bb4e0359394600354611928565b8060035561115582600c546119ac565b600c55801561117e575b82519182526020820152a160015f805160206128858339815191525580f35b600360ff19600d541617600d5561115f565b7f81472a96709c8315c82af40d41ef624a642ad53864b097e53af675593bb4e03592506111bc9061187a565b5f91611115565b82513d5f823e3d90fd5b9050846044935192632c1f8ef160e21b84528301526024820152fd5b503461032f575f36600319011261032f57602090600a549051908152f35b503461032f575f36600319011261032f57611220611935565b908051918291602090602080850191818652845180935285019301915f5b82811061124d57505050500390f35b83516001600160a01b03168552869550938101939281019260010161123e565b503461032f575f36600319011261032f576020906005549051908152f35b503461032f57602036600319011261032f5760209061057a6112ab611864565b612298565b903461032f575f36600319011261032f5760ff600d541690519060058110156112db57602092508152f35b602183634e487b7160e01b5f525260245ffd5b503461032f57602036600319011261032f576020906001600160a01b03611313611864565b165f5260098252805f20549051908152f35b903461032f578260031936011261032f5780359261134161184e565b5f5490946001600160a01b039490918516330361183a5750611361611a39565b8015610d885761137085611a68565b611378611b82565b61138185611d4a565b80821161181f575081516301d735e760e31b8152858516818501819052936020917f000000000000000000000000000000000000000000000000000000000000000087169060249084818381865afa9081156116a9579089915f91611802575b50169889156117ed57875f5260028552865f2054998a156117dd57885f5260019a8b8752885f205480156117ad578881811061179a575050905b88516370a0823160e01b80825230888301529091888387818f5afa9283156116795790888c8b935f96611763575b5051635d043b2960e11b815290810186815230602082018190526040820152909291839182905f9082906060015b03925af18015611679579189918d9493611735575b50868c51809581938252308c8301525afa801561172b575f906116fc575b6114b49250611928565b96895f528b87526114c9895f20918254611928565b9055885f52600286526114e0885f20918254611928565b9055865163a9059cbb60e01b5f52338552868352855f604481808d5af18b5f51148116156116e7575b818952156116d35750875f52898552865f205415806116c2575b6116b3575b5082845f93885192838092632630c12f60e01b82525afa9081156116a9579089915f9161168c575b5016905f91600754995b8a84106115c657505050507fdf273cb619d95419a9cd0ec88123a0538c85064229baa6363788f743fff90deb959650156115b5575b50845f52858152825f2054908351928352820152a25f8051602061288583398151915255005b60ff19600d541617600d558661158f565b90919293816115d4866119dc565b90549060031b1c1690815f528c8852895f2054918d831561168357508a51906341976e0960e01b82528882015288818781885afa90811561167957908e92915f91611644575b50611632670de0b6b3a76400009161163994956118e3565b04906119ac565b945b0192919061155a565b8093508a8092503d8311611672575b61165d81836118a2565b8101031261032f5790518d919061163261161a565b503d611653565b8b513d5f823e3d90fd5b9250509461163b565b6116a39150863d88116108955761088681836118a2565b8b611550565b87513d5f823e3d90fd5b6116bc906121b6565b89611528565b506008855260ff875f205416611523565b635274afe760e01b81528481018990529050fd5b8b811516610c9957893b15153d151616611509565b508782813d8311611724575b61171281836118a2565b8101031261032f576114b491516114aa565b503d611708565b8a513d5f823e3d90fd5b909350813d831161175c575b61174b81836118a2565b8101031261032f57878b928f61148c565b503d611741565b93929550505081813d8311611793575b61177d81836118a2565b8101031261032f5751918890888c611477611449565b503d611773565b610747906117a7936118e3565b9061141b565b895162461bcd60e51b8152808801899052600b818701526a4e6f206465706f7369747360a81b6044820152606490fd5b8751631f2a200560e01b81528590fd5b508551630c76093760e01b81528084018a9052fd5b6118199150863d88116108955761088681836118a2565b8b6113e1565b9151632c1f8ef160e21b815292830152602482015260449150fd5b63472511eb60e11b81523384820152602490fd5b602435906001600160a01b038216820361032f57565b600435906001600160a01b038216820361032f57565b67ffffffffffffffff811161188e57604052565b634e487b7160e01b5f52604160045260245ffd5b90601f8019910116810190811067ffffffffffffffff82111761188e57604052565b9081602091031261032f57516001600160a01b038116810361032f5790565b818102929181159184041417156118f657565b634e487b7160e01b5f52601160045260245ffd5b8115611914570490565b634e487b7160e01b5f52601260045260245ffd5b919082039182116118f657565b6040519060075480835282602091602082019060075f527fa66cc928b5edb82af9bd49922954155ab7b0942694bea4ce44661d9a8736c688935f905b82821061198957505050611987925003836118a2565b565b85546001600160a01b031684526001958601958895509381019390910190611971565b919082018092116118f657565b6004546001600160a01b031680156119d7576119d490612298565b90565b505f90565b600754811015611a115760075f527fa66cc928b5edb82af9bd49922954155ab7b0942694bea4ce44661d9a8736c68801905f90565b634e487b7160e01b5f52603260045260245ffd5b8051821015611a115760209160051b010190565b5f805160206128858339815191526002815414611a565760029055565b604051633ee5aeb560e01b8152600490fd5b604080516301d735e760e31b81526001600160a01b039283166004820181905260209182816024817f000000000000000000000000000000000000000000000000000000000000000089165afa908115611b78575f91611b5b575b50815f5260028352835f2054908115611b5357602484928651978893849263266d6a8360e11b84526004840152165afa938415611b49575f94611b17575b50906009915f526001815283835f2055525f2055565b918091945082813d8311611b42575b611b3081836118a2565b8101031261032f579051926009611b01565b503d611b26565b83513d5f823e3d90fd5b505050505050565b611b729150833d85116108955761088681836118a2565b5f611ac3565b84513d5f823e3d90fd5b611b8e60065443611928565b1561198757611b9b611935565b6001600160a01b0391907f00000000000000000000000000000000000000000000000000000000000000008316905f90815b8151811015611cfa5785611be18284611a25565b511660408051916301d735e760e31b835260049080828501526020916024838682818d5afa958615611cf0575f96611cd1575b50825f5260028452845f2054918215611cc257908492918d8751988994859363266d6a8360e11b8552840152165afa938415611b49575f94611c90575b50906009915f52525f205490818111611c71575b50506001905b01611bcd565b93611c82611c889260019496611928565b906119ac565b92905f611c65565b918091945082813d8311611cbb575b611ca981836118a2565b8101031261032f579051926009611c51565b503d611c9f565b50505050505050600190611c6b565b611ce9919650843d86116108955761088681836118a2565b945f611c14565b85513d5f823e3d90fd5b50509050611d0991925061259d565b43600655565b9081602091031261032f575160ff8116810361032f5790565b60ff166012039060ff82116118f657565b60ff16604d81116118f657600a0a90565b90600354801561219957604051632630c12f60e01b81527f00000000000000000000000000000000000000000000000000000000000000006001600160a01b031692602082600481875afa918215611fe4575f92612178575b506040516341976e0960e01b81526001600160a01b0380871660048301529095906020908790602490829087165afa958615611fe4575f96612144575b5060018060a01b036004541693604051946341976e0960e01b8652600486015260208560248160018060a01b0388165afa948515611fe4575f9561210d575b506040516356512fcd60e11b81526001600160a01b03831660048201529495939493602090859060249082905afa938415611fe4575f946120d9575b506001600160a01b0382165f8181526001602090815260409182902054915163313ce56760e01b8152919691949192859060049082905afa938415611fe4575f946120b8575b50601260ff851610612087575b50670de0b6b3a7640000611ec289876118e3565b04965f98611ece611935565b965f9a5b88518c101561202d576001600160a01b03611eed8d8b611a25565b511690815f52600160205260405f205490811561202157602460208d604051928380926341976e0960e01b825288600483015260018060a01b03165afa908115611fe4575f91611fef575b506004602084956040519283809263313ce56760e01b82525afa918215611fe457600195611f8995670de0b6b3a764000094611632945f91611fb5575b50601260ff821610611f92575b50506118e3565b9b5b019a611ed2565b611fae9250611fa3611fa891611d28565b611d39565b906118e3565b5f80611f82565b611fd7915060203d602011611fdd575b611fcf81836118a2565b810190611d0f565b5f611f75565b503d611fc5565b6040513d5f823e3d90fd5b90506020813d602011612019575b8161200a602093836118a2565b8101031261032f57515f611f38565b3d9150611ffd565b9c905060019150611f8b565b92969a509397509397919550801561207b5761074761204f92612055986118e3565b906126df565b90601260ff821610612065575090565b90612075611fa36119d493611d28565b9061190a565b50505050505050505f90565b6001600160a01b03165f908152600160205260409020549094506120b190611fa8611fa385611d28565b935f611eae565b6120d291945060203d602011611fdd57611fcf81836118a2565b925f611ea1565b9093506020813d602011612105575b816120f5602093836118a2565b8101031261032f5751925f611e5b565b3d91506120e8565b9394506020843d60201161213c575b81612129602093836118a2565b8101031261032f57925193926020611e1f565b3d915061211c565b9095506020813d602011612170575b81612160602093836118a2565b8101031261032f5751945f611de0565b3d9150612153565b61219291925060203d6020116108955761088681836118a2565b905f611da3565b506001600160a01b039091165f9081526001602052604090205490565b60018060a01b03809116805f5260086020600860205260409260ff60405f20541615612291575f5b600780549081831015612287578791846121f7856119dc565b949054600395861b1c1614612211575050506001016121de565b5f9892949596979893919319918282019182116118f657610d0084612238612245946119dc565b905490891b1c16916119dc565b82548015612273570192612258846119dc565b81939154921b1b19169055555f52525f2060ff198154169055565b634e487b7160e01b5f52603160045260245ffd5b5050505050505050565b5050505050565b6001600160a01b039190821690811561250d575f6122b4611935565b604051632630c12f60e01b8152927f000000000000000000000000000000000000000000000000000000000000000086169190602085600481865afa948515611fe4575f956124ec575b505f935b8251851015612460578790816123188786611a25565b511690815f52600160205260405f205491821561245357604051926341976e0960e01b84528160048501526020848b816024988992165afa938415611fe4575f9461241f575b50602060405180966356512fcd60e11b8252846004830152818b5afa8015611fe4575f906123ec575b60049550602082936040519788809263313ce56760e01b82525afa8015611fe4576123dd6123e3966127109561163295670de0b6b3a76400009460019b5f91611fb55750601260ff821610611f925750506118e3565b046118e3565b945b0193612302565b506020853d602011612417575b81612406602093836118a2565b8101031261032f5760049451612387565b3d91506123f9565b9093506020813d60201161244b575b8161243b602093836118a2565b8101031261032f5751925f61235e565b3d915061242e565b50959050600191506123e5565b959096949250602093506024915060405194859384926341976e0960e01b84526004840152165afa908115611fe4575f916124ba575b50670de0b6b3a7640000918281029281840414901517156118f6576119d49161190a565b90506020813d6020116124e4575b816124d5602093836118a2565b8101031261032f57515f612496565b3d91506124c8565b61250691955060203d6020116108955761088681836118a2565b935f6122fe565b9150505f90565b6040516323b872dd60e01b5f9081526001600160a01b03938416600452938316602452604494909452909160209060648180855af160015f511481161561257e575b836040525f6060521561256857505050565b635274afe760e01b835216600482015260249150fd5b600181151661259457813b15153d151616612556565b833d5f823e3d90fd5b80156126dc57600354801561269a576125fc9080831015612690576125c3838092611928565b92836003557f0d4979b0859a1951f8ed7cbe3b1994e740552588f27ba02ca0f8f1ddcad16e0c60408051848152866020820152a1611928565b8061264b575b50158061261f575b61261057565b600360ff19600d541617600d55565b5060ff600d541660058110156126375760021461260a565b634e487b7160e01b5f52602160045260245ffd5b60408161267b7f4be6c024138fb518bd7043eb40c52760b85e750d348d560433c9e52cfad30f51936005546119ac565b8060055582519182526020820152a15f612602565b6125c38180611928565b506040816126cb7f4be6c024138fb518bd7043eb40c52760b85e750d348d560433c9e52cfad30f51936005546119ac565b8060055582519182526020820152a1565b50565b93909192821561287d57831561284257811561280f5761270961270282856118e3565b938461190a565b036127b657670de0b6b3a764000080920490612710918281029281159180850482148317156118f65782156127fb575b5050156127b6576127499161190a565b9104801561277e5761275b818361190a565b91061561277857600101905b8181116127745750505f90565b0390565b90612767565b60405162461bcd60e51b815260206004820152601060248201526f4469766973696f6e206279207a65726f60801b6044820152606490fd5b60405162461bcd60e51b815260206004820152601760248201527f4d756c7469706c69636174696f6e206f766572666c6f770000000000000000006044820152606490fd5b6128079192508461190a565b145f80612739565b60405162461bcd60e51b815260206004820152600b60248201526a24b73b30b634b210262a2b60a91b6044820152606490fd5b60405162461bcd60e51b8152602060048201526013602482015272496e76616c696420617373657420707269636560681b6044820152606490fd5b505050509056fe9b779b17422d0df92223018b32b4d1fa46e071723d6817e2486d003becc55f00a26469706673582212207202ac33aa34fdff7f2972c60278fd831c6a02992d640cfe0d388d35ca5d603664736f6c63430008180033","linkReferences":{}},"methodIdentifiers":{"accumulatedCredit()":"19c92cc3","borrow(uint256,address)":"4b3fd148","claimCredit(uint256)":"dc8de29b","currentState()":"0c3f6acf","debtManager()":"60b3a033","debtToken()":"f8d89898","deposit(uint256,address)":"6e553f65","deposits(address)":"fc7e286d","getDepositedAssets()":"28117060","initialize(address,address,address,address)":"f8c8765e","lastSyncedValue(address)":"0890a830","lastUpdateBlock()":"a218141b","liquidate(uint256,address,uint256)":"79bd1eac","maxBorrowableAmount()":"4bb2dcea","maxBorrowableAmount(address)":"11e95e63","owner()":"8da5cb5b","repay(uint256)":"371fd8e6","strategyShares(address)":"696240ee","sync()":"fff6cae9","totalBorrowsAllTime()":"df29410e","totalDebt()":"fc7b9c18","totalDepositsAllTime()":"2c792e09","totalRepaymentsAllTime()":"9309f790","vaultRegistry()":"cdd7b38a","withdraw(uint256,address)":"00f714ce","withdrawableCollateral(address)":"836bfa18"},"id":2}