{"abi":[{"type":"constructor","inputs":[{"name":"_debtManager","type":"address","internalType":"address"}],"stateMutability":"nonpayable"},{"type":"function","name":"allowance","inputs":[{"name":"owner","type":"address","internalType":"address"},{"name":"spender","type":"address","internalType":"address"}],"outputs":[{"name":"","type":"uint256","internalType":"uint256"}],"stateMutability":"view"},{"type":"function","name":"approve","inputs":[{"name":"spender","type":"address","internalType":"address"},{"name":"value","type":"uint256","internalType":"uint256"}],"outputs":[{"name":"","type":"bool","internalType":"bool"}],"stateMutability":"nonpayable"},{"type":"function","name":"balanceOf","inputs":[{"name":"account","type":"address","internalType":"address"}],"outputs":[{"name":"","type":"uint256","internalType":"uint256"}],"stateMutability":"view"},{"type":"function","name":"burn","inputs":[{"name":"from","type":"address","internalType":"address"},{"name":"amount","type":"uint256","internalType":"uint256"}],"outputs":[],"stateMutability":"nonpayable"},{"type":"function","name":"debtManager","inputs":[],"outputs":[{"name":"","type":"address","internalType":"address"}],"stateMutability":"view"},{"type":"function","name":"decimals","inputs":[],"outputs":[{"name":"","type":"uint8","internalType":"uint8"}],"stateMutability":"pure"},{"type":"function","name":"mint","inputs":[{"name":"to","type":"address","internalType":"address"},{"name":"amount","type":"uint256","internalType":"uint256"}],"outputs":[],"stateMutability":"nonpayable"},{"type":"function","name":"name","inputs":[],"outputs":[{"name":"","type":"string","internalType":"string"}],"stateMutability":"view"},{"type":"function","name":"symbol","inputs":[],"outputs":[{"name":"","type":"string","internalType":"string"}],"stateMutability":"view"},{"type":"function","name":"totalSupply","inputs":[],"outputs":[{"name":"","type":"uint256","internalType":"uint256"}],"stateMutability":"view"},{"type":"function","name":"transfer","inputs":[{"name":"to","type":"address","internalType":"address"},{"name":"value","type":"uint256","internalType":"uint256"}],"outputs":[{"name":"","type":"bool","internalType":"bool"}],"stateMutability":"nonpayable"},{"type":"function","name":"transferFrom","inputs":[{"name":"from","type":"address","internalType":"address"},{"name":"to","type":"address","internalType":"address"},{"name":"value","type":"uint256","internalType":"uint256"}],"outputs":[{"name":"","type":"bool","internalType":"bool"}],"stateMutability":"nonpayable"},{"type":"event","name":"Approval","inputs":[{"name":"owner","type":"address","indexed":true,"internalType":"address"},{"name":"spender","type":"address","indexed":true,"internalType":"address"},{"name":"value","type":"uint256","indexed":false,"internalType":"uint256"}],"anonymous":false},{"type":"event","name":"Transfer","inputs":[{"name":"from","type":"address","indexed":true,"internalType":"address"},{"name":"to","type":"address","indexed":true,"internalType":"address"},{"name":"value","type":"uint256","indexed":false,"internalType":"uint256"}],"anonymous":false},{"type":"error","name":"ERC20InsufficientAllowance","inputs":[{"name":"spender","type":"address","internalType":"address"},{"name":"allowance","type":"uint256","internalType":"uint256"},{"name":"needed","type":"uint256","internalType":"uint256"}]},{"type":"error","name":"ERC20InsufficientBalance","inputs":[{"name":"sender","type":"address","internalType":"address"},{"name":"balance","type":"uint256","internalType":"uint256"},{"name":"needed","type":"uint256","internalType":"uint256"}]},{"type":"error","name":"ERC20InvalidApprover","inputs":[{"name":"approver","type":"address","internalType":"address"}]},{"type":"error","name":"ERC20InvalidReceiver","inputs":[{"name":"receiver","type":"address","internalType":"address"}]},{"type":"error","name":"ERC20InvalidSender","inputs":[{"name":"sender","type":"address","internalType":"address"}]},{"type":"error","name":"ERC20InvalidSpender","inputs":[{"name":"spender","type":"address","internalType":"address"}]},{"type":"error","name":"InvalidImplementation","inputs":[{"name":"impl","type":"address","internalType":"address"}]},{"type":"error","name":"Unauthorized","inputs":[{"name":"caller","type":"address","internalType":"address"}]}],"bytecode":{"object":"0x60a03462000364576001600160401b0390601f601f1962000c653881900383810183168501868111868210176200027157859282916040528339602094859181010312620003645751936001600160a01b0385169283860362000364576200006662000368565b600981526813dc989a5d081554d160ba1b868201526200008562000368565b9160058352641bdc9554d160da1b87840152815192848411620002715760039384546001948582811c9216801562000359575b8b83101462000345578185849311620002f2575b508a9085831160011462000291575f9262000285575b50505f1982871b1c191690841b1784555b8051948511620002715760049788548481811c9116801562000266575b8282101462000253578381116200020b575b5080928611600114620001a35750849550908492915f9562000197575b50501b925f19911b1c19161782555b80156200018057826080526040516108dc908162000389823960805181818161014a0152818161039a01526103f20152f35b604051630c76093760e01b81529182015260249150fd5b015193505f806200013f565b93929585908116895f52855f20955f905b89838310620001f05750505010620001d6575b50505050811b0182556200014e565b01519060f8845f19921b161c191690555f808080620001c7565b858701518955909701969485019488935090810190620001b4565b895f52815f208480890160051c820192848a1062000249575b0160051c019085905b8281106200023d57505062000122565b5f81550185906200022d565b9250819262000224565b60228a634e487b7160e01b5f525260245ffd5b90607f169062000110565b634e487b7160e01b5f52604160045260245ffd5b015190505f80620000e2565b908987941691885f528c5f20928d5f905b828210620002da5750508411620002c2575b505050811b018455620000f3565b01515f1983891b60f8161c191690555f8080620002b4565b8385015186558a979095019493840193018e620002a2565b909150865f528a5f208580850160051c8201928d86106200033b575b918891869594930160051c01915b8281106200032c575050620000cc565b5f81558594508891016200031c565b925081926200030e565b634e487b7160e01b5f52602260045260245ffd5b91607f1691620000b8565b5f80fd5b60408051919082016001600160401b03811183821017620002715760405256fe6080604090808252600480361015610015575f80fd5b5f3560e01c91826306fdde031461068157508163095ea7b3146105d957816318160ddd146105bb57816323b872dd146104c9578163313ce567146104ae57816340c10f19146103c957816360b3a0331461038657816370a082311461035057816395d89b41146102315781639dc29fac1461012057508063a9059cbb146100f05763dd62ed3e146100a4575f80fd5b346100ec57806003193601126100ec576020906100bf6107a0565b6100c76107b6565b9060018060a01b038091165f5260018452825f2091165f528252805f20549051908152f35b5f80fd5b50346100ec57806003193601126100ec5760209061011961010f6107a0565b60243590336107cc565b5160018152f35b82346100ec57806003193601126100ec576101396107a0565b602435929091906001600160a01b037f00000000000000000000000000000000000000000000000000000000000000008116330361021a57831692831561020457835f525f602052825f2054918583106101d0575f857fddf252ad1be2c89b69c2b068fc378daa952ba7f163c4a11628f55a4df523b3ef6020898881898688528785520381872055816002540360025551908152a3005b835163391434e360e21b81526001600160a01b03909216908201908152602081018390526040810186905281906060010390fd5b505f6024925191634b637e8f60e11b8352820152fd5b50602491519063472511eb60e11b82523390820152fd5b82346100ec575f3660031901126100ec578051905f835460018160011c9060018316928315610346575b60209384841081146103335783885290811561031757506001146102c3575b505050829003601f01601f191682019267ffffffffffffffff8411838510176102b057508291826102ac925282610759565b0390f35b604190634e487b7160e01b5f525260245ffd5b5f878152929350837f8a35acfbc15ff81a39ae7d344fd709f28e8600b4aa8c65c6b64bfe7fe36bd19b5b838510610303575050505083010184808061027a565b8054888601830152930192849082016102ed565b60ff1916878501525050151560051b840101905084808061027a565b602289634e487b7160e01b5f525260245ffd5b91607f169161025b565b82346100ec5760203660031901126100ec576020906001600160a01b036103756107a0565b165f525f8252805f20549051908152f35b82346100ec575f3660031901126100ec57517f00000000000000000000000000000000000000000000000000000000000000006001600160a01b03168152602090f35b82346100ec57806003193601126100ec576103e26107a0565b60243591906001600160a01b03907f0000000000000000000000000000000000000000000000000000000000000000821633036104985716928315610483576002549083820180921161047057505f927fddf252ad1be2c89b69c2b068fc378daa952ba7f163c4a11628f55a4df523b3ef9260209260025585855284835280852082815401905551908152a3005b601190634e487b7160e01b5f525260245ffd5b5f602492519163ec442f0560e01b8352820152fd5b825163472511eb60e11b81523381870152602490fd5b82346100ec575f3660031901126100ec576020905160128152f35b9050346100ec5760603660031901126100ec576104e46107a0565b6104ec6107b6565b906044359260018060a01b038216805f526001602052855f20335f52602052855f2054915f198310610527575b6020876101198888886107cc565b85831061058f57811561057957331561056357505f90815260016020908152868220338352815290869020918590039091558290610119610519565b6024905f885191634a1406b160e11b8352820152fd5b6024905f88519163e602df0560e01b8352820152fd5b8651637dc7a0d960e11b8152339181019182526020820193909352604081018690528291506060010390fd5b82346100ec575f3660031901126100ec576020906002549051908152f35b82346100ec57806003193601126100ec576105f26107a0565b60243590331561066b576001600160a01b03169081156106555760209350335f5260018452825f20825f52845280835f205582519081527f8c5be1e5ebec7d5bd14f71427d1e84f3dd0314c0f7b2291e5b200ac8c7c3b925843392a35160018152f35b8251634a1406b160e11b81525f81860152602490fd5b825163e602df0560e01b81525f81860152602490fd5b83346100ec575f3660031901126100ec575f60035460018160011c906001831692831561074f575b60209384841081146103335783885290811561031757506001146106f957505050829003601f01601f191682019267ffffffffffffffff8411838510176102b057508291826102ac925282610759565b60035f908152929350837fc2575a0e9e593c00f959f8c92f12db2869c3395a3b0502d05e2516446f71f85b5b83851061073b575050505083010184808061027a565b805488860183015293019284908201610725565b91607f16916106a9565b602080825282518183018190529093925f5b82811061078c57505060409293505f838284010152601f8019910116010190565b81810186015184820160400152850161076b565b600435906001600160a01b03821682036100ec57565b602435906001600160a01b03821682036100ec57565b916001600160a01b0380841692831561088e571692831561087657825f525f60205260405f2054908282106108445750817fddf252ad1be2c89b69c2b068fc378daa952ba7f163c4a11628f55a4df523b3ef92602092855f525f84520360405f2055845f5260405f20818154019055604051908152a3565b60405163391434e360e21b81526001600160a01b03919091166004820152602481019190915260448101829052606490fd5b60405163ec442f0560e01b81525f6004820152602490fd5b604051634b637e8f60e11b81525f6004820152602490fdfea2646970667358221220e2e94d93013bd2ef25aa179f23c92af62ec36ed15bfa6abfb6ca57e3ced23ad364736f6c63430008180033","linkReferences":{}},"methodIdentifiers":{"allowance(address,address)":"dd62ed3e","approve(address,uint256)":"095ea7b3","balanceOf(address)":"70a08231","burn(address,uint256)":"9dc29fac","debtManager()":"60b3a033","decimals()":"313ce567","mint(address,uint256)":"40c10f19","name()":"06fdde03","symbol()":"95d89b41","totalSupply()":"18160ddd","transfer(address,uint256)":"a9059cbb","transferFrom(address,address,uint256)":"23b872dd"},"id":26}