{"abi":[{"type":"constructor","inputs":[{"name":"_priceOracle","type":"address","internalType":"address"}],"stateMutability":"nonpayable"},{"type":"function","name":"BASIS_POINTS","inputs":[],"outputs":[{"name":"","type":"uint256","internalType":"uint256"}],"stateMutability":"view"},{"type":"function","name":"MAX_LTV","inputs":[],"outputs":[{"name":"","type":"uint256","internalType":"uint256"}],"stateMutability":"view"},{"type":"function","name":"approvedVaults","inputs":[{"name":"","type":"address","internalType":"address"}],"outputs":[{"name":"","type":"bool","internalType":"bool"}],"stateMutability":"view"},{"type":"function","name":"getLTV","inputs":[{"name":"asset","type":"address","internalType":"address"}],"outputs":[{"name":"","type":"uint256","internalType":"uint256"}],"stateMutability":"view"},{"type":"function","name":"getVault","inputs":[{"name":"asset","type":"address","internalType":"address"}],"outputs":[{"name":"","type":"address","internalType":"address"}],"stateMutability":"view"},{"type":"function","name":"ltvRatios","inputs":[{"name":"asset","type":"address","internalType":"address"}],"outputs":[{"name":"ltvBasisPoints","type":"uint256","internalType":"uint256"}],"stateMutability":"view"},{"type":"function","name":"owner","inputs":[],"outputs":[{"name":"","type":"address","internalType":"address"}],"stateMutability":"view"},{"type":"function","name":"priceOracle","inputs":[],"outputs":[{"name":"","type":"address","internalType":"address"}],"stateMutability":"view"},{"type":"function","name":"registerVault","inputs":[{"name":"asset","type":"address","internalType":"address"},{"name":"vault","type":"address","internalType":"address"},{"name":"ltvBasisPoints","type":"uint256","internalType":"uint256"}],"outputs":[],"stateMutability":"nonpayable"},{"type":"function","name":"setLTV","inputs":[{"name":"asset","type":"address","internalType":"address"},{"name":"ltvBasisPoints","type":"uint256","internalType":"uint256"}],"outputs":[],"stateMutability":"nonpayable"},{"type":"function","name":"setOwner","inputs":[{"name":"newOwner","type":"address","internalType":"address"}],"outputs":[],"stateMutability":"nonpayable"},{"type":"function","name":"setPriceOracle","inputs":[{"name":"_oracle","type":"address","internalType":"address"}],"outputs":[],"stateMutability":"nonpayable"},{"type":"function","name":"vaults","inputs":[{"name":"asset","type":"address","internalType":"address"}],"outputs":[{"name":"vault","type":"address","internalType":"address"}],"stateMutability":"view"},{"type":"event","name":"LTVUpdated","inputs":[{"name":"asset","type":"address","indexed":true,"internalType":"address"},{"name":"ltv","type":"uint256","indexed":false,"internalType":"uint256"}],"anonymous":false},{"type":"event","name":"OwnershipTransferred","inputs":[{"name":"previousOwner","type":"address","indexed":true,"internalType":"address"},{"name":"newOwner","type":"address","indexed":true,"internalType":"address"}],"anonymous":false},{"type":"event","name":"PriceOracleUpdated","inputs":[{"name":"oldOracle","type":"address","indexed":true,"internalType":"address"},{"name":"newOracle","type":"address","indexed":true,"internalType":"address"}],"anonymous":false},{"type":"event","name":"VaultRegistered","inputs":[{"name":"asset","type":"address","indexed":true,"internalType":"address"},{"name":"vault","type":"address","indexed":true,"internalType":"address"},{"name":"ltv","type":"uint256","indexed":false,"internalType":"uint256"}],"anonymous":false},{"type":"error","name":"ExceedsMaxBorrow","inputs":[{"name":"requested","type":"uint256","internalType":"uint256"},{"name":"max","type":"uint256","internalType":"uint256"}]},{"type":"error","name":"InvalidImplementation","inputs":[{"name":"impl","type":"address","internalType":"address"}]},{"type":"error","name":"Unauthorized","inputs":[{"name":"caller","type":"address","internalType":"address"}]}],"bytecode":{"object":"0x60803461009a57601f61060a38819003918201601f19168301916001600160401b0383118484101761009e5780849260209460405283398101031261009a57516001600160a01b0381169081900361009a5780156100825760018060a01b0319908160035416176003553390600454161760045560405161055790816100b38239f35b60249060405190630c76093760e01b82526004820152fd5b5f80fd5b634e487b7160e01b5f52604160045260245ffdfe6080604090808252600480361015610015575f80fd5b5f3560e01c91826304473f271461041e575081630eb9af38146103f857816313af40351461035d5781631620f74b146102b15781632630c12f14610289578163530e784f146101e157816376daa74e146101bc57816381bf8d3d146101a05781638da5cb5b1461017957508063a622ee7c14610141578063aca25f9a1461010a578063af7a060c146100ce5763e1f1c4a7146100af575f80fd5b346100ca575f3660031901126100ca57602090516127108152f35b5f80fd5b50346100ca5760203660031901126100ca576020906001600160a01b036100f361050b565b165f526002825260ff815f20541690519015158152f35b50346100ca5760203660031901126100ca576020906001600160a01b0361012f61050b565b165f5260018252805f20549051908152f35b50346100ca5760203660031901126100ca576020906001600160a01b038061016761050b565b165f525f8352815f2054169051908152f35b82346100ca575f3660031901126100ca57905490516001600160a01b039091168152602090f35b82346100ca575f3660031901126100ca5760209051611d4c8152f35b82346100ca5760203660031901126100ca576020906001600160a01b0361012f61050b565b9050346100ca5760203660031901126100ca576101fc61050b565b81546001600160a01b039291908316330361027357821692831561025d575050600354826bffffffffffffffffffffffff60a01b821617600355167f56b5f80d8cac1479698aa7d01605fd6111e90b15fc4d2b377417f46034876cbd5f80a3005b51630c76093760e01b8152908101839052602490fd5b835163472511eb60e11b81523381840152602490fd5b82346100ca575f3660031901126100ca5760035490516001600160a01b039091168152602090f35b9050346100ca57816003193601126100ca576102cb61050b565b8154602435926001600160a01b0392918316330361034657611d4c80851161032957857febd3ba6f8a5d6bb5cd872c33816e240f4fd87f9286912ef1afdc7b2552205d4d60208787871693845f526001835281815f205551908152a2005b8551630760af8760e01b8152918201859052602482015260449150fd5b60249085519063472511eb60e11b82523390820152fd5b9050346100ca5760203660031901126100ca5761037861050b565b81546001600160a01b038082169392338590036103e257169384156103cc57506001600160a01b031916831790557f8be0079c531659141344cd1fd0a4f28419497f9722a3daafe3b4186f6b6457e05f80a3005b51630c76093760e01b8152808301859052602490fd5b855163472511eb60e11b81523381860152602490fd5b82346100ca5760203660031901126100ca576020906001600160a01b038061016761050b565b8390346100ca5760603660031901126100ca5761043961050b565b6024356001600160a01b03818116959092918690036100ca57604435938382541633036104f7575085156104e057611d4c808511610329575050916020917fbdf39c8e4504706c3ee61ab487623ef56ab40afa1c9bd55cc1732562ab38114a931693845f525f8352805f20866bffffffffffffffffffffffff60a01b8254161790556001835281815f2055855f5260028352805f20600160ff1982541617905551908152a3005b8451630c76093760e01b8152908101869052602490fd5b60249163472511eb60e11b82523390820152fd5b600435906001600160a01b03821682036100ca5756fea264697066735822122018230eb8090321a04cf73ce348c3671aee76fad600d7e605cad726d58d4b804964736f6c63430008180033","linkReferences":{}},"methodIdentifiers":{"BASIS_POINTS()":"e1f1c4a7","MAX_LTV()":"81bf8d3d","approvedVaults(address)":"af7a060c","getLTV(address)":"aca25f9a","getVault(address)":"0eb9af38","ltvRatios(address)":"76daa74e","owner()":"8da5cb5b","priceOracle()":"2630c12f","registerVault(address,address,uint256)":"04473f27","setLTV(address,uint256)":"1620f74b","setOwner(address)":"13af4035","setPriceOracle(address)":"530e784f","vaults(address)":"a622ee7c"},"id":28}